:10000000F03F0010A9850000A7850000A78500002B
:10001000A7850000A7850000A7850000000000005C
:10002000000000000000000000000000A7850000A4
:10003000A785000000000000A7850000BD75000036
:10004000A1730000A1730000A1730000A173000060
:10005000A1730000A1730000A1730000A173000050
:10006000A1730000A1730000A1730000A173000040
:10007000A1730000A5850000A5850000C100000057
:10008000597600007176000089760000A1760000A4
:10009000A585000015770000A5850000A585000056
:1000A000A5850000A5850000A5850000A5850000A8
:1000B000A5850000A5850000A5850000A585000098
:1000C000594A10B5136801331360584B584A1B68DE
:1000D000DBB2302B00D176E018D8182B5AD005D8D7
:1000E000082B37D0102B46D0082351E0202B00D10D
:1000F0007AE0282BF8D14F4B4F491868096888429D
:1001000052D21968481C18604C4B48E0482B00D16B
:100110006AE00AD8382B60D0402BE5D1484B1968EB
:10012000042301295DD11360DEE7502B66D0582BE4
:10013000DAD14448444B1B680168DBB24C1C0460B4
:10014000424843540221424BFF3119608023F13968
:10015000DB0530E00021374B19601968481C186036
:10016000364B5B5C3849DBB20B60282313600122FD
:10017000374B1A6010BD0021324B19602D490B68B6
:10018000581C08602D49CB5C2F49DBB20B6028233B
:100190001360EFE727490B68581C086027495B5C30
:1001A0002949DBB20B609FE7254B19688023DB05EB
:1001B000002902D02021196096E702202449FF304F
:1001C00008601021F7E780231021DB051960082360
:1001D000136081221E4B5200CBE782211C4B490049
:1001E000E9E78021C905DDE780231021DB051960DF
:1001F000082313600422164BFF32BAE71149124B51
:100200001B680868DBB2441C0C60104C23540C4B78
:100210001B680868013B0421834202D98023DB0567
:10022000C9E7116060E7C0465C1D00100400004093
:1002300018000040581D0010501D0010281D00100F
:100240003C1D0010541D001008000040401D00100F
:10025000381D001002231B4A70B511681A4D0B435C
:1002600013602023194A040011680B431360184BD4
:100270001A682A401A600122186810431860154B4A
:1002800019682940196019680A431A606C22124BD8
:1002900012491A60124B186808F03AFA114B1860AC
:1002A000114B1860022C02D1A022104B1A60802240
:1002B0000F4B12021A6080234022DB0501201A60D6
:1002C00070BDC04604800440F8FCFFFF80800440FD
:1002D000304004403440044018000040400D03000A
:1002E000581B001014000040100000400C0000409B
:1002F00000E100E00000000000000000000000003D
:100300000122F8B508210600100006F097FF072427
:10031000082700223900012006F090FF3200012555
:100320002241022100202A4006F088FF2A003900DD
:10033000280006F083FF013CEBD2F8BD70470000B7
:1003400007490B889808DA0842405A40580950403B
:100350000122D3401040C003184308807047C046B4
:1003600030000010552243084000904313400343DF
:10037000DBB2223A98089B00104093430343DBB260
:1003800018091B011843C0B2704700000523F0B5DF
:100390002038434389B005932D4B00271B780492E6
:1003A000009384235A43029107922A4B059AD3184B
:1003B000DB5D1C000193049B002B01D06400E4B2C0
:1003C0000023029D0393009B029A9B18DBB2AB4271
:1003D00039D0079B0026EA181F4BD318069325E057
:1003E0000295E2E7009B022B18D10199B300194155
:1003F0000B000F210B409C00234324310B405C0079
:100400001C4355231C4063001C436400E4B2002AD3
:1004100013D0039B002B01D001231C432000FFF7C6
:10042000A1FF84237343069A0136D054009BF2B295
:100430009342D7D80135EDB2C5E763B2002BEDDAB0
:1004400001230393EAE70137052FC9D109B0F0BDB5
:1004500025000010FDA60000D0120010F8B5040021
:100460000D00160006272078002800D1F8BD2900CD
:100470003200FFF78BFF034B0134197879436D1875
:10048000EDB2F0E725000010F8B506000C001700EB
:100490003078002800D1F8BD0A4B1D782E280AD1EB
:1004A000641BE4B23A002100FFF770FFAD0064194D
:1004B000E4B20136ECE73A002100FFF767FF0623BC
:1004C0005D43F4E7250000100F2313B503405724C4
:1004D000092B00D8273C1B196C466371572403096C
:1004E0009F2800D8273C68461B19037101A8FFF715
:1004F000B5FF13BD03001A7819000133202AFAD082
:100500000023CA5CC2540133002AFAD170470000AC
:100510008423CA0853431818842310B55B009842FB
:1005200008DA0722083B8A43FF3B9340024C225CD7
:100530001343235410BDC046D012001070B50D00F7
:1005400004000A21280008F0DFF830312023617010
:10055000092D0AD90A21280008F050F80A21C0B252
:1005600008F0D2F80B003033DBB2237070BD00000E
:10057000F7B519001E4B04001B7810001027002B44
:1005800000D1063F00230193994206DA0B000200D6
:100590000021504299410123019325003A00002394
:1005A000009508F019FA8C46D1B2030057200929AA
:1005B00000D82738091800986A1C01706146180095
:1005C00015000B43EAD1019B002B03D02D231370A0
:1005D000009A02320021531E1170A34200D8F7BDC9
:1005E0001A782178013B597022700134F5E7C04632
:1005F000EF030010F7B51022134B05001B78019292
:10060000002B01D10A330193002000212B78002B0D
:1006100001D103B0F0BD1C00303CE4B2092C06D976
:100620001A00613A1C00052A01D8573CE4B20200C6
:100630000B000198002108F0F3F92600002701358E
:1006400080197941E2E7C046EF03001030B514008D
:100650001D0087B00B00020001A8FFF789FF2A00E8
:10066000210001A8FFF7FAFE07B030BD054A0020BF
:100670001378002B05D0013BDBB21370024A9B00BC
:10068000985870474702001048020010034A137838
:10069000591C1170024A5B00D05270474101001092
:1006A000420100100020054A1378834205D0013B27
:1006B000DBB21370024A5B00985A70474101001088
:1006C000420100100023034A1370034A1370034AC7
:1006D00013707047890200100A030010EC03001029
:1006E000034A1378002B01D0013B13707047C046BA
:1006F0000A030010034A1378002B01D0013B13704A
:100700007047C04664010010034A1378182B01D8C3
:10071000013313707047C0466401001030B5074BB9
:10072000020019780023064CD8B2814201D8FF207C
:1007300003E00133E55C9542F6D130BD4310001073
:10074000431000108021084A431C9BB29B180901EA
:100750001A78013080B2FF2A00D1704701338842F5
:10076000F6D30020F9E7C0463604001070B5040047
:100770000020064D002C03D0013CE4B2A84202D96F
:10078000013080B270BDFFF7DDFFF3E7FE07000028
:1007900010B5044B18780138C0B2FFF7E7FFFFF738
:1007A000D1FF10BD4310001010B5024B1888FFF7A1
:1007B0006DFF10BD360C00100022014B1A707047FF
:1007C000470200100D488021038830B51A0000242C
:1007D000012509018A420DD300228B4200D8CA1A92
:1007E0009B189BB2002C00D00380054A1378013B74
:1007F000137030BD01322C0092B2EBE7360C0010C2
:100800006C010010024A1378013B13707047C04618
:100810006C010010054A1378023B591E8B415B00A6
:1008200013700022024B1A707047C046EC03001090
:10083000F0030010054B064A1B781178123BDBB21F
:10084000994200D1002313707047C0460D04001078
:1008500040030010024A137859424B41137070470D
:10086000EF03001010B5044C044B207819780130C8
:1008700008F034F8217010BD44020010431000103D
:1008800010B5054B054C197820784B1EC01808F0A0
:1008900025F8217010BDC04643100010440200101E
:1008A00010B5044C044B20781978013008F016F884
:1008B000217010BD340400104310001010B5054B1A
:1008C000054C197820784B1EC01808F007F82170E5
:1008D00010BDC046431000103404001003230B4029
:1008E000890841333131037041707047074A002055
:1008F00013780021002B07D0013BDBB21370044AB0
:10090000DB00D318186859687047C0460A1A0010EF
:10091000101A0010012330B500200A241D00084AD7
:10092000084912780B80002A03D1002800D00B80E0
:1009300030BD6343013A28009BB2D2B2F3E7C04610
:10094000091A00103C020010F7B50D4B01251B7869
:10095000002401930B4B0C4E1A78032353439D4004
:10096000EF17019BA34200D1F7BD306871682A00E0
:100970003B0008F031F8013403C6E4B2F1E7C046A9
:100980000A1A0010091A0010101A0010034A04492C
:10099000137809785B1813707047C0464001001047
:1009A00049110010034A044B11781B780B40137057
:1009B0007047C0464001001049110010024A1378E8
:1009C000013313707047C04640010010024A13788B
:1009D000013B13707047C0464001001010B5044B36
:1009E000044C1978207807F009FE207010BDC0462D
:1009F00049110010400100103C22034B1B789B0062
:100A00001340024A13707047EE01001024000010DA
:100A100010B5044B044C1978207807F075FE21704E
:100A200010BDC0464911001040010010034A04499E
:100A3000137809784B4313707047C046400100108B
:100A4000491100100F200449044A0B7812781B0149
:100A5000024013430B70704740010010EE0100107C
:100A600070470000024A1378DB4313707047C0469A
:100A700040010010024B1A78024B1A707047C046B2
:100A80004001001030020010034A0449137809782D
:100A90000B4313707047C04640010010491100100D
:100AA0000720044A044912780B78024093400B70E7
:100AB0007047C046EE010010400100100720044AB4
:100AC000044912780B78024013410B707047C046FE
:100AD000EE01001040010010034A04491378097820
:100AE0005B1A13707047C046400100104911001096
:100AF000034A044B11781878197010707047C0467B
:100B00004001001049110010034A04491378097884
:100B10004B4013707047C04640010010491100104F
:100B20003F22044B1B781340034A1178034AD154E7
:100B30007047C046EE01001040010010EF010010A8
:100B40003F22044B1B781340034AD25C034B1A70BC
:100B50007047C046EE010010EF0100104001001088
:100B600026490300820908703FD102090120002AAA
:100B700031D00E300340012A2ED10D38002B2AD05F
:100B80000330012B27D00130022B24D00130032B5E
:100B900021D00130042B1ED00130052B1BD0013099
:100BA000062B18D00130072B15D00330082B12D09C
:100BB0000130092B0FD001300A2B0CD001300B2B48
:100BC00009D002300C2B06D001300D2B03D00130A0
:100BD0000E2B00D0023070471620022AFBD11038AD
:100BE0009842804140420C30F5E70320012AF2D0C0
:100BF0000130022AEFD00E30EDE7C046EE010010C2
:100C000070B50D0014000321FFF7C0FB230028007E
:100C100009220021FFF71AFD084E2200705D1821FD
:100C2000FFF752FC705DFFF79BFF054B8000220031
:100C30002721C058FFF712FC70BDC046EF0100101D
:100C4000F8A300008022030008485200002B05D0C2
:100C50000178002902D0013A002A00D17047013002
:100C60000A29F3D1013BDBB2F0E7C04632000010A5
:100C7000802305485B000278002A02D0013B002B4C
:100C800000D170470130F6E7320000100023180051
:100C90000649CA5C002A01D0FF2B00D170470A2AFE
:100CA00001D10130C0B20133F3E7C0463200001079
:100CB00010B5084B08491A7801235C5CD8B29442FD
:100CC00002D90138C0B210BD01330E2BF5D100207E
:100CD000F9E7C04644030010C8AD000010B5104B42
:100CE0000322187800210123FFF7B0FC012215210F
:100CF0008C20FFF74BFB0B4B1B2218680123C117FD
:100D0000FFF7A4FC012233218F20FFF73FFB064BA6
:100D1000392218680123C117FFF798FC10BDC0469F
:100D20000B0400106801001048030010F7B5174BC2
:100D3000174A1C78019023019B5A20000093210040
:100D400000231588009EB54209D98C4206D00F01B8
:100D5000BC4666460E4FF65BAE4200D91900009EB7
:100D6000B54206D284420ED0094F0601F65BAE4270
:100D700009D30133DBB21032762BE2D1019B002B79
:100D800000D10800FEBD1800F3E7C046481100106E
:100D9000B8B70000F0B585B0022829D1042100229F
:100DA0008C460192524E0324083615E0087900283B
:100DB00008D10F78002F05D0019B0F710133DBB2F2
:100DC00008700193013DEDB20131002DEED1013CDF
:100DD000E4B2043E944202D931006546E6E70132AE
:100DE000D2B2032ADED1019B5A1E9341D8B254E0FD
:100DF000042822D1002201921CE0CF78002F08D1D4
:100E00008B78002B05D0CB70019B8F700133DBB248
:100E10000193013DEDB201399542EED8013CE4B2B7
:100E20000436002C02D031000325E6E70132D2B2AD
:100E3000032AD8D004002E4EF5E701282AD1002439
:100E40002B4E0194611CA5003200C9B26D4217E01F
:100E50001778002F0BD1029B5019C35C002B06D0D2
:100E60001370029BC754019B0133DBB20193039BB8
:100E700001329A42ECD10131C9B2043D042904D0B7
:100E80008B000293131D0393E2E701340436032C15
:100E9000D8D1A8E7032827D0002005B0F0BD3078CE
:100EA0000132D2B2002808D1AB5C002B05D03370E0
:100EB000019BA8540133DBB201930136032AEED122
:100EC00001340437042C05D0094BA5003E00029ADA
:100ED0005D19E4E70131032900D184E7CBB2029325
:100EE000034B00245F18EFE700210191F6E7C046AD
:100EF0002D030010084B400070B5C45C1B185D78D2
:100F000020002900002206F04DF9290001222000CE
:100F100006F094F970BDC0466CB700000122F8B528
:100F200008210600100006F089F90724082700228E
:100F30003900012006F082F9320001252241022108
:100F400000202A4006F07AF92A003900280006F02D
:100F500075F9013CEBD2F8BD002210B50400110078
:100F6000022006F06BF92000FFF7D8FF10BD00004B
:100F7000F8B50F4C060020000D0006F04FFE5F2371
:100F80002018037000234370200006F047FEC3B210
:100F9000C7B22000AB4201D9781B001932000321EF
:100FA000FFF772FA0023E419013C2370F8BDC04634
:100FB0005C03001010B5084C200006F02FFEC3B2F1
:100FC000002B05D00023C0B22418013C237010BDB3
:100FD000FFF74CFBFBE7C0465C03001070B54D1CEF
:100FE00046180C00451906F019FE2900021B3000B6
:100FF00006F0B0FD70BD000010B5064C2178002948
:1010000007D001390448C9B2FFF7E8FF2378013B54
:10101000237010BD0A03001089020010F0B50026ED
:1010200085B001900C2703257743F3B2B4000093F9
:10103000341B019B793CE4B2DF1929002000009A9F
:10104000FFF7A4F9002302AA3900137102A80422B1
:1010500006F080FDE91D2435009AC9B202A80134CA
:10106000EDB2FFF7FBF9E4B204376F2DE5D1012EA5
:1010700001D00126D6E705B0F0BD0000F8B50500A7
:101080000026064C83222778200005498334013648
:1010900006F060FD2770AE42F3D1F8BDD01200100B
:1010A000D112001070B50D00040005F071FE29008A
:1010B000200005F015FF70BD07B5684601A9FFF7D0
:1010C000F1FF6B46FA221B88D2009B18034A13607B
:1010D0006B469A78024B1A7007BDC0463802001062
:1010E0003302001007B5684601A9FFF7DBFF6B4626
:1010F0003C205B7958436B469B79C0180EBDF8B510
:101100001700040008000D0006F088FDE419C6B2BF
:10111000200006F083FDA7192100421C380006F0CC
:101120005CFD32002900200006F014FDF8BD00002F
:1011300070B50A4C0A4E2378051C0F2B07D93C22A8
:101140003000311D06F049FD2378013B23702378E0
:10115000281C5A1C9B00F550227070BD47020010DD
:101160004802001010B5FFF7EBF808F0AFF8FFF7F2
:10117000DFFF10BD10B5FFF779FA08F039F80A2142
:1011800007F0ACFB024B8900C858FFF7D1FF10BD38
:10119000E013001070B5FFF769FA051CFFF766FA57
:1011A000041C281C08F024F80A2107F097FB044BC4
:1011B000C9B28900CC50201CFFF7BAFF70BDC046F1
:1011C000E013001010B5FFF751FA07F057FCC0B25A
:1011D000002809D0054B1B78834205D31B1A044A0B
:1011E0009B009858FFF7A4FF10BDC04647020010AF
:1011F0004802001010B5FFF739FA041CFFF736FA61
:10120000011C201C07F0DEFB002803D10020FFF7A3
:101210008FFF10BDFE208005F9E710B5FFF726FA15
:10122000002107F0ABFB002803D10020FFF780FF6F
:1012300010BDFE208005F9E710B50248FFF778FFE2
:1012400010BDC046DB0F494070B5FFF70FFA041C14
:10125000FFF70CFA051C201C07F0CAFF0400281C2D
:1012600007F0C6FF2040C04307F0E2FFFFF760FF32
:1012700070BD000010B5024B1868FFF759FF10BD94
:101280001404001010B5FFF7F1F9011CFE208005D1
:1012900006F032FEFFF74CFF10BD10B5FFF7E6F980
:1012A00080231B06C018FFF743FF10BD70B5FFF782
:1012B000DDF9051CFFF7DAF9041C281CFFF738FFDD
:1012C000201CFFF735FF70BD10B5FFF7EFFFFFF7EC
:1012D000CDF9041CFFF7EAFF201CFFF729FF10BD22
:1012E00010B5FFF7C3F9FFF723FFFFF721FF012236
:1012F000014B1A7010BDC04618040010F0B585B03F
:101300000391FFF733FA0600FFF71CFA00240130BF
:1013100083B201939B1B013B9BB20293039BE7B2F9
:101320001B5DFF2B04D00134812CF7D1013C270039
:10133000FFF72EFA8022029B1201C31ADB19934297
:1013400011DA029A0F4DBBB297420ED201990139C0
:10135000421AA0196918281806F0FCFB220003990C
:10136000A81906F0F7FB05B0F0BD029A9342F5D933
:1013700001990139421AA01901326918281806F09A
:101380002CFCEBE736040010F8B50D4F06003B7857
:101390000D000C4C032B08D9210018222000083125
:1013A00006F01BFC3B78013B3B703B7830005A1C3D
:1013B000DB00E41829003A7026606560F8BDC0467D
:1013C0000A1A0010101A001010B5034B186859685B
:1013D000FFF7DAFF10BDC046301A001010B5FFF756
:1013E00085FA024B03C3FFF7CFFF10BD301A001080
:1013F000F0B50324012589B0FFF778FA1D4B019061
:101400001B7802915C430434A540EB172A00059336
:1014100007F006FB0223A34000240393019EDB1781
:10142000029F06900791049332003B0006980799AB
:1014300007F0D2FA2A00059B8019794107F0F0FAEB
:10144000039A049B07F0C8FAB04201D1B94207D011
:101450001D2C0BD1019E029F0134E4B21E2CE3D15E
:1014600030003900FFF790FF09B0F0BD06000F0013
:10147000F2E7C046091A001010B5FFF737FAFFF778
:1014800083FFFFF781FF0122014B1A7010BDC04698
:101490001804001010B5FFF729FA002342428B41CF
:1014A00010001900FFF770FF10BD000070B5FFF7C6
:1014B0001DFA06000D00FFF719FA032402000120AF
:1014C0000B00074909784C430434A040C11707F0CA
:1014D000A7FA32002B0007F07FFAFFF755FF70BD27
:1014E000091A001070B5FFF701FA05000C00FFF7AC
:1014F000FDF902000B002800210007F091FA064BCD
:101500001A7803235343012204339A40D31707F078
:1015100063FAFFF739FF70BD091A001070B5032494
:10152000134B0A251B785C43FFF7E0F901220434D2
:10153000A240D317A54007F04FFAEE1744B20306B6
:1015400011D5013464B2012C00D170BD28003100E6
:10155000FFF71AFFFFF7AAFFF3E728003100FFF7B4
:1015600013FFFFF7BFFF013C64B2631CF5D1ECE74A
:10157000091A001070B5FFF7B9F90D000400FFF764
:10158000B5F900196941FFF7FFFE70BD10B5FFF70F
:1015900081FFFFF7EFFF10BD70B5FFF7A7F905005A
:1015A0000C00FFF7A3F928402140C043C943FFF7CF
:1015B000EBFE70BDF8B504000025074E8322330012
:1015C00083331F7831000548013506F006FB37707C
:1015D000A542F2D1F8BDC046D0120010D1120010C1
:1015E00070B5002186B0041C07F0CEF9051E03D0AB
:1015F000802301251B06E41801A9201C134A06F0CC
:1016000060FE2E2101A806F0FEFA002816D16A46D7
:1016100030235071137100230D4C01A826782370DC
:10162000FEF7E8FF267002000B00002D02D0002319
:1016300042428B411000190006B070BD2E2101A856
:1016400006F0E1FA00230370E5E7C0461212121813
:10165000EF030010F7B5019105000021019807F094
:1016600093F9002841D080220624019B12069F187E
:101670002C49381C07F0A6F9002839D02A49381C13
:10168000033C07F081F9002812D1381C07F06CFFE9
:10169000264A274B06000F0007F050F9002808D013
:1016A00030003900234A244B07F034F9002800D0D9
:1016B0000134224A29000198224306F002FE452106
:1016C000280006F0A0FA00280ED0441BE6B2310034
:1016D00028002C19FFF782FC6378302B04D10136E7
:1016E0002800F1B2FFF77AFCF7BD0724019FBFE79E
:1016F0001349381C07F048F9002801D0033CC4E71F
:101700001049381C07F040F9002801D0023CBCE722
:10171000FE21381C890507F037F9431E9841241A29
:10172000B3E7C0468096184BF9021550BBBDD7D918
:10173000DF7CDB3DFCA9F1D24D62503F000307186E
:101740000AD7233CCDCCCC3D30B50C00150085B07C
:10175000011C01A8FFF77EFF2A00210001A8FEF767
:1017600093FE05B030BD0000F8B5194BC700FF1857
:10177000060038000C00150006F050FA002814D0BE
:101780002A0021003800FEF769FE124B1B78B34295
:101790000AD10621104B49421B782A00594361188F
:1017A000B220C9B2FEF7F2FDF8BD0C4BB200D7581B
:1017B0000021381C07F0E2F82A002100002803D09D
:1017C000CC20FEF7E3FDE0E7381CFFF7BDFFDCE7C8
:1017D0004D110010D81300102500001050120010F9
:1017E000F7B5234B234A1E78234B1B78D05C002E81
:1017F0000CD00521414321480918214806F016FA6A
:101800001F4806F00BFA1F4B1870F7BDFEF7AEFF2E
:1018100004001D4B1B5DFF2B27D1194B9E19002384
:10182000013E3370ECE705203B5D43431348C3188A
:1018300001981B5C4B551500AB1BDBB201930523D4
:10184000114F385D58430D4BC01806F0E7F9019B66
:101850006A1C0B49D2B2834201D22B06E3D5202366
:10186000013416004B55A4B2D3E73500E4E7C04677
:10187000EA0300104410001034040010380C00106B
:10188000890200100A03001036040010044B10B542
:10189000C000C018034B8900C95806F0C7F910BD35
:1018A0004D1100105CA5000030B5032587B008215C
:1018B0000120FFF7EBFF2A4C2A002100684606F0C2
:1018C00049F969467320FFF719FD1F210520FFF72D
:1018D000DDFF2A00611901A806F03CF901A9772073
:1018E000FFF70CFD20210920FFF7D0FF2A00A11DE2
:1018F00002A806F02FF902A97B20FFF7FFFC2121A7
:101900000D20FFF7C3FF21002A00093103A806F0CC
:1019100021F903A97F20FFF7F1FC22211120FFF715
:10192000B5FF21002A000C3104A806F013F904A920
:101930008320FFF7E3FC23211520FFF7A7FF2100F9
:101940002A000F3105A806F005F905A98720FFF741
:10195000D5FC24211920FFF799FF07B030BDC04600
:1019600043A0000070B5082192B00120FFF78EFF60
:10197000574C032521002A006846123106F0EAF888
:1019800069467320FFF7BAFC25210520FFF77EFF8B
:1019900021002A00153101A806F0DCF801A9772002
:1019A000FFF7ACFC26210920FFF770FF0826210075
:1019B0003200183108A806F0CDF808A97B20FFF7FF
:1019C0009DFC27210D20FFF761FF2100320020310F
:1019D0000AA806F0BFF80AA97F20FFF78FFC28218C
:1019E0001120FFF753FF21000136320028310CA8E7
:1019F00006F0B0F80CA98320FFF780FC2921152000
:101A0000FFF744FF2100320031310FA806F0A2F8A1
:101A10000FA98720FFF772FC2A211920FFF736FF54
:101A200021002A003A3102A806F094F802A9752094
:101A3000FFF764FC2B210720FFF728FF21002A0075
:101A40003D3103A806F086F803A97920FFF756FC7C
:101A50002C210B20FFF71AFF21002A00403104A897
:101A600006F078F804A97D20FFF748FC2D210F200F
:101A7000FFF70CFF21002A00433105A806F06AF8A1
:101A800005A98120FFF73AFC2E211320FFF7FEFE67
:101A9000210001352A00463106A806F05BF806A9A8
:101AA0008520FFF72BFC2F211720FFF7EFFE2100E9
:101AB0002A004A3107A806F04DF807A98920FFF748
:101AC0001DFC30211B20FFF7E1FE12B070BDC046A7
:101AD00043A000001FB50E490B224E3101A806F0AD
:101AE00039F801A97B20FFF709FC1B210120FFF732
:101AF000CDFE1C210520FFF7C9FE1D210920FFF79F
:101B0000C5FE1E210D20FFF7C1FE05B000BDC04679
:101B100043A0000030B51F4C0425210085B02A00E9
:101B2000593101A806F016F801A97720FFF7E6FB66
:101B300021002A005D3102A806F00CF802A97F20DE
:101B4000FFF7DCFB21002A00613103A806F002F850
:101B500003A98720FFF7D2FB0D210120FFF796FE96
:101B60000E210520FFF792FE0F210920FFF78EFEC0
:101B700010210D20FFF78AFE0E211120FFF786FEAF
:101B800007211520FFF782FE1A211920FFF77EFE9C
:101B900005B030BD43A0000010B5184C88B021003E
:101BA0000F226846653105F0D5FF69467F20FFF7B3
:101BB000A5FB21001022743104A805F0CBFF04A975
:101BC0008320FFF79BFB03210120FFF75FFE03212A
:101BD0000520FFF75BFE07210920FFF757FE1721BD
:101BE0000D20FFF753FE18211120FFF74FFE19219A
:101BF0001520FFF74BFE08B010BDC04643A0000003
:101C000030B51D4C91B01022211D01A805F0A2FF96
:101C100001A97B20FFF772FB132521002A00143154
:101C200005A805F097FF05A97F20FFF767FB2100B6
:101C3000172227310AA805F08DFF0AA98320FFF794
:101C40005DFB11210120FFF721FE12210520FFF786
:101C50001DFE29000920FFF719FE14210D20FFF7B2
:101C600015FE15211120FFF711FE16211520FFF793
:101C70000DFE11B030BDC046C3A000001FB5072443
:101C8000144922003E3102A805F064FF02A9772022
:101C9000FFF734FB104904225D3101A805F05AFF1B
:101CA00001A97F20FFF72AFB09210120FFF7EEFDA4
:101CB00021000520FFF7EAFD0A210920FFF7E6FDD4
:101CC0000B210D20FFF7E2FD0C211120FFF7DEFDB7
:101CD0001FBDC046C3A0000043A0000010B5164CB5
:101CE00086B021000822453101A805F033FF01A983
:101CF0007B20FFF703FB21000A224D3103A805F0EA
:101D000029FF03A97F20FFF7F9FA01210800FFF757
:101D1000BDFD05210800FFF7B9FD06210920FFF7E9
:101D2000B5FD02210D20FFF7B1FD07211120FFF7BE
:101D3000ADFD06B010BDC046C3A0000000B50E4901
:101D400089B01C22573101A805F004FF01A97B20AE
:101D5000FFF7D4FA00210120FFF798FD03210520A9
:101D6000FFF794FD04210920FFF790FD01210D20CC
:101D7000FFF78CFD09B000BDC3A0000070B50025C1
:101D800086B0094C02000B0001A826782570FEF7EA
:101D9000EFFB00232A00684601A92670009306F095
:101DA00064FB009806B070BDEF03001010B5FEF79D
:101DB0005DFCFFF715FCFFF7E1FFFFF7B9F910BD78
:101DC00070B5050000240526094B1B78A34202D8F4
:101DD000FF24200070BD30006043064B2900C0186E
:101DE00005F02BFF0028F4D00134E4B2ECE7C04644
:101DF00043100010380C001007B5094B1B78002B5E
:101E00000DD0084A69460092002240338B70684624
:101E10000A71FFF7D5FFFEF7A9FC034B188007BD39
:101E200040030010464E7800360C00100122084B8B
:101E300010B508481A70FFF7C3FF074B1870074B1F
:101E400018700748FFF7BCFF064B187010BDC0465E
:101E5000FF030010749900004B1100104C1100108A
:101E6000779900004A11001013B50B4904000222B3
:101E7000733101A805F06EFE6B460022210001A817
:101E80009A71FEF72BFD01A8FFF79AFFFEF746FCBB
:101E9000024B187013BDC046C3A0000034040010EC
:101EA000F8B5144B14491C780023DAB2944205D8D3
:101EB0000527013CE4B2002C03D1F8BDCA5401331C
:101EC000F3E700260C4D69782878794378430B4B6B
:101ED0000136C918C018F6B205F0AFFE002803DDC0
:101EE0002B786A786B702A700135A642EBD1013CE1
:101EF000E4B2E0E74310001044100010380C00106A
:101F000010B5FEF7B3FB06F04AF9FFF711F910BD63
:101F100010B5FEF7ABFB06F00DF9FFF709F910BDA0
:101F200037B5694D2B78242B05D10023674A1370F0
:101F3000674A137037BD674A1278042A04D1664A8B
:101F4000137859424B41F4E7052A2AD101AC21000C
:101F50006846FFF7A7F82B78132B0BD12378172BA4
:101F600001D80133DBB2237000222100684604F05F
:101F7000FBFFDFE7182B04D12378002BF3D0013BC4
:101F8000F0E7142B06D163783B2B01D80133DBB289
:101F90006370E9E7192BE7D16378002BF8D0013B98
:101FA000F5E7072A2DD1132B06D14C4A1378EF2BD6
:101FB000BFD80133DBB2BCE7182B05D1474A1378F1
:101FC000052BB6D9013BF5E7142B0CD1052243496B
:101FD0000B78EF2B01D80133DBB2013AD2B2002AE1
:101FE000F7D10B70A6E7192BA4D105223B490B783A
:101FF000052B01D9013BDBB2013AD2B2002AF7D15D
:10200000EFE7082A3FD1684601A9FFF74BF82B7884
:10201000132B0AD16B461B88622B01D801339BB26C
:102020006A461380002201A9A0E7182B05D16B4650
:102030001B88002BF4D0013BF1E7142B08D16B4631
:102040009B780B2B01D80133DBB26A469370E9E72A
:10205000192B05D16B469B78002BF6D0013BF3E79B
:10206000152B08D16B46DB781E2B01D80133DBB270
:102070006A46D370D6E71A2BD4D16B46DB78002B97
:10208000F6D0013BF3E7092A00D053E7132B06D122
:10209000134A13783E2B0BD80133DBB208E0104A09
:1020A000182B0CD0142B07D10E4A1378062BF3D91A
:1020B000137004F04DFC3DE7192BFAD1094A13784F
:1020C000002BF5D0013BE8E70D04001003040010DD
:1020D000F1030010D9130010260000102F0000108B
:1020E000401B00103501001010B50B4B1B78002B66
:1020F00008D0FEF7BBFA002106F040FC002802D110
:10210000FEF7D0FA10BDFEF7CDFA044B80B218806E
:10211000FEF7BCFAF6E7C04641010010360C00108D
:1021200070B50C4C2378002B02D00023237070BDB7
:10213000094D2B78002B05D0084B1B78002B01D0C4
:10214000FEF702FC002201232A70054A2370138047
:10215000EDE7C046EF030010091A00100A1A00103C
:102160003C020010054B1B78002B05D13F22044B8D
:102170001B781340034A13707047C046400100109B
:10218000EE0100102400001010B50C00022814D13C
:10219000C8212000490006F0B7FA89B21D200029A5
:1021A0000AD00138A30707D16421200006F0ACFA59
:1021B00088B2431E98411C3010BD0223984303008F
:1021C0001E20042BF8D0093B1800431E98411E30F6
:1021D000F2E70000F0B5002589B0009101920600F9
:1021E0001322290003A802950C2705F0D4FC194BF3
:1021F000194A1B787B43012E24D1D3585C5D002CF7
:1022000012D1164D02A9280005F010FD280005F096
:1022100005FD134B019A187002AB180000991C754C
:10222000FEF71CF909B0F0BD013CE4B20D49232CC6
:1022300002D80D4BA400E15802A8013507F074FB49
:10224000EDB2D4E7D318022E01D15B68D6E79B68C4
:10225000D4E7C0464502001048C0000089020010C3
:102260000A0300107A9900004CA10000F7B5012084
:1022700004F03CFC04002220002C1DD12500174B4B
:102280000193019B01221E785F783000390004F031
:1022900089FF39003000002204F0D0FF271D104EC6
:1022A000FFB27178307804F09FFF002805D1280034
:1022B000FEF720FE0B4B185DFEBD0134E4B2023682
:1022C000A742EED12800FEF715FE019B013502332F
:1022D000EDB201930A2DD4D1FF20EDE76CB70000D9
:1022E00064B700003CB7000070B50024FFF7BEFFE4
:1022F0000500012005F090F9FF2D00D000240134E5
:10230000E4B2032CF2D170BD402210B5034B1A7019
:10231000034B3F3A1A70FFF7E7FF10BD240000108F
:102320002D0000100123074A10B51370064A1370E0
:10233000FFF7DAFF054B064A1978117040221A7030
:1023400010BDC046E40300102D0000102400001052
:10235000310200100123074A10B51370064A1370AA
:10236000FFF7C2FF054B064A1978117040221A7018
:1023700010BDC046E30300102D0000102400001023
:102380003102001070B5054C0548257805F046FC73
:10239000854202D223780133237070BD0A030010F6
:1023A00089020010F8B51C4B1B78002B2AD0FEF7D1
:1023B0005DF9061CFEF75AF9071CFEF757F9041CD5
:1023C000FEF754F9211C051C381C05F08DFD291C55
:1023D000071C301C05F088FD011C381C05F055FD5C
:1023E000FEF7A6FE211C301C05F07EFD291C061CF4
:1023F000201C05F079FD011C301C05F043FDFEF7A3
:1024000097FEF8BDFEF732F9041CFEF72FF9011C08
:10241000201C05F069FDF2E7DF03001010B503484A
:10242000FEF786FEFFF7BEFF10BDC046E12E6542F7
:1024300010B5FEF71BF9FE21890505F0C1FEFEF778
:1024400077FEFFF7EBFF10BD70B5FEF70FF906F052
:10245000CFFE44B203060DD56442074D64B2E4B228
:10246000002C00D170BD281CFEF762FE013CFFF776
:1024700099FFF4E7014DF2E7CDCCCC3D00002041BF
:1024800070B5114B1B78002B17D0FEF7EFF8041C2A
:10249000FEF7ECF8061CFEF7E9F8051CFEF7E6F877
:1024A000011C301C05F0F1FCFEF742FE291C201C2B
:1024B00005F0EBFCFEF73CFE70BDFEF7D7F8041C00
:1024C000FEF7D4F8011CF2E7DF030010F7B5244B48
:1024D0001B78002B3ED0FEF7C9F8051CFEF7C6F8A6
:1024E000041CFEF7C3F8071CFEF7C0F8291C061CE5
:1024F000281C05F0F9FC211C0090201C05F0F4FCC0
:10250000011C009805F0C1FC311C0090281C05F04E
:10251000EBFC391C0190201C05F0E6FC011C019825
:1025200005F0B0FC009905F0E7FCFEF701FE391C50
:10253000281C05F0D9FC311C051C201C05F0D4FC1E
:10254000011C281C05F0A1FC009905F0D5FCFEF744
:10255000EFFDF7BDFEF796FEFFF724FFF9E7C04653
:10256000DF03001010B50348FEF7E2FDFFF7AEFFF2
:1025700010BDC046E12E654210B5FFF7F3FFFEF730
:1025800075F805F0CEFDFEF7D3FD10BD70B5104B0C
:102590001B78002B16D0FEF769F8051CFEF766F8CD
:1025A000061CFEF763F8041CFEF760F8311C05F00A
:1025B00069FCFEF7BDFD291C201C05F063FCFEF73D
:1025C000B7FD70BDFEF769FEFFF75AFFF9E7C04699
:1025D000DF030010F8B50A4B1B78012B0FD9FEF76B
:1025E00085F907000E00FEF781F905000C003800A0
:1025F0003100FEF7C9FE28002100FEF7C5FEF8BD38
:102600000A1A001070B5FFF7E5FFFEF76FF9050035
:102610000C00FFF7DFFF28002100FEF7B5FE70BDBC
:1026200010B5FFF7D7FFFEF727FFFFF7EBFFFEF729
:1026300059FF084B01201A78032353430433984071
:1026400064220023C11706F0EBF9FEF79DFEFEF7AA
:102650002DFF10BD091A001037B5114B04001D786D
:10266000002D0AD0FDF7C6FFFFF788FBFEF760FDDF
:102670000C4B18600023237037BD0023010000902D
:102680006A4601A8019305F0F0FE009B9C42F3D03E
:102690000198FEF74DFD034B25701860ECE7C0462E
:1026A000EF0300101404001070B5094D280005F068
:1026B000B5FA084C002807D02378002B01D0FDF78D
:1026C000D5FF2800FFF7C8FF0023237070BDC04668
:1026D0005C0300101804001010B5FFF7E5FFFDF7CC
:1026E000C5FF06F0CBF90122024B1870024B1A709D
:1026F00010BDC04646020010E803001007B5094BA4
:102700006A46009300231371074B68461B784033D9
:102710009370FFF755FBFEF729F8044B1880FFF77D
:10272000C3FF07BD464E780040030010420300106F
:1027300070B51B4B1B78002B31D0FFF7B5FFFFF7AF
:10274000DDFF00212022174805F025FA0123164A53
:102750001370164A13700023154A1370154A13702C
:10276000154A1370FDF782FF06F0FEFE134D286038
:102770006960FDF77BFFFEF7DBFC041C06F0F4FE4E
:102780000F4B186059602868696806F035FF211CF6
:1027900005F078FB0B4905F0AFFB0B4B186070BDE3
:1027A0004003001016110010FB030010FA03001084
:1027B000EC0300100E0400104D120010280400104D
:1027C000200400100000F8415403001010B5114B14
:1027D0001B78002B1CD0FFF767FFFDF747FF041C99
:1027E00080200D49C00505F07FFB011C201C05F071
:1027F00049FBFEF79DFC094B1860FFF77FFF0022A5
:10280000074B1A600022074B1A70074B01321A70EF
:1028100010BDC046400300106F12833ADC13001055
:10282000580300104D1200100404001070B5184B2E
:102830001B78002B2BD0FFF761FFFEF737FDFDF76C
:1028400015FF06F091FE134D28606960FDF70EFF3D
:10285000FEF76EFC041C2868696806F0CDFE011CBA
:10286000201C05F00FFB8021C90505F045FB0A4936
:1028700005F042FB0022094B1860094B1A60012247
:10288000084B1A700023084A1370084A137070BD71
:1028900040030010200400100000204154030010E9
:1028A00058030010F2030010EC0300104D1200104A
:1028B00010B5094B1B78002B0DD0FFF71FFFFEF75B
:1028C0000FFDFEF70DFD0122044B1A700023044A90
:1028D0001370044A137010BD40030010050400106B
:1028E0000E0400104D1200107FB50C0018490C2288
:1028F0000600763101A805F02DF900250223B34228
:102900006D41651BADB26421280005F077FEC8213A
:10291000AC0880B26419241A4900280005F06EFE44
:1029200001AB9B19013B80B220181C7807210019CC
:10293000013005F0D3FF074BC8B21B78002B03D042
:10294000002803D00138C0B204B070BD0620FBE7F8
:10295000C3A00000F803001070B505000E000324AA
:10296000FDF7C8FD2878002800D170BD3200210095
:10297000FDF70CFD2B78202B05D1033CE4B2063487
:10298000E4B20135EEE72E2BF9D1013CF6E7000069
:10299000F0B5354B354D1E78C3B0002E5FD12E21DA
:1029A000280005F030F9310004007D2222A821968C
:1029B00005F0F1F82900684605F038F9002C06D03A
:1029C0006B46651B5E55611C21A805F02FF9684612
:1029D000FDF710FE264B01261A78032353430433D8
:1029E0009E40F71732003B0006F01AF8040021A8B9
:1029F0000D00FDF7FFFD02000B003000390006F06E
:102A00000FF8FA220023920005F0E6FF24184D414A
:102A100021E00C00303CE4B20135092C06D90E004F
:102A2000613E0C00052E01D8573CE4B2110F1B018A
:102A30001201044022430B4329780029E9D10C49B3
:102A4000087803214143012004318840C11705F073
:102A5000E7FF04000D002000290043B0F0BD002274
:102A60000F201300E8E7C046EF0300105C030010DE
:102A7000091A00101FB5144B04001B78002B1CD042
:102A8000124A013B9B009858114B1B78002B0FD02A
:102A9000FEF7A6FD02000B0001A8FDF769FD01A8E5
:102AA000FDF728FD2200032101A8FDF7D7FC1FBD7B
:102AB00022000321FEF748FEF9E7020003215F2010
:102AC000FDF764FCF3E7C04647020010480200101F
:102AD000EF030010F8B5084F05003800CE190C00C0
:102AE00005F09CF8021B601C3100C019013205F092
:102AF00074F83570F8BDC0468902001070B5052421
:102B0000444315482418200005F088F805001348B0
:102B100005F084F87F23EAB29B1A984212D2200073
:102B2000FFF74EF90A2808D90D4B1978002904D06F
:102B30004A1C20201A70FFF7CDFF0026EDB2F3B239
:102B40009D4200D870BD064BA05D197801364A1C25
:102B50001A70FFF7BFFFF2E7380C0010890200106F
:102B60000A030010F0B5042400261E4B85B0002592
:102B70005A5D002A01D10136F6B20135042DF7D194
:102B8000013CE4B20433002CF1D1002E28D0FDF733
:102B9000D7FB310005F0A2FE2700CBB202930395CC
:102BA000104BBD00039EED182B78002B10D1631C39
:102BB000DBB20193029BA34209D1FDF7C1FB0A21BD
:102BC00005F0A2FD89B24B42594101312970019CA7
:102BD000013EF6B20135002EE6D10137042FDFD1D8
:102BE00005B0F0BD2D030010F7B50400FEF7D2F8D4
:102BF000431E9841C3B20093022C2AD100210B003E
:102C00008C46434E0836042072181779002F08D0DE
:102C10001578BD4205D10135157165460133157032
:102C2000DBB20138C0B201320028EED104390A000B
:102C30000C32E8D1002B01D0012300932000FEF7D5
:102C4000A9F8009B1843C0B2002801D0FFF78AFF03
:102C5000F7BD042C1CD1002320009C462C4E3200D2
:102C60000321D778002F08D09578BD4205D10135D2
:102C7000D570654601339570DBB20139C9B2013AAE
:102C80000029EED10138C0B204360028E7D1D1E7DF
:102C9000012C1DD100210B008C461D4A0420451A31
:102CA000101801901778002F09D05618705DB8429F
:102CB00005D101301070604601337055DBB20198C8
:102CC00001328242EED1043908000C30E6D1B1E77E
:102CD000032CB3D1002304209C460D4E320021006A
:102CE0001778002F08D05578BD4205D101351570F1
:102CF000654601335570DBB20139C9B20132002992
:102D0000EED10138C0B204360028E7D192E7C046C0
:102D10002D03001070B5114A137801331370FDF7BD
:102D2000A5FC002105F02AFE002811D00C488021C6
:102D3000038800241A00012509018A4209D30022D0
:102D40008B4200D8CA1A9B189BB2002C00D003807B
:102D500070BD01322C0092B2EFE7C0466C0100104A
:102D6000360C0010F8B50023134E3370134C144D7D
:102D70002778EB5D202B04D1280004F04FFF874219
:102D800009D32778EB5D202B04D0280004F046FF00
:102D9000874204D3F8BD237801332370E6E7237814
:102DA00030005A1CEF5C227004F038FF002330180A
:102DB00007704370E5E7C0460C0300100B030010DA
:102DC00089020010F8B50F4D0400280004F026FF1A
:102DD0007F2811D80C4E3378002B0ED0002C0FD04A
:102DE000062C0AD86034E7B2280004F017FF00234D
:102DF0002D182F706B703370F8BD2E270A2CF3D06E
:102E00003034F0E75C030010DD03001010B5064B12
:102E10001B78002B03D00122044B1A7010BD0A202E
:102E2000FFF7D0FFFAE7C046EF030010DD03001004
:102E300010B5FFF7EBFF10BD10B50920FFF7C2FF7B
:102E400010BD10B5FFF7F8FF10BD10B50820FFF753
:102E5000B9FF10BD10B5FFF7F8FF10BD10B5072082
:102E6000FFF7B0FF10BD10B5FFF7F8FF10BD10B5AC
:102E70000620FFF7A7FF10BD10B5FFF7F8FF10BD44
:102E800010B50520FFF79EFF10BD10B5FFF7F8FF46
:102E900010BD10B50420FFF795FF10BD10B5FFF76A
:102EA000F8FF10BD10B50320FFF78CFF10BD10B563
:102EB000FFF7F8FF10BD10B50220FFF783FF10BD2C
:102EC00010B5FFF7F8FF10BD10B50120FFF77AFF2E
:102ED00010BD10B5FFF7F8FF10BD10B50020FFF7CB
:102EE00071FF10BD10B5FFF7F8FF10BDF0B50C0075
:102EF0008BB0202109921322019004F04CFE002097
:102F0000019BE100824CD8746418049022686368C5
:102F1000834206DA19001000002342428B4101214E
:102F200004917C490125097805917B490888002195
:102F300005F076FD0A22002305F072FD0323059AB1
:102F400053432A0004339A40D31705F045FD052268
:102F500000238018594100230A2205F03DFD03009B
:102F600006000F000B4318D1019D019A3033123532
:102F70009374049B002B0AD0002600272D23013DCB
:102F80002B703E4303D06549019804F04FFE099928
:102F90000198FFF7E1FC0BB0F0BD614B019C1B7881
:102FA0001334002B00D0AEE0059B002B21D0019DF7
:102FB000300039000A22002305F00EFD3032AA74D9
:102FC00000230A223000390005F006FD019B013D77
:102FD0005B1B059ADBB206000F009A42E8D813008B
:102FE000013BDBB2DA43A218E41A531E2E22023C44
:102FF0001A70049A250094460124019B63440593AA
:1030000033003B43B5D0059B9D4277D96B1E300002
:10301000390002930A22002305F0DEFC6B1E3032D9
:103020001A7030000A220023390005F0D5FC029AFC
:103030000F000599060023008A420BD955225242FF
:1030400054430133E4B2DBB2552C03D82021AA1E2D
:10305000029211701C00029DD2E763463340029336
:10306000FB0FDB07039315D5029A039B0120404217
:10307000C11712184B4110210123494211430291FB
:10308000012000215B420393029A039B12184B41DB
:10309000029203936B461B7A5722092B00D8273ADA
:1030A0009B186246651E2B70FB171A400023069280
:1030B0000793069A079B92197B4110001900020999
:1030C0001B0713431E00089B0F119D420AD9059B45
:1030D00005995A1C0323D2B20B40059202D1A51EBA
:1030E00020332B7033003B4300D142E72C00019B7F
:1030F000049A9B180893A342AFD32500049B002B8E
:1031000000D03BE73FE70F2305959C46EFE7C0461D
:10311000101A0010091A00103C0200107C990000DF
:10312000EF030010F0B52D4CA5B0200004F076FDA3
:10313000002803D120002A4904F078FDFF247D22D5
:10314000002104A8039404F026FD2100002403AD0F
:103150008022280004F01FFD23AB1C70214B1C7043
:10316000FFF700FE0094204F380004F057FD0028C0
:103170000BD12B78FF2B06D01C4B1D4A1B78290046
:10318000D05CFEF7BBF825B0F0BD3800FEF718FEA6
:10319000009B5C1CFF2815D1009BE4B2DB43E318C5
:1031A000DBB23800019304F039FD019B661EF6B2D4
:1031B00083420AD2019BFB5C2E2B0AD1243BAB55E8
:1031C0000134E9E7009BE6B2E854FFF7CBFD009637
:1031D000C9E7303BDBB2092BF1D9F6E789020010D1
:1031E000809900000B0300100C0300103404001041
:1031F0004410001070B5054B054C1B7825782370E2
:10320000FEF7EEFA2570FFF78DFF70BD3504001054
:103210003404001010B5FEF743FE0B490B4804F0D0
:1032200005FD002420000134E4B2FEF71DFEFFF787
:1032300079FF202CF6D10022054B013CE4B21A7034
:103240000833002CF9D110BD8099000089020010CC
:103250004D11001010B5FFF747F803F033FE03F0EF
:103260004CFB0020012104F097F9002003F03EFC04
:10327000002802D1012104F08FF903F08FFB10BD6B
:10328000F8B572B6B120FDF767FE0020FDF764FEC9
:103290001020FDF761FEE020FDF75EFE0024144DD6
:1032A00001222E5D0021022003F0C8FF013430000E
:1032B000FDF734FE842CF2D1B020FDF74DFE002046
:1032C000FDF74AFE1020FDF747FE8426E020FDF7BB
:1032D00043FE76002F5D01220021022003F0AEFFA5
:1032E00001343800FDF71AFEB442F3D162B6F8BDDE
:1032F000D0120010F0B5AD4BADB01C78002C01D051
:1033000001F008F984222100A948520004F043FC8E
:10331000A84BA94D1E782C70002E00D1C5E0A74BFC
:103320001B78042B71D1A64BA6481B78002B00D12B
:10333000A54800220321FDF791F809AC04222021C1
:10334000200004F028FC0023A04A2371A04B12782F
:103350001B78012513439F4A1278134314D19E4BC7
:103360001B78002B03D09D4B1B78002B0CD09C4B63
:103370001D789C4B1B781D439B4B1B781D439B4B1F
:103380001B781D436B1E9D4103F06AFCAF231B019C
:10339000984200DB9648974B984200DA1800964B0B
:1033A000AF21C0180A238900584305F0B1F92C2336
:1033B0000026C0B25B424008181A7F4BE0701B78B1
:1033C0000193B3420DD008AF38000BA9FDF76AFE98
:1033D00006AB1B7D20000193F97806AB5E7DFDF7FF
:1033E000ADF8864F3B78002B05D0854B1B78002B22
:1033F00001D04033A370834B1B78002B01D100F028
:1034000063FF6533A37000F091FF052B0FD10BA96B
:1034100009A8FDF747FE06AB187D03222300210013
:10342000FDF714F906AB587D2300152205E0072BA4
:1034300007D1754B0322187823002100FDF706F908
:103440007BE7082B24D10BA909A8FDF72BFE06ABBF
:103450009889032223002100FDF7F8F806AB987B3A
:10346000152223002100FDF7F1F806AB27222100E9
:10347000D87B2300FDF7EAF809A803F0A5FD072192
:1034800005F02CFA61488B0022003921185852E7C8
:10349000092B00D051E75E4B03221878210023004E
:1034A000FDF7D4F85B4B1878BEE75B4B1C78002C1B
:1034B00025D05A4B05241B78594D0193019A594B3D
:1034C000944663440293013B187832006043032121
:1034D0004019FCF7C3FF0223534F019A3B70514B35
:1034E0001E21985C320060434019FCF7B7FF0122AF
:1034F000029B512158783A70604340191BE7374BC3
:103500004A4A1B781278134300D19BE0484F7F2032
:103510003978FFF7DFFA3D78464E103DEB43300037
:10352000DB171D4004F07AFB7D22019021000CA8DE
:103530000B9404F030FB019A112A00D91122711961
:103540000BA804F007FB002203210BA8FCF786FF61
:1035500030003978FDF742FD374B1B78012B08D03E
:10356000324B1B78002B00D1E7E60120FFF782FAEF
:10357000E3E63225314B012218782900C0002030C3
:103580002018C0B2FCF702FF2D4B1B78A34206D1D6
:103590000635EDB2012229007F20FCF7F7FE013449
:1035A0000635E4B2EDB2082CE4D1D9E701040010ED
:1035B000D0120010F1030010F7030010D91300100F
:1035C000260000106E9E000084990000E2030010A7
:1035D000E5030010F503001007040010EB030010D2
:1035E000DE030010FC030010E603001006040010C8
:1035F000EF0A000034080000CCF7FFFFE0030010E2
:1036000040030010EC0300102F000010F8A400008D
:10361000401B001035010010E703001044020010A9
:10362000380C00104410001025000010E1030010B9
:103630000A030010890200100C040010640100103D
:1036400062010010D14BD2481C78002C00D013E24C
:10365000D04B1E78002E00D178E0CF4B1868596807
:1036600005F0CAFFCD4B051C1868596805F0C4FF6A
:10367000011C281C04F006FC011C281C04F03CFC66
:103680008421C90505F0E0FA05F0F8F9C44FC3B28A
:1036900038687968019305F0AFFFC24E051C3068A9
:1036A000716805F0A9FF011C281C04F0EBFB011C4C
:1036B000281C04F021FC8321C90505F0C5FA011C72
:1036C0008320C00505F0E6FB05F0D8F9C5B23868DF
:1036D000796805F091FF22000221FEF735F8306885
:1036E000716805F089FF22003221FEF72DF8AA4B00
:1036F0000F271868596805F07FFF01220221FEF7A5
:1037000023F8A64B1868596805F076FF012232218C
:10371000FEF71AF82600A44B6236E15CF6B2791A7D
:103720003000C9B2FCF7F4FE013429003000FCF788
:10373000EFFE202CEED1FF2201989C4B6230C0B2EC
:103740001B1884331A70994B1A54F6E5984B1B7862
:10375000002B12D00222974B97481A7004F05EFAA1
:10376000002807D009213000FDF702FC0122914B0F
:103770001A70E2E5FFF77EF9F8E7904B1B78002B13
:103780002DD08F4D280004F049FA0400112800D9EB
:103790001124290000250BAE2200300004F0DAF9D4
:1037A0002A00032130003555FCF758FE0520854BD3
:1037B00001221C78844B03211B5D5843834BC018A6
:1037C000FCF74CFE01233F2220002900FCF73EFFBE
:1037D0007F4B5722187801230138C1172EE67D4B05
:1037E0001B78002B38D07C4B1C787C4B1B78002B33
:1037F0000AD002236F4D00220E2120002B70FDF70E
:10380000B3FF01232B7098E5754B1B78002B03D079
:10381000032C01D9043CE4B2724B1B78002B03D07B
:10382000002C01D0013CE4B2200000220621FDF76B
:103830009BFF601C00223B21C0B2FDF795FF201DBD
:1038400001220621C0B20534FDF78EFF01223B2183
:10385000E0B2FDF789FF70E5634B1B78002B12D0B7
:103860000223544D03222B70604B1C780023601CF4
:103870001900FCF7EBFE5E4BA40000221B21E05870
:10388000FCF7ECFDBDE75B4B1C78002C2ED04A48C2
:1038900004F0C4F9584C011E0ED012210120FDF78E
:1038A00067FB2178002900D147E500220139C9B220
:1038B0000BA8FFF71BFB40E52378012B0BD9023B3C
:1038C000DBB2020019000BA8FFF710FB21780139C9
:1038D000C9B20122ECE7002BFBD148490BA804F048
:1038E000A5F901210BA8FFF737F826E5444B1E7810
:1038F000002E00D194E0434B220019786D20FDF793
:103900007FF9414B01221978AA20FDF779F92200AD
:1039100044216120FCF73AFD3C4B220018784A21F3
:10392000FCF7D2FD220059217220FCF72FFD384B05
:10393000220018785F21FCF7C7FD01224421B22044
:10394000FCF724FD334B01221D784A212800FCF7A7
:10395000BBFD0123592228002100FCF777FE1F2D13
:1039600004D901226E212800FCF710FD2A4B1B7898
:10397000002B00D1E1E4294B1A78002A00D0DCE4C6
:1039800044213F20FCF702FDD7E4C04603040010A9
:103990009A990000FA030010200400102804001077
:1039A000401100103811001016110010D012001034
:1039B000E0030010250000105C030010F603001067
:1039C000890200103404001044100010380C00105C
:1039D00043100010FD030010D8130010FE03001068
:1039E000DB130010DA130010E90300108802001046
:1039F00038A500000A0400100A1A0010B39900004C
:103A0000E20300102F0200103202001040010010EB
:103A10004911001030020010E3030010E40300100D
:103A2000CE4B1C78002C57D0CD4B1C78CD4B1B783F
:103A30001C4348D00BAC18222021200004F0ABF826
:103A4000C94909AD062228002676023104F082F821
:103A50003300C648002206E0E95C890061188E54F4
:103A60000132042A02D0865C0A2EF5D101300133DE
:103A7000FF30062BEED12000FDF7D0FA5DE47D1972
:103A8000EEB23000FDF7DEF801360500F0B2FDF7CA
:103A9000D9F8401B0138132800DD1320FF230BAE9B
:103AA00003401A0029003000019304F053F800236A
:103AB000019A0321B35430003A00FCF7CFFC012CEB
:103AC00000D13AE40124AA4BE7B21D782E19FDF784
:103AD000DDF88642D3DB30E4A64B1B78002B00D107
:103AE0008BE00522A44909A804F034F8142220210F
:103AF0000BA804F050F8282206AB9B181C709F4BB3
:103B00009F4C1B78002B00D19E4C200004F086F8BF
:103B1000210002000BA804F01DF89B4B9B4C1B7866
:103B200006AA7F3B93772378994A013B9B009D58D7
:103B3000280004F073F8290002000EA804F00AF827
:103B4000944F09A83B683A68DB17FCF711FD102277
:103B500009A90BA8FDF7D3FA002203210BA8FCF753
:103B60007DFC3B68207899B2FEF7BEFE1422060069
:103B700020210BA804F00FF82822002506AB9B1883
:103B80001D700222202109A804F005F8002306AACE
:103B9000937313005F225A737B4BECB21B78002B9C
:103BA0001BD1B44205D3A11B0131C9B209A8FCF74E
:103BB000C5FC09A804F032F8032402002000684381
:103BC0000BAB181809A9013503F0C4FF072DD8D194
:103BD000012221000BA8FFF7AEFB0722534301335C
:103BE0009B1BE4183B68E4B299B2684B1878FEF767
:103BF000CBFA8442DDD82100D8E7674B1C78002C33
:103C00004ED008A907A8FDF74DFA06AB5C7A06224C
:103C100062490BA81F7A03F09DFF20000A2104F0DF
:103C200073FD3031CBB220000A21019304F0E6FC91
:103C30000A21C0B204F068FD09243031CBB2584EDD
:103C400002930BA909A803F0F1FF554B35781B78B7
:103C5000FB1AEB18D9B25AB21B061DD51831C9B2DE
:103C600009A8FCF76BFC019A06AB1A74029AAD0026
:103C7000DA734C4B2100E8580022FCF7EFFBA11F40
:103C800024340122C9B209A8E4B2FCF7E7FB0136EB
:103C9000752CD6D1FFF751FB172AE1DD1839DEE785
:103CA000414B1E78002E24D00222404B21001A7076
:103CB0003F4B013218782300FCF7C8FC3D4B5D22D6
:103CC000187821002300FCF7C1FC3B4B1B78002B2C
:103CD00000D14BE5394B2100187821222300FCF755
:103CE000B5FC374B3F22187821002300FCF7AEFCCF
:103CF0003CE5344B1B78002B6ED0112231000CA810
:103D00000B9603F048FF304D032228783300002142
:103D10000130FCF79BFCFCF7CBFF2C4B0BAC80007D
:103D2000C158200003F082FF2949200005F0FCFD66
:103D30002B78284ADB009958200005F0F5FD2B78F8
:103D40000F212675082B00D9063100222000FCF730
:103D500085FBFCF7C3FFFFF7F0FAC046070400102D
:103D600002040010F403001043A100000914001025
:103D700008140010E50300100A9A0000F803001070
:103D8000889900009199000034020010330200105D
:103D900088B7000038020010080400100F9A0000D5
:103DA00032010010E0C10000F503001025000010F2
:103DB00030040010310400102C00001032040010F8
:103DC00033040010EE030010440300108CA2000026
:103DD0000D9A000010AB0000D04B1C78002C00D1D5
:103DE0009EE00BAC210009A8FDF75CF923780824BC
:103DF000092B00D90234CA4B00251B780193C94B0B
:103E00001B780493019B072B06D80A20C64B019A06
:103E10009D5C049B5D434543C44BFA261B68B6007A
:103E20000293C34B1B680393C24B039A1F68029B08
:103E30003900981AC343DB171840704304F068FC3C
:103E4000BD4B059018682100704304F061FC059B90
:103E500000221818441BE343DB171C40B74BB84D36
:103E60001C60B84B03211B68E42073432B60FCF7F4
:103E70008DFA029B0922D91702980023FCF7E6FB72
:103E800000221B21AA20FCF781FA039B2122D917CB
:103E900003980023FCF7DAFB00223321A820FCF76B
:103EA00075FA002339223800F917FCF7CFFB0022FE
:103EB0004B21B420FCF76AFA002351221900049820
:103EC000FCF7C4FB0023632219000198FCF7BEFB3A
:103ED000002269216820FCF759FAFCF7FFFE012255
:103EE0004B21B220FCF752FA6421200004F010FCB0
:103EF000C117FDF743FF944903F0FEFF0122512152
:103F0000FDF722FC01226921E120FCF73FFA310094
:103F1000286804F0FDFB01236F22C117FFF78EFA1A
:103F20008A4B1B78002B2CD0894B22001D78032153
:103F300002352D01EDB22800FCF7C6FA0123032259
:103F400028002100FCF782FB5A22FE21814803F061
:103F500022FE06273E00200066431B36F6B280385C
:103F600000223100C0B2FCF711FA281901340122F5
:103F70003100C0B2E4B2FCF709FA102CEAD1FFF725
:103F8000DCF9754B1B78002B00D191E0734B0322B9
:103F90001E780023701C1900FCF758FB0F25082E13
:103FA00003D90635622E00D906356D4C33011E5BF0
:103FB0000022300A29000193FCF7E8F9F0B2002250
:103FC000A91DFCF7E3F9019B0720E3185F882A008D
:103FD0000023384019001232FCF738FB00232A0076
:103FE0002E003F06FF0E380019001E32FCF72EFB94
:103FF0003036092F01D82A352E00019B3200E518F2
:104000000023E87B1900FCF721FB686805F05EF9E6
:10401000544903F071FF31000C310022C9B2FDF7A1
:1040200093FB4E4B03221B7800211B010193E318E5
:104030005D8901232800FCF709FB1526632D05D9AE
:10404000FA2306369B009D4200D30636019B3200C0
:10405000E3189F89002101233800FCF7F7FA632F4A
:104060001ED835001235019BE318987B05F02EF918
:10407000354903F041FF01222900FDF765FB374B6D
:1040800015351B781B01E418208905F01FF9364906
:1040900003F032FF0122E9B2FDF756FBFFF74DF9BD
:1040A000FA2335009B001E359F42DCD2063DDAE73D
:1040B0002E4B1B78002B20D02D4B03221878002389
:1040C00001301900FCF7C2FA2A4C64202378002B37
:1040D00000D15C3000221521FCF758F90022212183
:1040E0000120FEF777F8207801224342584103214E
:1040F0000230FEF76FF8FFF720F91F4A1278002A06
:1041000044D11E4B1E481B78012B03D01D48022BA7
:1041100000D01D48FCF782FFFFF773FB0604001078
:104120004C0300100F04001080B700001C000010AA
:10413000200000102800001068010010500300103B
:10414000400200104803001000002041DE03001070
:1041500063010010EB120010FC0300104811001066
:10416000B8B7000000007A440000C842E60300101F
:104170004502001027000010ED030010EC030010B2
:10418000BF990000D8990000F19900001D0000249B
:10419000514FFA1894465A1ED2B203926246012039
:1041A0001278511E88402D18ADB22000012B02D983
:1041B0000821081BC0B2494EC000D200C11C921990
:1041C0000B3001920290039E0020012E00D9843012
:1041D000434E7218019E013136781654019A0298A6
:1041E000013201928142EED104220134E4B29444BE
:1041F0009442D3D101339342C9D1002350221900F4
:104200002800FCF723FA374B1A88AA4200D21D80F7
:104210001888502201230021FCF718FA38002300E7
:1042200001220021455C002D4AD001310429F9D139
:10423000013BDBB20430002BF3D1002A01D1FFF7A0
:104240007CF804252100F81AEE1A0578AC461D18F2
:10425000AD5DAC4536D00139C9B201300029F4D189
:10426000043B19000C31ECD1002A01D1FFF765F8AD
:1042700079783B788B4205D0BB78994202D0F978A7
:10428000994200D10022013CE4B20437002CEFD166
:10429000002A01D1FFF751F818222100124803F03B
:1042A0007AFC18222100114803F075FC220003213A
:1042B0000F48FCF7D3F8012203210E48FFF73BF823
:1042C0002A00B5E70022CBE70B4B1B78002B15D05B
:1042D0005B012833FFF796F82D0300107DA6000040
:1042E000D01200103E030010D3120010571300101C
:1042F000B5990000BA990000F0030010904B1B78AC
:10430000002B00D10BE18F4A0BAB0B92B5225A70F8
:1043100030329A708C4A12789B5CA370022A05D1C5
:104320008A4B1B78002B01D0B4236370884B1B8809
:10433000002B05D1874B884A1B781278134301D094
:10434000E223A370854B1B78002B01D0DA23A370E6
:10435000834B1B78002B0AD103206B4218407F212E
:104360002018002D00D112390022FCF777F8042222
:104370002021200003F00FFC00232371794B1B78D0
:10438000002B13D020000199FCF7D8F80A21300047
:1043900004F0BAF93031E17030000A2104F02EF94E
:1043A0000A21C0B204F0B0F93031A1706E4B1B7815
:1043B000002B1AD06D4B0A211E78300004F0A4F9AE
:1043C0003031A17030000A2104F018F90A2180B2BE
:1043D00004F09AF930316170632E00D8A9E06421AD
:1043E000300004F00BF930302070614B1B78002B4B
:1043F0000FD0FCF7CDF964235843C0120A210530D1
:1044000004F086F9C0B221230A2801D83030C3B2A3
:10441000E370584B1B78002B0ED0FCF729FC564B51
:10442000FF21C31A6420584304F072F90A210530B1
:1044300004F06EF93030E070504B3A781B7813433B
:1044400012D04F4B1B78002B06D04E4B19788A2385
:10445000002900D16233E370002A05D04A4B1B7853
:10446000002B01D04323E370484B1E78002E06D06A
:104470000D20474B197806ABC018FCF72FFA384BC4
:104480001B78002B0AD103206B4218407F21201893
:10449000002D00D112390122FBF7E0FF002E14D0CD
:1044A000012301205B420B93394B0BAD1C78A30811
:1044B0009840C043C0B2FBF755FF03231C4028556A
:1044C00004222900334803F045FB334B1B78002BB3
:1044D00020D0324B7F211A78314B12019B180BA848
:1044E00012225C8803F057FB0723012023409840E9
:1044F0000300022040425840C0B2FBF733FF2406BD
:104500000BABE40E1C19013C207012221900254847
:1045100003F020FBFEF7B4FE00202DB0F0BD174BDA
:104520001B78002B00D101E71F4B1B783033FEF7BF
:1045300069FF20232370092E00D956E7637054E7E2
:10454000EB030010316371000C0400102E0000100A
:10455000360C0010FF030010E403001000040010EC
:10456000FA030010F7030010E703001044020010E4
:10457000F603001007040010320000100A040010B7
:10458000EF030010DD030010DF030010FD03001037
:10459000D8130010D3130010FC03001048110010B2
:1045A000B8B70000C6130010091A0010F0B587B0A4
:1045B00003F066FB02F05AFA0021DC4802F060FECC
:1045C0000021DB4802F05CFE02F0BBFA012204216C
:1045D000002002F0E7FD00220421100002F02EFE70
:1045E00001220521002002F0DDFD0022052110003E
:1045F00002F024FE002002F019FDCE4C0021200024
:10460000CD4A03F0C8FA2000CC4ACD4903F0A2FA03
:10461000B322CC4BCC4C1A70802200211201200016
:1046200003F0B9FAC94ACA49200003F093FA4022BC
:104630001F21C84803F0AFFAFCF754FD83B203937F
:1046400000230293C44B1B78002B03D0FEF752FECD
:10465000C14B1870C14FC24C3D88002D00D1DDE028
:10466000B94B681C5D5D80B23880FF2D00D0B8E08A
:10467000BC4B1A78002A00D186E0FCF713F8BA4B3D
:1046800038801B78002B01D0FEF70EF8012002F0D5
:104690002DFA00280DD00023B24A3B801370B34A94
:1046A0001370B34A1370B34A1370B34A1370FDF713
:1046B0001BFEFF232370FCF715FD039BA84DC01ABA
:1046C000AE4B1B78984201DD22232B702B78FF2BF9
:1046D00001D102F06BF8029A934201D102F066F820
:1046E000A74B1B78002B44D00124A64A2100136855
:1046F000200023431360A44A022613682343136057
:10470000220002F04FFD22000221200002F04AFDAB
:1047100000222100200002F091FD22000221200051
:1047200002F08CFD200002F077FF22002100200023
:1047300002F084FD20000022022102F07FFD200013
:1047400002F06AFF012E00D0D8E2320031003000C2
:1047500002F074FD32000221300002F06FFD0022F1
:104760003100300002F01EFD00220221300002F074
:1047700019FD2C78222C00D0C2E2FF232B70FEF70B
:1047800069FD754B0122DDE3784B1B78002B0ED0C1
:104790003A80FDF789FF7D4B1D787D4B1B78ED1A24
:1047A000FBF764FF013D7B4BAD0058516EE7724A49
:1047B0003B806F4B12781B7813436E4A1278134379
:1047C000754A12781343754A12781343744A127863
:1047D000134300D05AE7604A01331370FDF784FD9C
:1047E00054E7352D13D80A2D03D9182D01D0FDF724
:1047F0005BFF6C4BAD00EB5898476B4B1B78002B65
:1048000001D16A4A13700022694B1A703EE7FBF728
:104810003DFF2800FBF7AAFF388037E7564B1B788F
:104820000093002B4BD0634E33780133DBB23370EF
:10483000022B0BD806D1FCF739FD5F48FCF778FC5A
:10484000FDF71EFE5D4B1B883B8034E7FCF72EFD19
:10485000FDF73CFE5A48FCF76BFCFDF711FE56488D
:10486000FCF766FCFCF722FDFDF730FEFBF7FEFED1
:10487000FCF75EFC041CFDF789FE00213570201C4E
:1048800004F082F8002802D080231B06E4184A496D
:10489000201C04F079F8002803D14A4C2378142B0B
:1048A00006D901232C4A13700023334A1370CBE737
:1048B000FCF716FDFCF714FD23780133FAE62D4BC7
:1048C0001E78002E00D1BBE03A4B3A4A1B780133E8
:1048D000DBB21370394A12883A80012B00D1EAE624
:1048E000394E3468022B0CD1FBF7C0FE011C201C92
:1048F00003F0CBFA354B30601868596804F07CFE41
:1049000011E0334D032B65D1FBF7B0FE011C201CD9
:1049100003F0BBFA2D4B30601868596804F06CFE48
:10492000296803F0B2FAFCF703FCC4E6984004409F
:104930009C400440380C00100B0400007F03000072
:1049400048B3000043100010360400107205000048
:10495000D6AD0000EF0100102D000010360C001045
:104960000D04001041010010FD030010FF030010B2
:10497000F9030010F2030010050400102F000010CE
:10498000260000107C400440804004404B11001081
:104990004C1100105012001004040010FB03001012
:1049A000E8030010C0A20000E1030010EC030010B7
:1049B000DF0300104D1200106F12833A4203001003
:1049C000000080BF0E0400105803001020040010E7
:1049D00054030010162B20D88027DB0700D4812732
:1049E000FBF744FEFF05011C381C03F07DFA011C97
:1049F000201C03F04AFAD04B30601868596804F064
:104A0000FBFDCE4B041C1878023804F011FC296819
:104A100003F06AFA011C201C83E7FBF727FE2968D4
:104A2000201C03F061FAC64903F066FAFCF780FB2C
:104A30000123C44A1370C44B009A1A70130003E791
:104A4000C24B1A78002A53D0BC4A13780133DBB228
:104A50001370BF4A12883A80012B00D12BE6BD4D5E
:104A60002C68022B0AD1FBF701FE011C201C03F06D
:104A70000CFAB94C2860B949206816E0032B18D10C
:104A8000FBF7F4FD011C8220C00503F02DFA011C88
:104A9000201C03F0F7F928608020AF4CAF49C00517
:104AA000256803F021FA011C281C03F0EEF92060B0
:104AB00039E7042B07D1FBF7D9FD011C8220C00583
:104AC00003F012FAD1E7FBF7D1FD011C201C03F023
:104AD000D9F9A34903F010FAA04903F00DFAFCF745
:104AE00027FB0123974A3E801370984B1E70E2E526
:104AF0009C4B1978002900D18EE095498F4D09888B
:104B00002C783980984901340878E4B22C70002858
:104B100044D1012C00D1CEE5874B1A685B68009226
:104B20000193022C0CD1FBF7A1FD04F01DFD8F4B6E
:104B3000186059608E4B1860596000980199DDE645
:104B4000222C27D8FBF792FD04F00EFD884D0600BD
:104B50002A686B680F0003F0DDFE002801D02E608C
:104B60006F60824D30002A686B68390003F0E6FE02
:104B7000002801D02E606F60A01E04F059FB7D4B11
:104B8000196804F061F8041C0098019904F034FDE0
:104B9000211CC6E6012328700B70CEE7012C00D142
:104BA00089E5212C33D8724F3868796804F024FDE8
:104BB000041CFBF75BFD011C201C03F063F96B4B2D
:104BC000041C1868596804F017FD061C38687968D9
:104BD00004F012FD311C03F055F9011C201C03F0F8
:104BE0008BF9654904F030F803F048FF2D78634CE9
:104BF000514B6419023C20701868596804F0FCFCA1
:104C0000041C681E04F014FB5A4B196800E70121CC
:104C10004C481A7001704EE5594A1378002B10D099
:104C200058490B78581E0870002B05D0564B187841
:104C3000FBF79CFD38803EE513700123414A137059
:104C400039E5524E3578002D19D0FEF78BF8504CCF
:104C5000200002F0E3FF00280BD02000FDF7B0F8A1
:104C600003000B3BDBB2F32BE2D92000FDF7F4FC91
:104C700021E5484B30701870FDF736FBDDE7464EF6
:104C80003378002B12D0454B1D70454B1C7820000B
:104C9000FBF76CFD0134424BE4B21C70414B388091
:104CA0001B78A34200D306E5357004E53E4D2B7812
:104CB000402B18D03D4A13705A1C2A703C4AD05CD5
:104CC0003C4B1870FBF74CFF3B4B8000C358984798
:104CD000012001F00BFF002800D1ECE440232B70F1
:104CE000FDF702FBE7E40A20344B03211B7858430D
:104CF00002F052FCFDF7BAFA2070DCE4260007E56A
:104D00002F4A1178002908D0FDF70AF92D4B1B789E
:104D1000002B01D001F046FD62E12B4B1B78002BEC
:104D200060D0242C02D1284B1970EFE7062C51D10A
:104D3000264B274A1A60E9E7200400104D120010A4
:104D4000000040402D000010F20300100404001089
:104D50004203001058030010DC1300106F12833A56
:104D600000004041FB0300100E0400103811001039
:104D70004011001054030010000070411611001083
:104D8000E80300104602001010040010F9030010A0
:104D90000C0300100B030010FF030010470200106B
:104DA0004B1100104A1100102400001032020010B4
:104DB000EF010010EE01001098A300002F0000107A
:104DC000F1030010E1030010030400100CED00E0FB
:104DD0000400FA05231F052B98D8C84B1C7001232B
:104DE000137093E7C64E3278002A00D17EE0242C5F
:104DF00001D13370C5E4012C05D1C24B1B78013BB6
:104E0000C14A1370BDE4042221009143022902D15A
:104E1000FBF728FDB5E4072CF2D0032C07D10734AB
:104E2000013CE4B2FBF71EFD002CF9D1A9E4231FDD
:104E30009343DBB2002B02D1FBF722FDA1E4092C46
:104E400007D10134013CE4B2FBF71AFD002CF9D183
:104E500097E4052C01D0122C31D1AC4B1A78AC4B15
:104E60001B78134305D1A84AAA491278895CAA4A3B
:104E70001170AA4A1478002C0DD0A34BA54A1B78B8
:104E8000D05CFBF773FCA64B1880FDF72DFA0023CE
:104E9000A44A1370ADE7A44A12781343F5D09A4B95
:104EA0009C4A1B78D05CFDF729FE01229F4B1C70A9
:104EB0009F4B1C709F4B1A709F4B1C70E5E7132C87
:104EC00007D19E48FCF77CFFFBF728FC8E4B18703F
:104ED00057E42300143B082B00D952E4894B0A21E4
:104EE000187803F08BFB133C6043EFE7944F874B3C
:104EF0003A781B78002A0CD1002B0CD1914A1178FA
:104F0000002900D13BE21370FBF7B0FBFBF7AEFBCF
:104F100066E0002B09D000230121844A1370844AE3
:104F20001370844A1170844A1370242C00D09DE0C1
:104F30007C4A1378012B07D101233370FCF7B0FFB3
:104F4000784B00221A70E1E6022B00D08BE00023A0
:104F500013706E4A3B701370734B7B4D1B782A782D
:104F6000002B2CD0002A27D0784C200002F056FECF
:104F7000684F774E002809D0052033780422FB5C67
:104F800021005843734B181802F0E4FD05213378D3
:104F90002000FB5C59436F4B591802F047FE002379
:104FA0002B70FCF77DFF2000FCF70AFFFBF7B6FB38
:104FB0003070FCF715FCA9E6FEF7B4F8F9E7002A13
:104FC00013D0654A654912786048D2005218C15C16
:104FD000D154062B02D001330029F8D100232B70C5
:104FE00001225F4B1A7001F0DDFB494B1B780293E5
:104FF000002B04D0FEF796F8FCF718FF86E6594B15
:105000001B78002BECD0584BFF261C782000FBF7B8
:1050100019FE01340500E0B2FBF714FE0400FBF7B3
:1050200027FE4A4F0090380002F0F8FD631B0393FF
:10503000009B06401A1B0132611EA81902F0CDFD2B
:10504000FF230398494A1840009B801B9A1A121AA2
:10505000181A0299013002F09EFD32003900280032
:1050600002F078FD52E6FBF7D5FB4FE6232C10D17A
:105070002C4D2C78002C06D03D4E03213078013089
:1050800003F02CFC3170013C631E9C41394B2C70A9
:1050900057E7252C0AD1234B1A78012A15D1002273
:1050A0002A4935481A7002F0C1FD2FE6262C0CD192
:1050B0001C4B1A78012A08D100242F4923481C7060
:1050C00002F0B4FD2D4B1C7020E6114B1A78002A1B
:1050D00062D0262C60D12A4B1A782A4B1A702A4BA0
:1050E0001A782A4B1A701C4B1A78294B1A70002315
:1050F0000C4A3B701370274BFFF744FBD913001089
:10510000E70300104310001044020010E1030010F8
:10511000FD0300104410001010040010E003001004
:10512000360C0010EC030010F60300105C030010B6
:1051300047020010F903001018040010159A00002F
:10514000EB030010FA030010EA03001089020010BC
:1051500034040010380C0010D81300104D1100104A
:105160002D00001007040010081400103200001079
:105170000C040010F00300106D0100100A03001071
:10518000DA13001014110010DB13001015110010B9
:105190001311001000040010B44B1B78002B4BD1EE
:1051A000B34D2B78122C0AD1002B3AD1002A4DD0C6
:1051B000FDF7B8FFFCF73AFE00233B70A6E5182C7C
:1051C00004D1002B2DD1FBF78BFA9FE5192C04D1CC
:1051D000002B26D1FDF7D6F898E51D2C0AD1002B1F
:1051E0001FD1FBF77DFAFBF77BFAFBF779FAFBF7A8
:1051F00077FAE8E71E2C0AD1002B12D1FDF7C2F88E
:10520000FDF7C0F8FDF7BEF8FDF7BCF8E2E7212C8A
:1052100007D1022B02D1FBF755FA77E5FBF7ECFE3D
:1052200074E527215943934B6418E4B2185DFDF7E8
:1052300065FC00232B7069E5012B70D1002C0DD18A
:105240008D4802F0EBFC7F2800D95FE520208B4BD6
:1052500019784A1C1A70FDF73DFC57E5012C02D164
:105260000722874B6EE6022C02D1FBF74DFA4DE583
:10527000032C06D1FBF748FAFBF746FAFBF744FA92
:10528000F3E7042C06D17E4A1378002B00D13DE5CC
:10529000013BA5E5062C06D1794A1378062B00D9E7
:1052A00034E501339CE5764B072C00D149E6082C08
:1052B00002D1FBF71FFA29E5092C06D1FBF71AFAF0
:1052C000FBF718FAFBF716FAF3E7212C02D1684B2B
:1052D0001B789EE7122C04D1002A00D068E73A70B0
:1052E00014E5182C00D16EE7192C00D172E71D2CA3
:1052F00000D176E71E2C81D05F4802F08FFC7F281A
:1053000000D903E55F4B18785D4BC0001B78203354
:10531000C018C0B2594B19784A1C1A709BE7022B6F
:1053200000D0F3E40D2C04D1574A137859424B4175
:1053300056E50E2CCBD0212C10D14D4B1B78022BD7
:1053400000D168E7514B185D4F4B1B78002BE1D023
:105350000300613B192BDDD82038DAE70A2C00D195
:1053600031E70C2C00D135E70B2C00D139E7032CA9
:1053700000D143E7122CE5D1002AE3D018E7444BD3
:105380009C461B78002B00D188E0394A1378012B0A
:1053900001D001F028FA1C2C01D001F013FA0121F0
:1053A0003C4B1970002313701AE6FBF733FA17E62B
:1053B000192C0BD1012B03D10B70002313700FE6B6
:1053C000022B03D10B700023137009E60A78012A1F
:1053D0001AD100230B701A2C05D14520FBF7C6F912
:1053E0002D4B1880FCE51B2C05D14720FBF7BEF99F
:1053F000294B1880F4E51C2C00D0F1E54920FBF77F
:10540000B5F9254B1880EBE5022A1AD100230B7061
:105410001A2C05D14620FBF7A9F91F4B1880DFE5B0
:105420001B2C05D14820FBF7A1F91B4B1880D7E5B1
:105430001C2C00D0D4E54A20FBF798F9164B1880B5
:10544000CEE527225343E418E4B2752C00D9C7E512
:105450000A2C03D9212C01D0FDF726F9054B185D44
:10546000FBF784F90C4B188050E4C0460C04001084
:10547000EC030010C7B60000890200100A030010F8
:1054800062010010640100102E00001018BF00001F
:10549000E0030010DF030010360C0010CC4B1A782C
:1054A000002A00D1B6E0242C02D100221A7080E537
:1054B000012C05D1C74BC84A1B78013B137078E516
:1054C000022C02D1FBF7ECF973E5032C07D107346A
:1054D000013CE4B2FBF7E4F9002CF9D169E5052CB5
:1054E00001D00F2C04D101233B70FCF779F960E562
:1054F0000E2C03D10123B94A1370F5E7072C01D113
:10550000B54BD2E7082C02D1FBF7D8F951E5092CAD
:1055100007D10134013CE4B2FBF7D0F9002CF9D1FA
:1055200047E5AF48132C2BD02300143B082B09D898
:10553000A84B0A21187803F061F8133C6043A64B8E
:10554000187036E50C2C20D1A24C2378CE2B00D934
:105550002FE505205843A34BA34AC01805A905927F
:1055600002F064FBFBF714F9A04B18182D234370CD
:10557000D2338370237801332370FCF791FC05A8A4
:10558000FCF71EFCFBF7CAF8D9E70D2C36D1924E7A
:1055900034782000FBF7C2F8B12800D809E58D4D1A
:1055A0002B78012B00D804E5914B1F5D3800FBF7E9
:1055B000DDF80400FBF7C6F8013083B20093FBF777
:1055C000E7F8009BC21A89481918201802F0C2FA9D
:1055D000052108002A787843013A824BD21B4A43BE
:1055E0004118C918C01802F0F8FA2B78013B2B704B
:1055F0003378013B3370FCF753FCDAE4252C03D1FC
:10560000754B1A787B4B51E7262C00D0D1E4FDF77F
:10561000F1FDCEE4784B1B78002B00D119E1242C4E
:1056200003D10023744A1370DAE4232C05D1734AA2
:10563000137859424B411370D2E4022C0AD1012253
:105640006F4B1A706F4A13781B2B00D9C8E40433D0
:105650001370C5E4042C10D16A4A1378002B01D0D2
:10566000013B1370002368490B701378DB439B07E1
:1056700000D0B5E401230B70B2E4122C74D80123DE
:10568000624A1D00E240954335D1614A1278002AF2
:1056900027D0604C200002F0C1FA7D280FD8594B6A
:1056A00005AE19783000FBF719F9B5705A4D310085
:1056B00020002A78FBF723FD2B7802332B70574B01
:1056C0001A78514B1A70564B1A784D4B1A70554B2D
:1056D0004C4A1B78137001234D4A3B700023FFF79F
:1056E0007FFB3B703D4B1A70FCF7DAFB454B18789B
:1056F000FCF7BAFB5DE4062C11D1424A13781E2B4D
:1057000001D80133137001213F4B19701178032226
:1057100008001040114200D062E4187060E4082CC8
:105720000AD10022364B1A70364A1378032B00D860
:1057300056E4043B137053E40E2C15D1274A3B70FA
:105740001370FCF7ADFB2F4D374C29783148C90059
:10575000091902F06BFA2878C000001902F05EFA0D
:105760002D4B1870FFF7D2FA1E2C16D12F490222AA
:10577000733105A802F0EEF9002204AB9A71214BB7
:1057800005A81978FBF7AAF8FCF78AFB05A8FCF72F
:1057900017FBFAF7C3FF174BE3E71F2C48D1234948
:1057A0000222733105A802F0D5F9002204AB9A71E8
:1057B000144B05A81978FBF791F805A8FCF700FB36
:1057C000FAF7ACFF044B1870FDF714FD14E4C04663
:1057D000F60300104310001034040010EA03001018
:1057E000159A0000380C00104E4557003604001082
:1057F0004410001035040010FD030010FE030010DB
:10580000DB130010D8130010DA13001020800400FE
:1058100000040010890200100A0300101411001087
:1058200015110010131100104D110010C3A000003D
:10583000212C03D1FDF7EEFCFFF7DEFB1D2C01D080
:10584000FFF7CEFB0123D14A137062461370FFF7B6
:10585000C7FBCF4B1E78002E35D0242C03D100225D
:105860001A70FFF7BDFB082C08D1CA4C092120781B
:10587000083003F033F82170FFF7B2FB022C08D197
:10588000C44C09212078013003F028F82170FFF77B
:10589000A7FB122C03D0052C01D0FFF7A1FBFDF7CD
:1058A000B9FC0123BC4A13700023BC4A1370BC4AE4
:1058B0001370BC4A1370B74BBB4A1B789B009B58B4
:1058C0009847FFF799FBB94A1378002B5ED0242C38
:1058D00002D11670FFF784FB232C24D1B44B1B7824
:1058E000002B39D1B34AB44D16782C78002E0FD046
:1058F000022C15D8B148016842684F0FD20001331D
:105900003A43C900DBB20160426008309E42F2D1E6
:10591000032301341C402C70FAF7FCFFFFF760FBF7
:10592000FBF712F8F4E7212C10D1A54C200002F06F
:1059300075F9C3B2002B05D0C0B22418013C267003
:10594000FFF7E4F9FAF7D2FFFFF7E0F9262C01D9C7
:10595000FFF746FB0A2C13D9994E300002F05EF98E
:10596000984D00280AD02B78002B01D0FAF7BEFF03
:10597000FDF70EF8FBF708FD0023337000232B70B2
:10598000914BA400E3589847FFF7DAFA8F4A117851
:10599000002900D189E08E4801781D2C0DD18D4C55
:1059A0008D4D22782B70114301D1FFF719FB402256
:1059B00023702A700370FFF713FB002906D00370D1
:1059C000864B1A78844B1A70FFF70AFB81480378DC
:1059D000002B0DD001700F2C04D8814B19780901D0
:1059E0000C431C707D4B1A787B4B1A70FFF7F8FA4A
:1059F000242C04D113707B4A1370FFF7F1FA212C89
:105A000009D1794A1370794A1370794A1370744A2C
:105A10001370FFF7E5FA232C0ED1734A1F21137080
:105A2000724A74481370724A13706D4A13704022A0
:105A300002F0B1F8FFF76AF9132C07D13F216E4A43
:105A400013783F330B401370FFF7CAFA182C07D1B5
:105A50003F21694A137801330B401370FFF7C0FAF6
:105A6000142C09D13F21644A1378FC330B405B1896
:105A70000B401370FFF7B4FA192C09D13F215E4A8D
:105A8000137804330B4001330B401370FFF7A8FA6F
:105A90000F2C01D9FFF7A4FA574B564A1B78D15C5B
:105AA00009010C43D454FFF79BFA544B1A78002A8F
:105AB00000D191E152480578002D0ED0043CE4B2AB
:105AC0000170052C01D9FFF78BFA802220024D4C82
:105AD0004D4900195200FFF7C3FA4C4A11780029CA
