:10000000F01F0010559C0000539C0000539C000002
:10001000539C0000539C0000539C00000000000013
:10002000000000000000000000000000539C0000E1
:10003000539C000000000000539C0000017A000067
:10004000E5770000E5770000E5770000E577000040
:10005000E5770000E5770000E5770000E577000030
:10006000E5770000E5770000E5770000E577000020
:10007000E5770000519C0000519C0000C100000089
:100080009D7A0000B57A0000CD7A0000E57A000084
:10009000519C0000597B0000519C0000519C0000C5
:1000A000519C0000519C0000519C0000519C00009C
:1000B000519C0000519C0000519C0000519C00008C
:1000C000594A10B5136801331360584B584A1B68DE
:1000D000DBB2302B00D176E018D8182B5AD005D8D7
:1000E000082B37D0102B46D0082351E0202B00D10D
:1000F0007AE0282BF8D14F4B4F491868096888429D
:1001000052D21968481C18604C4B48E0482B00D16B
:100110006AE00AD8382B60D0402BE5D1484B1968EB
:10012000042301295DD11360DEE7502B66D0582BE4
:10013000DAD14448444B1B680168DBB24C1C0460B4
:10014000424843540221424BFF3119608023F13968
:10015000DB0530E00021374B19601968481C186036
:10016000364B5B5C3849DBB20B60282313600122FD
:10017000374B1A6010BD0021324B19602D490B68B6
:10018000581C08602D49CB5C2F49DBB20B6028233B
:100190001360EFE727490B68581C086027495B5C30
:1001A0002949DBB20B609FE7254B19688023DB05EB
:1001B000002902D02021196096E702202449FF304F
:1001C00008601021F7E780231021DB051960082360
:1001D000136081221E4B5200CBE782211C4B490049
:1001E000E9E78021C905DDE780231021DB051960DF
:1001F000082313600422164BFF32BAE71149124B51
:100200001B680868DBB2441C0C60104C23540C4B78
:100210001B680868013B0421834202D98023DB0567
:10022000C9E7116060E7C046741E0010040000407A
:1002300018000040701E0010681E0010401E0010C4
:10024000541E00106C1E001008000040581E0010C4
:10025000501E001002231B4A70B511681A4D0B4343
:1002600013602023194A040011680B431360184BD4
:100270001A682A401A600122186810431860154B4A
:1002800019682940196019680A431A606C22124BD8
:1002900012491A60124B186809F090FD114B186052
:1002A000114B1860022C02D1A022104B1A60802240
:1002B0000F4B12021A6080234022DB0501201A60D6
:1002C00070BDC04604800440F8FCFFFF80800440FD
:1002D000304004403440044018000040400D03000A
:1002E000701C001014000040100000400C00004082
:1002F00000E100E00000000000000000000000003D
:100300000122F8B508210600100007F0B9F907240A
:10031000082700223900012007F0B2F93200012538
:100320002241022100202A4007F0AAF92A003900C0
:10033000280007F0A5F9013CEBD2F8BD704700009A
:1003400007490B889808DA0842405A40580950403B
:100350000122D3401040C003184308807047C046B4
:1003600034000010552243084000904313400343DB
:10037000DBB2223A98089B00104093430343DBB260
:1003800018091B011843C0B2704700000523F0B5DF
:100390002038434389B005932D4B00271B780492E6
:1003A000009384235A43029107922A4B059AD3184B
:1003B000DB5D1C000193049B002B01D06400E4B2C0
:1003C0000023029D0393009B029A9B18DBB2AB4271
:1003D00039D0079B0026EA181F4BD318069325E057
:1003E0000295E2E7009B022B18D10199B300194155
:1003F0000B000F210B409C00234324310B405C0079
:100400001C4355231C4063001C436400E4B2002AD3
:1004100013D0039B002B01D001231C432000FFF7C6
:10042000A1FF84237343069A0136D054009BF2B295
:100430009342D7D80135EDB2C5E763B2002BEDDAB0
:1004400001230393EAE70137052FC9D109B0F0BDB5
:1004500025000010D9C10000B8130010F8B5040041
:100460000D00160006272078002800D1F8BD2900CD
:100470003200FFF78BFF034B0134197879436D1875
:10048000EDB2F0E725000010F8B506000C001700EB
:100490003078002800D1F8BD0A4B1D782E280AD1EB
:1004A000641BE4B23A002100FFF770FFAD0064194D
:1004B000E4B20136ECE73A002100FFF767FF0623BC
:1004C0005D43F4E7250000100F2313B503405724C4
:1004D000092B00D8273C1B196C466371572403096C
:1004E0009F2800D8273C68461B19037101A8FFF715
:1004F000B5FF13BD03001A7819000133202AFAD082
:100500000023CA5CC2540133002AFAD170470000AC
:100510008423CA0853431818842310B55B009842FB
:1005200008DA0722083B8A43FF3B9340024C225CD7
:100530001343235410BDC046B813001070B50D000E
:1005400004000A21280009F035FC303120236170B5
:10055000092D0AD90A21280009F0A6FB0A21C0B2F8
:1005600009F028FC0B003033DBB2237070BD0000B3
:10057000F7B519001E4B04001B7810001027002B44
:1005800000D1063F00230193994206DA0B000200D6
:100590000021504299410123019325003A00002394
:1005A000009509F035FD8C46D1B20300572009298A
:1005B00000D82738091800986A1C01706146180095
:1005C00015000B43EAD1019B002B03D02D231370A0
:1005D000009A02320021531E1170A34200D8F7BDC9
:1005E0001A782178013B597022700134F5E7C04632
:1005F00043040010F7B51022134B05001B7801923D
:10060000002B01D10A330193002000212B78002B0D
:1006100001D103B0F0BD1C00303CE4B2092C06D976
:100620001A00613A1C00052A01D8573CE4B20200C6
:100630000B000198002109F00FFD2600002701356D
:1006400080197941E2E7C0464304001030B5140038
:100650001D0087B00B00020001A8FFF789FF2A00E8
:10066000210001A8FFF7FAFE07B030BD074A137852
:10067000002B08D0013BDBB21370054ADB00D31816
:1006800018685968704700200021FBE74F020010EE
:1006900050020010034A1378591C1170024A5B0083
:1006A000D0527047490100104A0100100020054A4D
:1006B0001378834205D0013BDBB21370024A5B0022
:1006C000985A7047490100104A0100100023034A5C
:1006D0001370034A1370034A13707047D10200105D
:1006E0005203001040040010034A1378002B01D07D
:1006F000013B13707047C0465203001030B5074BE2
:10070000020019780023064CD8B2814201D8FF209C
:1007100003E00133E55C9542F6D130BDAA1000102C
:10072000AA1000108021084A431C9BB29B180901A3
:100730001A78013080B2FF2A00D170470133884215
:10074000F6D30020F9E7C0468E04001070B504000F
:100750000020064D002C03D0013CE4B2A84202D98F
:10076000013080B270BDFFF7DDFFF3E7FE07000048
:1007700010B5044B18780138C0B2FFF7E7FFFFF758
:10078000D1FF10BDAA10001010B5024B1888FFF75A
:1007900081FF10BD8E0C00100022014B1A707047B3
:1007A0004F0200100D488021038830B51A00002444
:1007B000012509018A420DD300228B4200D8CA1AB2
:1007C0009B189BB2002C00D00380054A1378013B94
:1007D000137030BD01322C0092B2EBE78E0C00108A
:1007E00074010010024A1378013B13707047C04631
:1007F00074010010054B064A1B781178123BDBB2DE
:10080000994200D1002313707047C0466204001063
:1008100088030010024A137859424B411370704705
:10082000430400100122014B1A7070475804001055
:1008300010B5054B054C197820784B1EC01809F0EF
:10084000A3FB217010BDC046AA1000104C0200107E
:1008500010B5054B054C197820784B1EC01809F0CF
:1008600093FB217010BDC046AA1000108C0400102C
:1008700003230B40890841333131037041707047C5
:10088000074A002013780021002B07D0013BDBB280
:100890001370044ADB00D318186859687047C046C3
:1008A000221B0010281B0010012330B500200A2451
:1008B0001D00084A084912780B80002A03D100283D
:1008C00000D00B8030BD6343013A28009BB2D2B206
:1008D000F3E7C046211B001044020010F7B50D4B92
:1008E00001251B78002401930B4B0C4E1A7803232F
:1008F00053439D40EF17019BA34200D1F7BD3068E1
:1009000071682A003B0009F083FB013403C6E4B29E
:10091000F1E7C046221B0010211B0010281B00100D
:10092000034A0449137809785B1813707047C0466E
:1009300048010010B1110010034A044B11781B78D4
:100940000B4013707047C04648010010B1110010F1
:10095000024A1378013313707047C04648010010F3
:10096000024A1378013B13707047C04648010010DB
:1009700010B5044B044C1978207809F095F92070D3
:1009800010BDC046B1110010480100103C22034BBD
:100990001B789B001340024A13707047F601001049
:1009A0002400001010B5044B044C1978207809F08D
:1009B00001FA217010BDC046B111001048010010AD
:1009C000034A0449137809784B4313707047C046B3
:1009D00048010010B11100100F200449044A0B789F
:1009E00012781B01024013430B707047480100103E
:1009F000F601001070470000024A1378DB431370C1
:100A00007047C04648010010024B1A78024B1A701A
:100A10007047C0464801001038020010034A0449DC
:100A2000137809780B4313707047C04648010010D3
:100A3000B11100100720044A044912780B780240D3
:100A400093400B707047C046F6010010480100103B
:100A50000720044A044912780B78024013410B70B6
:100A60007047C046F601001048010010034A0449CF
:100A7000137809785B1A13707047C046480100105C
:100A8000B1110010034A044B1178187819701070D6
:100A90007047C04648010010B1110010034A0449D4
:100AA000137809784B4013707047C0464801001016
:100AB000B11100103F22044B1B781340034A1178F8
:100AC000034AD1547047C046F60100104801001097
:100AD000F70100103F22044B1B781340034AD25CFD
:100AE000034B1A707047C046F6010010F701001062
:100AF0004801001026490300820908703FD102090D
:100B00000120002A31D00E300340012A2ED10D38A9
:100B1000002B2AD00330012B27D00130022B24D008
:100B20000130032B21D00130042B1ED00130052BC6
:100B30001BD00130062B18D00130072B15D0033005
:100B4000082B12D00130092B0FD001300A2B0CD00A
:100B500001300B2B09D002300C2B06D001300D2BAD
:100B600003D001300E2B00D0023070471620022A2D
:100B7000FBD110389842804140420C30F5E7032009
:100B8000012AF2D00130022AEFD00E30EDE7C04644
:100B9000F601001070B50D0014000321FFF7F6FBFD
:100BA0002300280009220021FFF750FD084E2200F3
:100BB000705D1821FFF788FC705DFFF79BFF054B08
:100BC000800022002721C058FFF748FC70BDC046B6
:100BD000F7010010D4BE0000802203000848520034
:100BE000002B05D00178002902D0013A002A00D15B
:100BF000704701300A29F3D1013BDBB2F0E7C04670
:100C000036000010802305485B000278002A02D0DD
:100C1000013B002B00D170470130F6E73600001091
:100C2000002318000649CA5C002A01D0FF2B00D11E
:100C300070470A2A01D10130C0B20133F3E7C04640
:100C40003600001010B5084B08491A7801235C5C87
:100C5000D8B2944202D90138C0B210BD01330E2B74
:100C6000F5D10020F9E7C0468C030010A4C80000AD
:100C700010B5104B0322187800210123FFF7E6FC82
:100C8000012215218C20FFF781FB0B4B1B221868DA
:100C90000123C117FFF7DAFC012233218F20FFF770
:100CA00075FB064B392218680123C117FFF7CEFCEC
:100CB00010BDC046600400107001001090030010C9
:100CC000F7B5174B174A1C78019023019B5A200057
:100CD0000093210000231588009EB54209D98C425B
:100CE00006D00F01BC4666460E4FF65BAE4200D9F9
:100CF0001900009EB54206D284420ED0094F06016B
:100D0000F65BAE4209D30133DBB21032762BE2D16F
:100D1000019B002B00D10800FEBD1800F3E7C04680
:100D2000B01100109CD20000F0B585B0022829D186
:100D3000042100228C460192524E0324083615E00D
:100D40000879002808D10F78002F05D0019B0F717A
:100D50000133DBB208700193013DEDB20131002D8A
:100D6000EED1013CE4B2043E944202D93100654622
:100D7000E6E70132D2B2032ADED1019B5A1E93412B
:100D8000D8B254E0042822D1002201921CE0CF788E
:100D9000002F08D18B78002B05D0CB70019B8F7072
:100DA0000133DBB20193013DEDB201399542EED83A
:100DB000013CE4B20436002C02D031000325E6E702
:100DC0000132D2B2032AD8D004002E4EF5E7012812
:100DD0002AD100242B4E0194611CA5003200C9B217
:100DE0006D4217E01778002F0BD1029B5019C35C9E
:100DF000002B06D01370029BC754019B0133DBB25A
:100E00000193039B01329A42ECD10131C9B2043DF6
:100E1000042904D08B000293131D0393E2E70134ED
:100E20000436032CD8D1A8E7032827D0002005B02A
:100E3000F0BD30780132D2B2002808D1AB5C002B73
:100E400005D03370019BA8540133DBB20193013606
:100E5000032AEED101340437042C05D0094BA50038
:100E60003E00029A5D19E4E70131032900D184E7CD
:100E7000CBB20293034B00245F18EFE700210191EE
:100E8000F6E7C04675030010084B400070B5C45C1F
:100E90001B185D7820002900002206F0A5FB290020
:100EA0000122200006F0ECFB70BDC0464FD20000CE
:100EB0000122F8B508210600100006F0E1FB072426
:100EC000082700223900012006F0DAFB3200012554
:100ED0002241022100202A4006F0D2FB2A003900DC
:100EE000280006F0CDFB013CEBD2F8BD002210B586
:100EF00004001100022006F0C3FB2000FFF7D8FF1A
:100F000010BD0000F8B50F4C060020000D0007F0E2
:100F1000A7F85F232018037000234370200007F018
:100F20009FF8C3B2C7B22000AB4201D9781B0019A9
:100F300032000321FFF7A8FA0023E419013C2370D3
:100F4000F8BDC046B003001010B5084C200007F0F3
:100F500087F8C3B2002B05D00023C0B22418013C8F
:100F6000237010BDFFF782FBFBE7C046B003001003
:100F700070B54D1C46180C00451907F071F8290092
:100F8000021B300007F008F870BD000010B5064CD9
:100F90002178002907D001390448C9B2FFF7E8FFDA
:100FA0002378013B237010BD52030010D1020010C2
:100FB000F0B5002685B001900C2703257743F3B2E6
:100FC000B4000093341B019B793CE4B2DF19290083
:100FD0002000009AFFF7DAF9002302AA3900137102
:100FE00002A8042206F0D8FFE91D2435009AC9B2F0
:100FF00002A80134EDB2FFF731FAE4B204376F2DE5
:10100000E5D1012E01D00126D6E705B0F0BD0000E4
:10101000F8B505000026064C8322277820000549F4
:101020008334013606F0B8FF2770AE42F3D1F8BD25
:10103000B8130010B913001070B50D00040006F0CD
:10104000C9F82900200006F06DF970BD07B56846A3
:1010500001A9FFF7F1FF6B46FA221B88D2009B180B
:10106000034A13606B469A78024B1A7007BDC0465C
:10107000400200103B02001007B5684601A9FFF7C7
:10108000DBFF6B463C205B7958436B469B79C0186D
:101090000EBDF8B51700040008000D0006F0E0FFD3
:1010A000E419C6B2200006F0DBFFA7192100421C9C
:1010B000380006F0B4FF32002900200006F06CFF73
:1010C000F8BD0000F8B50C4C060023780F000B4D5E
:1010D0000F2B07D978222800094906F0A0FF2378B2
:1010E000013B2370237830005A1CDB00ED182E6082
:1010F0006F6039002270F8BD4F02001050020010DE
:101100005802001010B5FFF71BF909F0BBFFFFF7FD
:10111000D9FF10BD10B5FFF7A9FA09F04DFF0A215C
:1011200008F032FFCB000349C91808684968FFF787
:10113000C9FF10BDD0140010F8B5FFF797FA0600EC
:101140000F00FFF793FA0D0004003900300009F09A
:1011500033FF0A2108F018FF054BC9B2C90059181E
:101160000C604D6020002900FFF7ACFFF8BDC046C1
:10117000D014001010B5FFF779FA08F09BFFC0B249
:1011800000280BD0064B1B78834207D31B1A054857
:10119000DB00C31818685968FFF794FF10BDC046FC
:1011A0004F0200105002001070B5FFF75FFA040004
:1011B0000D00FFF75BFA02000B002000290008F089
:1011C0001DFF002804D100200021FFF77BFF70BD28
:1011D00000200149F9E7C0460000F03F10B5FFF7D5
:1011E00045FA0022002308F0E5FE002804D1002083
:1011F0000021FFF767FF10BD00200149F9E7C04655
:101200000000F03F10B502480249FFF75BFF10BD38
:10121000182D4454FB210940F8B5FFF727FA0D00BB
:101220000400FFF723FA06000F002000290009F050
:10123000C3FE39000400300009F0BEFE2040C04368
:1012400009F0F0FEFFF73EFFF8BD000010B5034BBC
:1012500018685968FFF736FF10BDC04668040010D3
:1012600010B5FFF703FA0200802000060B181900E2
:101270001000FFF727FF10BDF0B585B0FFF7F6F9B6
:1012800004000D00FFF7F2F9134B06001B780F0066
:10129000002B19D0FFF7EAF900900191FFF7E6F96A
:1012A0000290039130003900FFF70CFF2000290065
:1012B000FFF708FF02980399FFF704FF00980199D0
:1012C000FFF700FF05B0F0BD20002900FFF7FAFE90
:1012D00030003900F4E7C0463304001070B5FFF762
:1012E000CBFFFFF7C3F90D000400FFF7C5FF29008E
:1012F0002000FFF7E7FE70BDF8B5114B1B78002BFF
:1013000019D0FFF7B3F906000F00FFF7AFF904009B
:101310000D00FFF7D7FE30003900FFF7D3FE2000A5
:101320002900FFF7CFFE30003900FFF7CBFE012286
:10133000044B1A70F8BDFFF799F9FFF7C3FEF4E705
:101340003304001070040010F0B585B00391FFF76E
:10135000FDF90600FFF7E6F90024013083B201939E
:101360009B1B013B9BB20293039BE7B21B5DFF2BD0
:1013700004D00134812CF7D1013C2700FFF7F8F9A4
:101380008022029B1201C31ADB19934211DA029ADE
:101390000F4DBBB297420ED201990139421AA019E2
:1013A0006918281806F0F8FD22000399A81906F01C
:1013B000F3FD05B0F0BD029A9342F5D901990139C8
:1013C000421AA01901326918281806F028FEEBE726
:1013D0008E040010F8B50D4F06003B780D000C4C44
:1013E000032B08D9210018222000083106F017FE2F
:1013F0003B78013B3B703B7830005A1CDB00E41823
:1014000029003A7026606560F8BDC046221B0010B6
:10141000281B001010B5034B18685968FFF7DAFF56
:1014200010BDC046481B001010B5FFF729FA024B4B
:1014300003C3FFF7CFFF10BD481B0010F0B5032416
:10144000012589B0FFF71CFA1D4B01901B78029112
:101450005C430434A540EB172A00059308F0FCFD1B
:101460000223A34000240393019EDB17029F0690F2
:101470000791049332003B000698079908F0C8FDD5
:101480002A00059B8019794108F0E6FD039A049B28
:1014900008F0BEFDB04201D1B94207D01D2C0BD1DE
:1014A000019E029F0134E4B21E2CE3D130003900CA
:1014B000FFF790FF09B0F0BD06000F00F2E7C0464D
:1014C000211B001010B5FFF7DBF9FFF783FFFFF7D3
:1014D00081FF0122014B1A7010BDC046700400103C
:1014E00010B5FFF7CDF9002342428B4110001900DF
:1014F000FFF770FF10BD000070B5FFF7C1F90600DF
:101500000D00FFF7BDF90324020001200B0007497D
:1015100009784C430434A040C11708F09DFD320007
:101520002B0008F075FDFFF755FF70BD211B001063
:1015300070B5FFF7A5F905000C00FFF7A1F902004F
:101540000B002800210008F087FD064B1A780323C2
:101550005343012204339A40D31708F059FDFFF793
:1015600039FF70BD211B001070B50324134B0A25F1
:101570001B785C43FFF784F901220434A240D3179F
:10158000A54008F045FDEE1744B2030611D501341D
:1015900064B2012C00D170BD28003100FFF71AFFA2
:1015A000FFF7AAFFF3E728003100FFF713FFFFF76B
:1015B000BFFF013C64B2631CF5D1ECE7211B0010B6
:1015C00070B5FFF75DF90D000400FFF759F9001938
:1015D0006941FFF7FFFE70BD10B5FFF781FFFFF710
:1015E000EFFF10BD70B5FFF74BF905000C00FFF7DA
:1015F00047F928402140C043C943FFF7EBFE70BDC7
:10160000F8B504000025074E8322330083331F788A
:1016100031000548013506F002FD3770A542F2D1D0
:10162000F8BDC046B8130010B9130010F7B5150087
:1016300001930600002200232800019908F0C0FC55
:10164000002847D080220624019B12069F18002202
:1016500028003900304B08F0D1FC00283DD0802212
:10166000280039002D4B9205033C08F0A9FC002806
:101670000FD1280039002A4A2A4B08F0B5FC00286F
:1016800008D028003900284A284B08F099FC002887
:1016900000D00134264B01991C43280009F018FDA5
:1016A0003100220008F063F94521300006F0CDFC3E
:1016B00000280ED0841BE5B2290030003419FFF752
:1016C00057FC6378302B04D101353000E9B2FFF7C5
:1016D0004FFCF7BD0724019FB9E728003900154AE0
:1016E000154B08F06DFC002801D0033CC1E7280031
:1016F0003900124A124B08F063FC002801D0023C6A
:10170000B7E7104B00222800390008F059FC431EAF
:101710009841241AADE7C046D01263415FA002424F
:10172000BBBDD7D9DF7CDB3DFCA9F1D24D62503F78
:10173000000307187B14AE47E17A843F9A99999980
:101740009999B93F0000F03F30B514001D0085B0F5
:101750000B00020001A8FFF769FF2A00210001A881
:10176000FEF792FE05B030BD7FB5154B0D001C781D
:10177000160084421FD9241A124B1348013CE4007E
:101780001B78041920686168002B0FD007F0D6FC85
:1017900002000B0001A8FEF7EBFE01A8FEF7AAFE6F
:1017A0003200290001A8FEF759FE7FBD13002A0070
:1017B000FFF7CAFFF9E75F20FEF7E8FDF5E7C0464F
:1017C0004F0200104304001050020010F7B51D4EE8
:1017D000C700BE19019030000C00150006F040FC57
:1017E000002815D02A0021003000FEF737FE164BE6
:1017F000019A1B7893420AD10621144B49421B7867
:101800002A0059436118B220C9B2FEF7BFFDF7BDE7
:101810000F4B0022DF193E687F680023300039003B
:1018200008F0C8FB002805D02A002100CC20FEF7D4
:10183000ADFDDCE72B00220030003900FFF784FF0C
:10184000D5E7C046B5110010C014001025000010E7
:10185000B8120010F7B5234B234A1E78234B1B7890
:10186000D05C002E0CD005214143214809182148A5
:1018700006F0FEFB1F4806F0F3FB1F4B1870F7BD88
:10188000FEF764FF04001D4B1B5DFF2B27D1194B96
:101890009E190023013E3370ECE705203B5D434376
:1018A0001348C31801981B5C4B551500AB1BDBB2EA
:1018B00001930523114F385D58430D4BC01806F0B6
:1018C000CFFB019B6A1C0B49D2B2834201D22B068B
:1018D000E3D52023013416004B55A4B2D3E73500DD
:1018E000E4E7C0463E040010AB1000108C0400106A
:1018F000900C0010D1020010520300108E04001052
:10190000044B10B5C000C018034B8900C95806F03D
:10191000AFFB10BDB511001038C0000030B5032575
:1019200087B008210120FFF7EBFF2A4C2A00210095
:10193000684606F031FB69467420FFF705FD1F215C
:101940000520FFF7DDFF2A00611901A806F024FB3E
:1019500001A97820FFF7F8FC20210920FFF7D0FF2C
:101960002A00A11D02A806F017FB02A97C20FFF7A0
:10197000EBFC21210D20FFF7C3FF21002A000931D4
:1019800003A806F009FB03A98020FFF7DDFC222154
:101990001120FFF7B5FF21002A000C3104A806F042
:1019A000FBFA04A98420FFF7CFFC23211520FFF7C1
:1019B000A7FF21002A000F3105A806F0EDFA05A9BE
:1019C0008820FFF7C1FC24211920FFF799FF07B0F9
:1019D00030BDC0461BBB000070B5082192B001208D
:1019E000FFF78EFF574C032521002A00684612316D
:1019F00006F0D2FA69467420FFF7A6FC25210520DF
:101A0000FFF77EFF21002A00153101A806F0C4FA75
:101A100001A97820FFF798FC26210920FFF770FF25
:101A2000082621003200183108A806F0B5FA08A9E6
:101A30007C20FFF789FC27210D20FFF761FF2100A3
:101A4000320020310AA806F0A7FA0AA98020FFF781
:101A50007BFC28211120FFF753FF210001363200C3
:101A600028310CA806F098FA0CA98420FFF76CFC2A
:101A700029211520FFF744FF2100320031310FA842
:101A800006F08AFA0FA98820FFF75EFC2A211920A8
:101A9000FFF736FF21002A003A3102A806F07CFA4F
:101AA00002A97620FFF750FC2B210720FFF728FF23
:101AB00021002A003D3103A806F06EFA03A97A201E
:101AC000FFF742FC2C210B20FFF71AFF21002A0010
:101AD000403104A806F060FA04A97E20FFF734FC28
:101AE0002D210F20FFF70CFF21002A00433105A80C
:101AF00006F052FA05A98220FFF726FC2E211320BA
:101B0000FFF7FEFE210001352A00463106A806F047
:101B100043FA06A98620FFF717FC2F211720FFF7AD
:101B2000EFFE21002A004A3107A806F035FA07A97E
:101B30008A20FFF709FC30211B20FFF7E1FE12B0DD
:101B400070BDC0461BBB00001FB50E490B224E31B5
:101B500001A806F021FA01A97C20FFF7F5FB1B2163
:101B60000120FFF7CDFE1C210520FFF7C9FE1D2136
:101B70000920FFF7C5FE1E210D20FFF7C1FE05B0AD
:101B800000BDC0461BBB000030B51F4C0425210022
:101B900085B02A00593101A806F0FEF901A9782084
:101BA000FFF7D2FB21002A005D3102A806F0F4F90C
:101BB00002A98020FFF7C8FB21002A00613103A899
:101BC00006F0EAF903A98820FFF7BEFB0D210120EA
:101BD000FFF796FE0E210520FFF792FE0F21092048
:101BE000FFF78EFE10210D20FFF78AFE0E21112037
:101BF000FFF786FE07211520FFF782FE1A21192024
:101C0000FFF77EFE05B030BD1BBB000010B5184CC1
:101C100088B021000F226846653106F0BDF969469B
:101C20008020FFF791FB21001022743104A806F0F8
:101C3000B3F904A98420FFF787FB03210120FFF7F4
:101C40005FFE03210520FFF75BFE07210920FFF758
:101C500057FE17210D20FFF753FE18211120FFF723
:101C60004FFE19211520FFF74BFE08B010BDC046EE
:101C70001BBB000030B51D4C91B01022211D01A8E6
:101C800006F08AF901A97C20FFF75EFB13252100ED
:101C90002A00143105A806F07FF905A98020FFF776
:101CA00053FB2100172227310AA806F075F90AA96B
:101CB0008420FFF749FB11210120FFF721FE1221AB
:101CC0000520FFF71DFE29000920FFF719FE14214A
:101CD0000D20FFF715FE15211120FFF711FE16212B
:101CE0001520FFF70DFE11B030BDC0469BBB0000B4
:101CF0001FB50724144922003E3102A806F04CF912
:101D000002A97820FFF720FB104904225D3101A8C9
:101D100006F042F901A98020FFF716FB09210120F6
:101D2000FFF7EEFD21000520FFF7EAFD0A2109205B
:101D3000FFF7E6FD0B210D20FFF7E2FD0C2111203E
:101D4000FFF7DEFD1FBDC0469BBB00001BBB0000B4
:101D500010B5164C86B021000822453101A806F0C6
:101D60001BF901A97C20FFF7EFFA21000A224D316F
:101D700003A806F011F903A98020FFF7E5FA012175
:101D80000800FFF7BDFD05210800FFF7B9FD06219A
:101D90000920FFF7B5FD02210D20FFF7B1FD072156
:101DA0001120FFF7ADFD06B010BDC0469BBB000083
:101DB00000B50E4989B01C22573101A806F0ECF895
:101DC00001A97C20FFF7C0FA00210120FFF798FD50
:101DD00003210520FFF794FD04210920FFF790FD62
:101DE00001210D20FFF78CFD09B000BD9BBB000059
:101DF000F0B52E4B85B01B7802900393002B0DD0CD
:101E0000FEF7F8FB07F022FAFFF75CF9284B029A7D
:101E1000186059600023137005B0F0BD029B1B7859
:101E20002D2B11D10024029B224D0133019300265A
:101E30000027019B1B78002B0BD122002B003000C8
:101E4000390006F0EFFEDFE7029B00241A4D0193F4
:101E5000EDE72E2B26D0303B092B1FD80022300077
:101E60003900164B06F030FE019B060018780F0073
:101E7000303809F0D7F80B0002003900300006F0C6
:101E800075FD039B06000F00002B07D020002900E2
:101E900000220A4B06F018FE04000D00019B0133DE
:101EA0000193C6E701230393F8E7C04643040010FB
:101EB000680400100000F0BF0000F03F0000244064
:101EC00070B5094D280006F0CBF8084C002807D063
:101ED0002378002B01D0FEF7C9FB2800FFF788FF0D
:101EE0000023237070BDC046B003001070040010C2
:101EF00010B5FFF7E5FFFEF7B9FB08F0DBF80122AC
:101F0000024B1870024B1A7010BDC0464E020010F2
:101F10003C0400107FB5FEF7A9FB05000C00002271
:101F200000232800210008F04BF80126002804D0E7
:101F3000802301261B06E41876422800210007F0C2
:101F4000FDF802000B003000F11708F085F80200E0
:101F50000B0001A8FEF70CFB01A8FFF749FF7FBDAE
:101F600070B5050000240526094B1B78A34202D852
:101F7000FF24200070BD30006043064B2900C018CC
:101F800006F07DF80028F4D00134E4B2ECE7C04656
:101F9000AA100010900C001007B5094B6A46009378
:101FA00000231371074B68461B7840339370FFF78B
:101FB000D7FFFEF7CBFB044B1880FFF781FF07BD6F
:101FC000464E7800880300108A03001007B5094BBD
:101FD0001B78002B0DD0084A69460092002240333E
:101FE0008B7068460A71FFF7BBFFFEF7AFFB034B30
:101FF000188007BD88030010464E78008E0C001034
:102000000122084B10B508481A70FFF7A9FF074BCB
:102010001870074B18700748FFF7A2FF064B18709F
:1020200010BDC046530400104CB40000B3110010A2
:10203000B41100104FB40000B211001013B50B49D9
:1020400004000222733101A805F0A6FF6B460022AE
:10205000210001A89A71FEF70BFC01A8FFF780FF91
:10206000FEF74CFB024B187013BDC0469BBB000033
:102070008C040010F8B5144B14491C780023DAB214
:10208000944205D80527013CE4B2002C03D1F8BDE9
:10209000CA540133F3E700260C4D69782878794358
:1020A00078430B4B0136C918C018F6B205F0E7FFAC
:1020B000002803DD2B786A786B702A700135A64200
:1020C000EBD1013CE4B2E0E7AA100010AB10001025
:1020D000900C001010B5FEF7C9FA07F03FFBFEF7B1
:1020E000F1FF10BD10B5FEF7C1FA07F0E9FAFEF7EF
:1020F000E9FF10BD10B50B4B1B78002B09D0FEF784
:10210000B5FA0022002307F055FF002802D1FEF7A0
:10211000CDFA10BDFEF7CAFA034B80B21880FEF765
:10212000B9FAF6E7490100108E0C001070B50C4C9E
:102130002378002B02D00023237070BD094D2B782B
:10214000002B05D0084B1B78002B01D0FEF7C6FBF7
:10215000002201232A70054A23701380EDE7C04650
:1021600043040010211B0010221B00104402001029
:10217000054B1B78002B05D13F22044B1B781340E5
:10218000034A13707047C04648010010F601001062
:102190002400001010B50C00022814D1C821200022
:1021A000490007F007FE89B21D2000290AD0013836
:1021B000A30707D16421200007F0FCFD88B2431E6D
:1021C00098411C3010BD0223984303001E20042BAD
:1021D000F8D0093B1800431E98411E30F2E700007A
:1021E000F0B5002589B00091019206001322290064
:1021F00003A802950C2705F0F0FE194B194A1B782D
:102200007B43012E24D1D3585C5D002C12D1164D96
:1022100002A9280005F02CFF280005F021FF134B30
:10222000019A187002AB180000991C75FEF716F998
:1022300009B0F0BD013CE4B20D49232C02D80D4B8E
:10224000A400E15802A8013509F0DAF8EDB2D4E7AC
:10225000D318022E01D15B68D6E79B68D4E7C0464D
:102260004D0200102CDB0000D102001052030010C0
:1022700052B4000024BC0000F7B5012004F058FE61
:1022800004002220002C1DD12500174B0193019B37
:1022900001221E785F783000390005F0A5F9390079
:1022A0003000002205F0ECF9271D104EFFB27178C6
:1022B000307805F0BBF9002805D12800FEF7E4FDD1
:1022C0000B4B185DFEBD0134E4B20236A742EED1DD
:1022D0002800FEF7D9FD019B01350233EDB20193D1
:1022E0000A2DD4D1FF20EDE74FD2000047D20000E5
:1022F0001FD2000070B50024FFF7BEFF05000120CB
:1023000005F0ACFBFF2D00D000240134E4B2032C17
:10231000F2D170BD402210B5034B1A70034B3F3A07
:102320001A70FFF7E7FF10BD240000103100001005
:102330000123074A10B51370064A1370FFF7DAFF3E
:10234000054B064A1978117040221A7010BDC0461C
:102350003804001031000010240000103902001071
:102360000123074A10B51370064A1370FFF7C2FF26
:10237000054B064A1978117040221A7010BDC046EC
:102380003704001031000010240000103902001042
:1023900070B5054C0548257805F062FE854202D2ED
:1023A00023780133237070BD52030010D102001056
:1023B000F7B5204B1B78002B34D0FEF757F900906F
:1023C0000191FEF753F9009A019B06000F001000DF
:1023D000190006F079FB320004000D003B003000CC
:1023E000390006F071FB02000B002000290006F006
:1023F000BDFA02000B0004000D003000390006F0A9
:1024000011FC0200802000060B1819001000FEF7D6
:1024100059FE0098019922002B0006F003FCFEF7FC
:1024200051FEF7BDFEF722F902000B000020024921
:10243000F3E7C046330400100000F03FF0B5284B2E
:1024400085B01B78002B3DD0FEF710F9009001916C
:10245000FEF70CF904000D00FEF708F906000F0066
:10246000FEF704F93200029003913B00200029009E
:1024700006F02AFB029A039B04000D0000980199C4
:1024800006F022FB02000B002000290006F06EFA85
:10249000FEF718FE0098019932003B0006F014FB8D
:1024A000029A039B04000D003000390006F00CFB7B
:1024B00002000B002000290006F052FAFEF702FE8F
:1024C00005B0F0BDFEF7D2F804000D00FEF7CEF81F
:1024D00002000B002000290006F0F6FAEEE7C046E5
:1024E0003304001010B503480349FEF7EBFDFFF776
:1024F000A5FF10BDCBC1631ADCA54C4010B5FEF79B
:10250000B5F80022034B06F0D1FFFEF7DBFDFFF725
:10251000E9FF10BD0000F03FD0B5FEF7A7F808F0C6
:102520004BFD44B203060FD56442094E094F64B215
:10253000E4B2002C00D1D0BD30003900FEF7C2FD5E
:10254000013CFFF77BFFF3E70026034FF0E7C046AF
:102550009A9999999999B93F00002440F7B5174B7A
:102560001B78002B1ED0FEF781F800900191FEF73A
:102570007DF804000D00FEF779F806000F00FEF765
:1025800075F802000B002000290006F0EFF9FEF7B5
:1025900099FD0098019932003B0006F0E7F9FEF73B
:1025A00091FDF7BDFEF762F804000D00FEF75EF83E
:1025B00002000B0020002900EFE7C04633040010A2
:1025C000F0B5334B89B01B78002B5BD0FEF74EF88B
:1025D00006000F00FEF74AF800900191FEF746F85A
:1025E00002900391FEF742F83200049005913B00FF
:1025F0003000390006F068FA009A019B04000D00D3
:102600001000190006F060FA02000B0020002900FB
:1026100006F0ACF9049A059B06900791300039004A
:1026200006F052FA029A039B04000D0000980199EB
:1026300006F04AFA02000B002000290006F090F98B
:10264000069A079B06F0EEFAFEF73CFD029A039B02
:102650003000390006F038FA049A059B04000D009A
:102660000098019906F030FA02000B0020002900C2
:1026700006F07CF9069A079B06F0D4FAFEF722FDD5
:1026800009B0F0BDFFF794FEFFF7D8FEF8E7C046AB
:102690003304001010B503480349FEF713FDFFF79C
:1026A0008FFF10BDCBC1631ADCA54C4010B5FFF7FE
:1026B000F1FFFDF7DBFF06F079FEFEF703FD10BD2D
:1026C000F7B5134B1B78002B1CD0FDF7CFFF040090
:1026D0000D00FDF7CBFF00900191FDF7C7FF06004D
:1026E0000F00FDF7C3FF009A019B06F039F9FEF7D2
:1026F000E9FC22002B003000390006F031F9FEF72A
:10270000E1FCF7BDFEF7ACFDFFF728FFF9E7C04697
:1027100033040010F8B50A4B1B78012B0FD9FEF7D4
:10272000AFF807000E00FEF7ABF805000C0038000C
:102730003100FEF74FFE28002100FEF74BFEF8BDEA
:10274000221B001070B5FFF7E5FFFEF799F80500B2
:102750000C00FFF7DFFF28002100FEF73BFE70BDF5
:1027600010B5FFF7D7FFFEF7ADFEFFF7EBFFFEF763
:10277000DFFE084B01201A780323534304339840AB
:1027800064220023C11707F067FCFEF723FEFEF763
:10279000B3FE10BD211B001010B5194B1B78002B88
:1027A0002DD0FFF78DFBFFF7F7FB20220021154806
:1027B00005F013FC0123144A1370144A137000230C
:1027C000134A1370134A1370134A1370FDF74EFF28
:1027D000124C20606160FDF749FFFEF773FC0200B8
:1027E0000B000F490A604B602068616806F0B8F87A
:1027F0000C4B002206F016FA0B4B1860596010BD06
:1028000088030010801100104F0400104E040010C7
:102810004004001063040010B51200108004001082
:102820007804001000003F40A003001070B5154B65
:102830001B78002B24D0FFF743FBFDF717FF0D009B
:1028400080210400104A114B0020C90506F03CF914
:1028500002000B002000290006F082F8FEF732FC8F
:102860000B4B18605960FFF797FB002000210022F6
:10287000084B18605960084B1A70084B01321A70E7
:1028800070BDC04688030010FCA9F1D24D62503FD4
:10289000C8140010A8030010B5120010590400104D
:1028A00010B5174B1B78002B29D0FFF775FBFEF7EF
:1028B000E3FCFDF7DBFE134C20606160FDF7D6FE04
:1028C000FEF700FC2268636806F04AF880230022C5
:1028D000DB0506F0A7F900220B4B06F0A3F90B4B22
:1028E00001221860596000200021094B18605960CE
:1028F000084B1A700023084A1370084A137010BD61
:10290000880300107804001000002440A003001089
:10291000A80300104604001040040010B512001077
:1029200010B5094B1B78002B0DD0FFF735FBFEF7D8
:10293000E3FCFEF7E1FC0122044B1A700023044A79
:102940001370044A137010BD880300105A0400105D
:1029500063040010B51200107FB50C0018490C225A
:102960000600763101A805F017FB00250223B342CB
:102970006D41651BADB26421280007F095F9C821AF
:10298000AC0880B26419241A4900280007F08CF9B9
:1029900001AB9B19013B80B220181C78072100195C
:1029A000013007F0F1FA074BC8B21B78002B03D0B7
:1029B000002803D00138C0B204B070BD0620FBE788
:1029C0009BBB00004C04001070B505000E000324F2
:1029D000FDF790FD2878002800D170BD320021005D
:1029E000FDF7D4FC2B78202B05D1033CE4B2063450
:1029F000E4B20135EEE72E2BF9D1013CF6E70000F9
:102A0000F0B5354B354D1E78C3B0002E5FD12E2169
:102A1000280005F01AFB310004007D2222A821962F
:102A200005F0DBFA2900684605F022FB002C06D0F1
:102A30006B46651B5E55611C21A805F019FB6846B5
:102A4000FDF7D8FD264B01261A78032353430433A0
:102A50009E40F71732003B0007F0FEFA040021A861
:102A60000D00FDF7C7FD02000B003000390007F034
:102A7000F3FAFA220023920007F0CAFA24184D4113
:102A800021E00C00303CE4B20135092C06D90E00DF
:102A9000613E0C00052E01D8573CE4B2110F1B011A
:102AA0001201044022430B4329780029E9D10C4943
:102AB000087803214143012004318840C11707F001
:102AC000CBFA04000D002000290043B0F0BD002225
:102AD0000F201300E8E7C04643040010B0030010C5
:102AE000211B0010F8B5084F05003800CE190C0066
:102AF00005F0B6FA021B601C3100C019013205F066
:102B00008EFA3570F8BDC046D102001070B50524AC
:102B1000444315482418200005F0A2FA0500134884
:102B200005F09EFA7F23EAB29B1A984212D2200047
:102B3000FFF716FA0A2808D90D4B1978002904D096
:102B40004A1C20201A70FFF7CDFF0026EDB2F3B229
:102B50009D4200D870BD064BA05D197801364A1C15
:102B60001A70FFF7BFFFF2E7900C0010D1020010BF
:102B700052030010F0B5042400261E4B85B000253A
:102B80005A5D002A01D10136F6B20135042DF7D184
:102B9000013CE4B20433002CF1D1002E28D0FDF723
:102BA000CFFB310007F0F0F92700CBB20293039579
:102BB000104BBD00039EED182B78002B10D1631C29
:102BC000DBB20193029BA34209D1FDF7B9FB0A21B5
:102BD00007F0F0F889B24B42594101312970019C4C
:102BE000013EF6B20135002EE6D10137042FDFD1C8
:102BF00005B0F0BD75030010F7B50400FEF794F8BA
:102C0000431E9841C3B20093022C2AD100210B002D
:102C10008C46434E0836042072181779002F08D0CE
:102C20001578BD4205D10135157165460133157022
:102C3000DBB20138C0B201320028EED104390A00FB
:102C40000C32E8D1002B01D0012300932000FEF7C5
:102C50006BF8009B1843C0B2002801D0FFF78AFF31
:102C6000F7BD042C1CD1002320009C462C4E3200C2
:102C70000321D778002F08D09578BD4205D10135C2
:102C8000D570654601339570DBB20139C9B2013A9E
:102C90000029EED10138C0B204360028E7D1D1E7CF
:102CA000012C1DD100210B008C461D4A0420451A21
:102CB000101801901778002F09D05618705DB8428F
:102CC00005D101301070604601337055DBB20198B8
:102CD00001328242EED1043908000C30E6D1B1E76E
:102CE000032CB3D1002304209C460D4E320021005A
:102CF0001778002F08D05578BD4205D101351570E1
:102D0000654601335570DBB20139C9B20132002981
:102D1000EED10138C0B204360028E7D192E7C046B0
:102D20007503001070B5114A137801331370FDF765
:102D30009DFC0022002307F03DF9002811D00C482B
:102D40008021038800241A00012509018A4209D341
:102D500000228B4200D8CA1A9B189BB2002C00D0CC
:102D6000038070BD01322C0092B2EFE774010010B5
:102D70008E0C0010F8B50023134E3370134C144D15
:102D80002778EB5D202B04D1280005F069F98742F4
:102D900009D32778EB5D202B04D0280005F060F9DB
:102DA000874204D3F8BD237801332370E6E7237804
:102DB00030005A1CEF5C227005F052F900233018E5
:102DC00007704370E5E7C04654030010530300103A
:102DD000D1020010F8B50F4D0400280005F040F9AD
:102DE0007F2811D80C4E3378002B0ED0002C0FD03A
:102DF000062C0AD86034E7B2280005F031F9002328
:102E00002D182F706B703370F8BD2E270A2CF3D05D
:102E10003034F0E7B00300103104001010B5064B59
:102E20001B78002B03D00122044B1A7010BD0A201E
:102E3000FFF7D0FFFAE7C04643040010310400104A
:102E400010B5FFF7EBFF10BD10B50920FFF7C2FF6B
:102E500010BD10B5FFF7F8FF10BD10B50820FFF743
:102E6000B9FF10BD10B5FFF7F8FF10BD10B5072072
:102E7000FFF7B0FF10BD10B5FFF7F8FF10BD10B59C
:102E80000620FFF7A7FF10BD10B5FFF7F8FF10BD34
:102E900010B50520FFF79EFF10BD10B5FFF7F8FF36
:102EA00010BD10B50420FFF795FF10BD10B5FFF75A
:102EB000F8FF10BD10B50320FFF78CFF10BD10B553
:102EC000FFF7F8FF10BD10B50220FFF783FF10BD1C
:102ED00010B5FFF7F8FF10BD10B50120FFF77AFF1E
:102EE00010BD10B5FFF7F8FF10BD10B50020FFF7BB
:102EF00071FF10BD10B5FFF7F8FF10BDF0B50C0065
:102F00008BB0202109921322019005F066F8002071
:102F1000019BE100824CD8746418049022686368B5
:102F2000834206DA19001000002342428B4101213E
:102F300004917C490125097805917B490888002185
:102F400007F08AF80A22002307F086F80323059A7F
:102F500053432A0004339A40D31707F059F8052247
:102F600000238018594100230A2207F051F803007A
:102F700006000F000B4318D1019D019A3033123522
:102F80009374049B002B0AD0002600272D23013DBB
:102F90002B703E4303D06549019805F069F8099903
:102FA0000198FFF711FD0BB0F0BD614B019C1B7840
:102FB0001334002B00D0AEE0059B002B21D0019DE7
:102FC000300039000A22002307F022F83032AA74B8
:102FD00000230A223000390007F01AF8019B013D56
:102FE0005B1B059ADBB206000F009A42E8D813007B
:102FF000013BDBB2DA43A218E41A531E2E22023C34
:103000001A70049A250094460124019B6344059399
:1030100033003B43B5D0059B9D4277D96B1E3000F2
:10302000390002930A22002306F0F2FF6B1E3032B1
:103030001A7030000A220023390006F0E9FF029AD4
:103040000F000599060023008A420BD955225242EF
:1030500054430133E4B2DBB2552C03D82021AA1E1D
:10306000029211701C00029DD2E763463340029326
:10307000FB0FDB07039315D5029A039B0120404207
:10308000C11712184B4110210123494211430291EB
:10309000012000215B420393029A039B12184B41CB
:1030A000029203936B461B7A5722092B00D8273ACA
:1030B0009B186246651E2B70FB171A400023069270
:1030C0000793069A079B92197B4110001900020989
:1030D0001B0713431E00089B0F119D420AD9059B35
:1030E00005995A1C0323D2B20B40059202D1A51EAA
:1030F00020332B7033003B4300D142E72C00019B6F
:10310000049A9B180893A342AFD32500049B002B7D
:1031100000D03BE73FE70F2305959C46EFE7C0460D
:10312000281B0010211B00104402001054B40000A2
:1031300043040010F0B52D4CA5B0200004F090FF22
:10314000002803D120002A4904F092FFFF247D22A9
:10315000002104A8039404F040FF2100002403ADE3
:103160008022280004F039FF23AB1C70214B1C7017
:10317000FFF700FE0094204F380004F071FF002894
:103180000BD12B78FF2B06D01C4B1D4A1B78290036
:10319000D05CFEF7D9F825B0F0BD3800FEF7E0FEB0
:1031A000009B5C1CFF2815D1009BE4B2DB43E318B5
:1031B000DBB23800019304F053FF019B661EF6B2A8
:1031C00083420AD2019BFB5C2E2B0AD1243BAB55D8
:1031D0000134E9E7009BE6B2E854FFF7CBFD009627
:1031E000C9E7303BDBB2092BF1D9F6E7D102001079
:1031F00058B4000053030010540300108C04001056
:10320000AB10001070B5054B054C1B78257823706A
:10321000FEF720FB2570FFF78DFF70BD8D040010B9
:103220008C040010F0B5BE4A85B01378002B09D08D
:1032300000230120BB490B70BB490B70BB490870D0
:10324000BB490B70BB4B1B78242B00D09AE0BA4DC6
:1032500000242B78012B06D1B84A1370FEF70AFF21
:103260002C7005B0F0BD022B00D086E0B44B2C7062
:103270001C70B44BB44D1B7814702A78002B2CD0E2
:10328000002A27D0B14C200004F0EAFEB04FB14E26
:10329000002809D0052033780422FB5C2100584324
:1032A000AD4B181804F078FE052133782000FB5C44
:1032B0005943A94B591804F0DBFE00232B70FEF78D
:1032C000D9FE2000FEF74CFEFDF718FA3070FEF72D
:1032D000C1FAC6E7FFF72EFFF9E7002A0FD09F4A91
:1032E0009F4912789948D2005218C15CD154062BDC
:1032F00002D001330029F8D100232B70B1E7994B9C
:103300001B780293002B04D0FFF714FFFEF778FE22
:10331000A7E7954B1B78002BA3D0944BFF261C7876
:103320002000FDF759FC01340500E0B2FDF754FC24
:103330000400FDF767FC854F0190380004F090FE13
:10334000631B0393019B06401A1B611E0132A819DF
:1033500004F065FEFF230398854A1840019B801BFB
:103360009A1A121A181A0299013004F036FE320025
:103370003900280004F010FE73E702232B707D4B08
:103380001C706EE7232B11D16B4D2C78002C06D0CE
:10339000794E03213078013006F0F6FD3170013CA2
:1033A000631E9C41734B2C70002233E0252B0AD105
:1033B000614A1178012914D1002364496F481370C0
:1033C00004F056FE4DE7262B0BD15B4A11780129FC
:1033D00007D1002469495D48147004F049FE684B28
:1033E000CEE7604A1278002A16D0262B14D1654BFE
:1033F0001A78654B1A70654B1A78654B1A70574BE3
:103400001A78644B1A7000234B4A13704C4A13709D
:103410000122614B1A7024E757490978002948D1E5
:10342000454C2178122B09D1002937D1002A4BD0E5
:10343000FFF780FEFEF7E4FD414BB5E7182B04D102
:1034400000292BD1FDF750F90BE7192B04D10029E6
:1034500024D1FEF79DFF04E71D2B0AD100291DD1C1
:10346000FDF742F9FDF740F9FDF73EF9FDF73CF9AC
:10347000E8E71E2B0AD1002910D1FEF789FFFEF7DD
:1034800087FFFEF785FFFEF783FFE2E7212B05D1DB
:10349000022900D0BDE0FDF719F9E2E627224A43F0
:1034A0009B183E4ADBB2D05CFFF730FB0023237051
:1034B000D7E6012900D0D5E0002B0DD1234804F038
:1034C000CFFD7F2800D9CCE620202D4B19784A1C4F
:1034D0001A70FFF707FBC4E6012B02D10722304B1D
:1034E00098E7022B07D12F4A1378182B00D9B8E69A
:1034F00001331370B5E6032B56D10422002429486A
:103500000378182B02D80C000133DBB2013AD2B297
:10351000002AF6D1002C00D1A3E60370A1E6C04634
:1035200035040010B00300104F0200104D040010CD
:103530007004001062040010400400103B040010EE
:103540003F0400104A0400103E040010D102001095
:10355000AB1000108C040010900C0010C014001070
:10356000B5110010510400105C040010201500106B
:1035700036000010440400106104001075010010B2
:1035800052030010C21400107E110010C31400106A
:103590007F1100107D11001054040010AAD100000A
:1035A0006A0100106C010010042B06D1454A137803
:1035B000002B00D155E6013B9BE7062B05D1414A84
:1035C0001378062B00D94CE692E7072B01D13D4B2F
:1035D000EAE6082B01D13C4AE9E7092B12D1042283
:1035E0000020012438490B78002B02D02000013B39
:1035F000DBB2013AD2B2002AF6D1002800D130E67F
:103600000B702EE6212B07D1304B1B78022B00D1FB
:1036100041E7FDF7BBFC24E6122B04D12C4B002A1A
:1036200000D1F7E604E7182B00D10BE7192B00D1E6
:103630000FE71D2B00D113E71E2B00D11DE72548F6
:1036400004F00EFD7F2800D90BE61F4B18781D4BA8
:10365000C0001B782033C018C0B21F4B19784A1C19
:103660001A7036E7022900D0FBE50D2B04D11B4A66
:10367000137859424B413CE70E2BC5D0212B10D17A
:10368000124A1278022A00D105E7154AD05C134B82
:103690001B78002BE1D00300613B192BDDD82038CB
:1036A000DAE70A2B00D1CDE60C2B00D1D1E60B2BAB
:1036B00000D1D5E6032B00D1DFE6122BE5D1002A9D
:1036C000E3D0B5E66A0100106C0100104004001060
:1036D0003F040010D102001052030010320000100D
:1036E000FCD9000010B5FEF7C5FC0B490B4804F0EF
:1036F000BFFC002420000134E4B2FEF79FFCFFF77A
:1037000019FD202CF6D10022054B013CE4B21A70C1
:103710000833002CF9D110BD58B40000D1020010BC
:10372000B511001010B5FEF7E5FD03F0EDFD03F057
:1037300006FB0020012104F051F9002003F0F8FB02
:10374000002802D1012104F049F903F049FB10BD22
:10375000F8B572B6B120FDF7C9FB0020FDF7C6FB36
:103760001020FDF7C3FBE020FDF7C0FB0024144D43
:1037700001222E5D0021022003F082FF013430007F
:10378000FDF796FB842CF2D1B020FDF7AFFB0020B3
:10379000FDF7ACFB1020FDF7A9FB8426E020FDF728
:1037A000A5FB76002F5D01220021022003F068FFB7
:1037B00001343800FDF77CFBB442F3D162B6F8BDAA
:1037C000B8130010F0B5AE4BADB01C78002C01D092
:1037D00001F09EF984222100AA48520004F0FDFB6A
:1037E000A94BAA4D1E782C70002E00D1C5E0A84B25
:1037F0001B78042B71D1A74BA7481B78002B00D155
:10380000A64800220321FCF729FE09AC042220214E
:10381000200004F0E2FB0023A14A2371A14B12789F
:103820001B7801251343A04A1278134314D19F4BF0
:103830001B78002B03D09E4B1B78002B0CD09D4B8C
:103840001D789D4B1B781D439C4B1B781D439C4B47
:103850001B781D436B1E9D4103F024FCAF231B010D
:10386000984200DB9748984B984200DA1800974B33
:10387000AF21C0180A238900584306F09FFA2C2371
:103880000026C0B25B424008181A804BE0701B78DB
:103890000093B3420DD008AF38000BA9FDF7CCFB65
:1038A00006AB1B7D20000093F97806AB5E7DFCF72C
:1038B00045FE874F3B78002B05D0864B1B78002BAD
:1038C00001D04033A370844B1B78002B01D100F052
:1038D000EEFF6533A37001F027F8052B0FD10BA97C
:1038E00009A8FDF7A9FB06AB187D032223002100E0
:1038F000FCF7ACFE06AB587D2300152205E0072B34
:1039000007D1764B0322187823002100FCF79EFE96
:103910007BE7082B24D10BA909A8FDF78DFB06AB8B
:103920009889032223002100FCF790FE06AB987BC8
:10393000152223002100FCF789FE06AB2722210077
:10394000D87B2300FCF782FE09A803F05FFD072166
:1039500006F01AFB62488B0022003921185852E702
:10396000092B00D051E75F4B032218782100230078
:10397000FCF76CFE5C4B1878BEE75C4B1C78002CA7
:1039800025D05B4B05241B785A4D0093009A5A4B67
:10399000944663440293013B18783200604303214C
:1039A0004019FCF75BFD0223544F009A3B70524BC9
:1039B0001E21985C320060434019FCF74FFD012244
:1039C000029B512158783A70604340191BE7384BED
:1039D0004B4A1B781278134300D19DE0494F7F205A
:1039E0003978FFF77FF83D78474E103DEB433000C4
:1039F000DB171D4004F034FB7D22009021000CA851
:103A00000B9404F0EAFA009A112A00D911227119D4
:103A10000BA804F0C1FA002203210BA8FCF71EFD3D
:103A200030003978FDF7A4FA384B1B78012B0AD007
:103A3000334B1B78002B00D1E7E601220321002045
:103A4000FDF792FEE1E63225314B0122187829007C
:103A5000C00020302018C0B2FCF798FC2D4B1B781A
:103A6000A34206D10635EDB2012229007F20FCF7E2
:103A70008DFC01340635E4B2EDB2082CE4D1D7E771
:103A800055040010B8130010450400104B0400103A
:103A9000C11400102700001046B900005CB40000FB
:103AA0003604001039040010490400105C040010B2
:103AB0003F04001032040010500400103A040010BB
:103AC0005B040010EF0A000034080000CCF7FFFF91
:103AD000340400108803001040040010330000106C
:103AE000D4BF0000581C0010390100103B04001026
:103AF0004C020010900C0010AB10001025000010BC
:103B00003504001052030010D102001061040010AF
:103B10006C0100106A010010D64BD7481C78002CAD
:103B200000D08DE2D54B1B78002B6CD0D44BD54DFB
:103B30001E685F682A686B683000390004F010FF67
:103B400002000B003000390005F06CF80022CE4B6B
:103B500006F034FC06F0AEFACC4ECD4FC3B2029361
:103B60003268736800920193009801993A687B6803
:103B700004F0F6FE02000B000098019905F052F8DF
:103B80000022C44B06F01AFC02000B000020C149C1
:103B900006F080FE06F08EFAC3B202223068716829
:103BA00000932300FDF7D0FD3868796823003222A6
:103BB000FDF7CAFDB24B0222186859680123FDF7D0
:103BC000C3FD2868696801233222FDF7BDFD0F2778
:103BD0002500B14B6235E15CEDB2791A2800C9B21B
:103BE000FCF796FC013428000099FCF791FC202C8E
:103BF000EED1FF210298A94A6230C0B21318843373
:103C00001970115401E6A64B1B78002B00D191E0EE
:103C1000A44E3478002C49D0A34B1B781D001C1EE9
:103C200018D0A24A013BDB00D3181D685C68002253
:103C300000232800210006F0C3F9002802D08023C9
:103C40001B06E418002200232800210006F0CCF90E
:103C5000002812D12800210006F04AFA012303228D
:103C6000FCF7F4FC00233370CFE52800210000228C
:103C70008F4B04F029FF05000C00280021008D4A1D
:103C80008D4B06F09DF90028EFD1280021008B4ACA
:103C90008B4B06F0B3F90028DCD02800210000226D
:103CA000834B04F0BFFF05000C00EEE7854B1B784B
:103CB000002B12D0012203212000FDF755FD012227
:103CC00038211000FDF750FD220003210220FDF7EE
:103CD0004BFD220038210320B2E67B4B7B481B784A
:103CE000002B13D002227A4B1A7004F0B9F9002885
:103CF00007D009210020FDF705F90122744B1A7045
:103D000083E502000321FDF72FFDF6E704F0A8F993
:103D1000041E07D011210120FDF7F4F80022032131
:103D200010008DE601220321FDF71EFD2200032174
:103D3000012085E6674B1B78002B2DD0664D2800AF
:103D400004F08EF90400112800D91124290000255F
:103D50000BAE2200300004F01FF92A0003213000CE
:103D60003555FCF77BFB05205C4B01221C785C4B36
:103D700003211B5D58435B4BC018FCF76FFB01230D
:103D80003F2220002900FCF761FC574B572218788E
:103D900001230138C117B9E5544B1B78002B38D0EB
:103DA000534B1C78534B1B78002B0AD00223484DF1
:103DB00000220E2120002B70FDF708FD01232B703F
:103DC00023E54D4B1B78002B03D0032C01D9043C79
:103DD000E4B24A4B1B78002B03D0002C01D0013CED
:103DE000E4B2200000220621FDF7F0FC601C002256
:103DF0003B21C0B2FDF7EAFC201D01220621C0B222
:103E00000534FDF7E3FC01223B21E0B2FDF7DEFCC7
:103E1000FBE43B4B1B78002B12D002232C4D0322DA
:103E20002B70384B1C780023601C1900FCF70EFC2B
:103E3000354BA40000221B21E058FCF70FFBBDE727
:103E4000324B1C78002C00D17EE0204804F008F9A9
:103E50002F4C011E5ED012210120FDF753F821786E
:103E6000002900D1D1E400220139C9B20BA8FFF723
:103E700045F8CAE45704001072B400004E04001064
:103E8000780400108004001000004040A8110010C9
:103E9000A01100100000304080110010B813001075
:103EA00034040010580400104F020010500200109B
:103EB000000024400000901EC4BCD64200003426FE
:103EC000F56B0C433304001026000010B003001003
:103ED000250000104A040010D10200108C040010CC
:103EE000AB100010900C0010AA100010510400102C
:103EF000C014001052040010C3140010C2140010AB
:103F00003D040010D002001014C000005F04001037
:103F1000221B00102378012B0BD9023BDBB20200DD
:103F200019000BA8FEF7EAFF21780139C9B2012276
:103F30009CE7002BFBD1E2490BA804F099F8012182
:103F40000BA8FEF741FD60E4DE4B1E78002E4BD03F
:103F5000DD4B220019786D20FCF71CFEDB4B0122A3
:103F60001978AA20FCF716FE220044216120FCF7F4
:103F70000DFAD74B220018784A21FCF7A5FA220047
:103F800059217220FCF702FAD24B220018785F21E7
:103F9000FCF79AFA01224421B220FCF7F7F9CE4B44
:103FA00001221D784A212800FCF78EFA01235922AC
:103FB00028002100FCF74AFB1F2D04D901226E21A5
:103FC0002800FCF7E3F9C54B1B78002B00D11CE45B
:103FD000C34B1A78002A01D0FFF717FC44213F2079
:103FE000FCF7D4F9FFF711FCBE4B1C78002C5AD01B
:103FF000BD4B1C78BD4B1B781C434AD00BAC182220
:104000002021200003F0E9FFB94909AD062228006C
:104010002676023103F0C0FF3300B648002206E0E6
:10402000E95C890061188E540132042A02D0865C52
:104030000A2EF5D101300133FF30062BEED12000DE
:10404000FCF7B6FFFFF7E1FB7D19EEB23000FCF79D
:10405000C3FD01360500F0B2FCF7BEFD401B013880
:10406000132800DD1320FF230BAE03401A002900A4
:104070003000009303F090FF0023009A0321B35413
:1040800030003A00FCF7EAF9012C01D1FFF7BDFB43
:104090000124994BE7B21D782E19FCF7C1FD864229
:1040A000D2DBFFF7B2FB954B1B78002B00D18BE0E6
:1040B0000522934909A803F06FFF142220210BA8C1
:1040C00003F08BFF282206AB9B181C708D4B8E4C87
:1040D0001B78002B00D18D4C200003F0C1FF210084
:1040E00002000BA803F058FF894B8A4C1B7806AAE4
:1040F0007F3B93772378884A013B9B009D5828009B
:1041000003F0AEFF290002000EA803F045FF834F25
:1041100009A83B683A68DB17FCF72AFA102209A9BC
:104120000BA8FCF7B6FF002203210BA8FCF796F9B9
:104130003B68207899B2FEF70FFC1422060020217C
:104140000BA803F04AFF2822002506AB9B181D7020
:104150000222202109A803F040FF002306AA93733E
:1041600013005F225A736A4BECB21B78002B1BD1F1
:10417000B44205D3A11B0131C9B209A8FCF7DEF98D
:1041800009A803F06DFF03240200200068430BAB75
:10419000181809A9013503F0FFFE072DD8D1012217
:1041A00021000BA8FFF72FFB0722534301339B1B72
:1041B000E4183B68E4B299B2564B1878FDF7EAFF71
:1041C0008442DDD82100D8E7554B1C78002C4ED016
:1041D00008A907A8FCF730FF06AB5C7A0622514914
:1041E0000BA81F7A03F0D8FE20000A2105F0E2FD9B
:1041F0003031CBB220000A21009305F055FD0A2191
:10420000C0B205F0D7FD09243031CBB2464E02933F
:104210000BA909A803F02CFF434B35781B78FB1A38
:10422000EB18D9B25AB21B061DD51831C9B209A86C
:10423000FCF784F9009A06AB1A74029AAD00DA739F
:104240003A4B2100E8580022FCF708F9A11F24345A
:104250000122C9B209A8E4B2FCF700F90136752CB5
:10426000D6D1FFF7D2FA172AE1DD1839DEE7304B55
:104270001E78002E6AD002222E4B21001A702E4B7F
:10428000013218782300FCF7E1F92C4B5D221878F5
:1042900021002300FCF7DAF9294B1B78002B00D111
:1042A0002BE5284B2100187821222300FCF7CEF9BA
:1042B000254B3F22187821002300FCF7C7F91CE5A5
:1042C0008BB4000036040010370200103A020010D0
:1042D00048010010B111001038020010370400101E
:1042E000380400105C04001056040010480400104C
:1042F0001BBC00002115001020150010390400100F
:10430000E2B400004C04001060B4000069B4000086
:104310003C0200103B0200106CD200004002001072
:104320005D040010E7B4000036010010C4DC00009A
:1043300049040010250000108804001089040010B2
:10434000300000108A0400108B040010E44B1B782E
:10435000002B2FD0112231000CA80B9603F03DFE4C
:10436000E04D03222878330000210130FCF76EF97C
:10437000FCF768FCDC4B0BAC8000C158200003F05C
:1043800077FEDA49200007F03BF82B78D84ADB00AB
:104390009958200007F034F82B780F212675082B48
:1043A00000D9063100222000FCF758F8FCF760FC29
:1043B000FFF72BFACF4B1C78002C00D19FE00BAC01
:1043C000210009A8FCF738FE23780824092B00D91E
:1043D0000234C94B00251B780093C84B1B7804930B
:1043E000009B072B06D80A20C54B009A9D5C049BB6
:1043F0005D434543C34BFA261B68B6000293C24B8C
:104400001B680393C14B039A1F68029B3900981ADB
:10441000C343DB171840704305F0D0FCBC4B05903C
:1044200018682100704305F0C9FC059B002218188C
:10443000441BE343DB171C40B64BB74D1C60B74B26
:1044400003211B68E42073432B60FBF79FFF029B53
:104450000922D91702980023FCF7F8F800221B2143
:10446000AA20FBF793FF039B2122D917039800236F
:10447000FCF7ECF800223321A820FBF787FF00238C
:1044800039223800F917FCF7E1F800224B21B4205B
:10449000FBF77CFF0023512219000498FCF7D6F8A3
:1044A0000023632219000098FCF7D0F8002269214C
:1044B0006820FBF76BFFFCF7DBFB01224B21B220EE
:1044C000FBF764FF6421200005F078FCC11704F0BD
:1044D000BDFE0022924B04F0A5FB01235122FDF703
:1044E00033F901226921E120FBF750FF31002868F0
:1044F00005F064FC01236F22C117FFF707FA894B0F
:104500001B78002B2CD0884B22001D78032102350C
:104510002D01EDB22800FBF7D7FF0123032228006D
:104520002100FCF793F85A22FE21804803F055FD44
:1045300006273E00200066431B36F6B28038002274
:104540003100C0B2FBF722FF2819013401223100EB
:10455000C0B2E4B2FBF71AFF102CEAD1FFF755F90D
:10456000734B1B78002B00D194E0724B03221E7812
:104570000023701C1900FCF769F80F25082E03D9D9
:104580000635622E00D906356B4C33011E5B0022C6
:10459000300A29000093FBF7F9FEF0B20022A91DB2
:1045A000FBF7F4FE009B0720E3185F882A00002336
:1045B000384019001232FCF749F800232A002E0077
:1045C0003F06FF0E380019001E32FCF73FF8303668
:1045D000092F01D82A352E00009B3200E518002350
:1045E000E87B1900FCF732F8686806F04BFD002202
:1045F000524B04F017FB32000C320023D2B2FDF70D
:10460000A3F84C4B03221B7800211B010093E318F5
:104610005D8901232800FCF719F81526632D05D9BB
:10462000FA2306369B009D4200D30636009B3200DB
:10463000E3189F89002101233800FCF707F8632F56
:1046400020D835001235009BE318987B06F01AFD40
:104650000022334B04F0E6FA2A000123FDF774F838
:10466000344B15351B781B01E418208906F00AFD30
:104670000022334B04F0D6FA0123EAB2FDF764F8C6
:10468000FFF7C3F8FA2335009B001E359F42DAD2AC
:10469000063DD8E72B4B1B78002B59D02A4B032221
:1046A0001878002301301900FBF7D0FF274C642055
:1046B0002378002B00D15C3000221521FBF766FE29
:1046C000002221210120FDF78BFD207801224342A9
:1046D000584103210230FDF783FDFFF796F8C046ED
:1046E000420400108C03001064BD0000E5B400001B
:1046F000ECC500005B04001094030010640400107B
:1047000063D200001C000010200000102C000010DC
:104710007001001098030010480200109003001070
:1047200000002440320400106B010010D31300106D
:1047300050040010B01100109CD2000000408F40C7
:10474000000059403A0400104D02001028000010EB
:104750005B4A1278002A0CD15A4B5B481B78012B1C
:1047600003D05A48022B00D05948FCF721FCFFF730
:1047700025FB1D000024574FFA1894465A1ED2B24A
:104780000392624601201278511E88402D18ADB266
:104790002000012B02D90821081BC0B24E4EC000D8
:1047A000D200C11C92190B3000920290039E00208F
:1047B000012E00D98430494E7218009E013136789E
:1047C0001654009A0298013200928142EED10422DE
:1047D0000134E4B294449442D3D101339342C9D119
:1047E0000023502219002800FBF730FF3C4B1A88A9
:1047F000AA4200D21D801888502201230021FBF715
:1048000025FF3800230001220021455C002D4AD0FD
:1048100001310429F9D1013BDBB20430002BF3D183
:10482000002A01D1FEF7F1FF04252100F81AEE1A43
:104830000578AC461D18AD5DAC4536D00139C9B21E
:1048400001300029F4D1043B19000C31ECD1002ACD
:1048500001D1FEF7DAFF79783B788B4205D0BB783F
:10486000994202D0F978994200D10022013CE4B289
:104870000437002CEFD1002A01D1FEF7C6FF182221
:104880002100184803F0A9FB18222100164803F064
:10489000A4FB220003211548FBF7E0FD01220321C0
:1048A0001348FEF7B0FF2A00B5E70022CBE7114B13
:1048B0001B78002B20D05B012833FFF70BF8C04694
:1048C000410400104004001097B40000B0B4000090
:1048D000C9B400007503001059C10000B8130010DE
:1048E00086030010BB1300103F1400108DB40000AD
:1048F00092B4000044040010904B1B78002B00D1B0
:104900000BE18F4A0BAB0B92B5225A7030329A7082
:104910008C4A12789B5CA370022A05D18A4B1B78C3
:10492000002B01D0B4236370884B1B88002B05D16A
:10493000874B884A1B781278134301D0E223A37077
:10494000854B1B78002B01D0DA23A370834B1B7897
:10495000002B0AD103206B4218407F212018002D24
:1049600000D112390022FBF779FD0422202120001A
:1049700003F033FB00232371794B1B78002B13D0FA
:1049800020000099FBF7DAFD0A21300005F012FA49
:104990003031E17030000A2105F086F90A21C0B2F9
:1049A00005F008FA3031A1706E4B1B78002B1AD03D
:1049B0006D4B0A211E78300005F0FCF93031A170F2
:1049C00030000A2105F070F90A2180B205F0F2F9F1
:1049D00030316170632E00D8A9E06421300005F009
:1049E00063F930302070614B1B78002B0FD0FBF740
:1049F000BFFE64235843C0120A21053005F0DEF9DA
:104A0000C0B221230A2801D83030C3B2E370584B1A
:104A10001B78002B0ED0FCF7F5F8564BFF21C31A7C
:104A20006420584305F0CAF90A21053005F0C6F99B
:104A30003030E070504B3A781B78134312D04F4B14
:104A40001B78002B06D04E4B19788A23002900D101
:104A50006233E370002A05D04A4B1B78002B01D04B
:104A60004323E370484B1E78002E06D00D20474BA1
:104A7000197806ABC018FBF7FBFE384B1B78002BF0
:104A80000AD103206B4218407F212018002D00D14D
:104A900012390122FBF7E2FC002E14D00123012081
:104AA0005B420B93394B0BAD1C78A3089840C04375
:104AB000C0B2FBF757FC03231C40285504222900F1
:104AC000334803F069FA334B1B78002B20D0324B6C
:104AD0007F211A78314B12019B180BA812225C8897
:104AE00003F07BFA072301202340984003000220B3
:104AF00040425840C0B2FBF735FC24060BABE40E35
:104B00001C19013C207012221900254803F044FAB8
:104B1000FEF71EFE00202DB0F0BD174B1B78002BBA
:104B200000D101E71F4B1B783033FEF7D3FE202363
:104B30002370092E00D956E7637054E73F04001034
:104B40003163710061040010320000108E0C0010FF
:104B50005304001038040010540400104E040010D8
:104B60004B0400103B0400104C0200104A040010DB
:104B70005C040010360000105F04001043040010B5
:104B8000310400103304001051040010C014001050
:104B9000BB14001050040010B01100109CD2000093
:104BA000AE140010211B0010F0B587B003F08AFA94
:104BB00002F07EF90021DD4802F084FD0021DC488E
:104BC00002F080FD02F0DFF901220421002002F052
:104BD0000BFD00220421100002F052FD01220521EC
:104BE000002002F001FD00220521100002F048FD26
:104BF000002002F03DFCCF4C00212000CE4A03F003
:104C0000ECF9E1222000CD49920003F0C5F9B4226D
:104C1000CB4BCC4C1A70802200211201200003F0F3
:104C2000DCF9C94AC949200003F0B6F940221F2126
:104C3000C74803F0D2F9FCF71FFA83B203930023AD
:104C4000C44C02932378002B02D0FEF7BBFD2070EA
:104C5000C14B1E88002E00D1E6E0701C80B2188087
:104C6000B84B9D5DFF2D00D0C0E0BC4B1A78002AE8
:104C700000D18BE0FBF71AFDB74B1880B84B1B78BF
:104C8000002B01D0FDF71CF9012002F051F900289A
:104C90000ED00023B14A1370AF4A1380B14A13708B
:104CA000B14A1370B14A1370B14A1370FDF722FB79
:104CB000FF23B04A1370FCF7DFF9039BAE4DC01A17
:104CC0002B78984202DD2223AA4A1370A94B1B7845
:104CD000FF2B00D1C5E3029A934200D1C1E3A74E56
:104CE0003378002B44D00124A54A2100136820000A
:104CF00023431360A34A022713682343136022004F
:104D000002F072FC22000221200002F06DFC002261
:104D10002100200002F0B4FC22000221200002F059
:104D2000AFFC200002F09AFE22002100200002F0D9
:104D3000A7FC20000022022102F0A2FC200002F0C9
:104D40008DFE012F00D056E33A003900380002F002
:104D500097FC3A000221380002F092FC0022390050
:104D6000380002F041FC00220221380002F03CFC35
:104D7000804B1C78222C00D03FE3FF237D4A137028
:104D8000FEF7D0FC0122734B1A7061E3754B1B7860
:104D9000002B11D0704B1A80FDF792F87A4B1C78DB
:104DA0007A4B1B78E41AFBF761FC013CE300784C7A
:104DB000E4182060616067E7674A13806A4B6C4AB9
:104DC0001B7812781343694A12781343714A127898
:104DD0001343714A12781343704A1278134300D078
:104DE00052E701332370FDF785FA4DE7362D13D8CE
:104DF0000A2D03D9182D01D0FDF762F8684BAD00DC
:104E0000EB589847674B1B78002B01D1664A13700B
:104E10000022664B1A7037E7FBF73CFC2800FBF7D3
:104E200095FC4D4B18802FE7514B1B780193002BBD
:104E300054D05F4F3B780133DBB23B70022B0DD86F
:104E400007D1FCF719FA5B485B49FCF73BF9FDF722
:104E500085FB5A4B1B88404A13802CE7FCF70CFA61
:104E6000FDF7AEFB00205649FCF72CF9FDF776FB69
:104E700050485149FCF726F9FCF7FEF9FDF7A0FB75
:104E8000FBF7F4FBFCF71EF90D000190FDF718FC91
:104E900000220023290001983E7005F091F80028B7
:104EA00002D080231B06ED182900424A424B01988C
:104EB00005F086F8002803D1424D2B78142B05D934
:104EC0000123237000232A4A1370C4E7FCF714FA65
:104ED000FCF712FA2B7801332B70ECE6234B1F788A
:104EE000002F00D1CEE0324B314A1B781A490133F2
:104EF000DBB21370314A12880A80012B00D1DAE646
:104F0000314C26686768022B62D1FBF7AFFB0B00C0
:104F100002003900300003F029FD2C4B2060616055
:104F200018685968FCF7CEF8C5E6C04698400440BA
:104F30009C400440900C00101A04000026CE000093
:104F4000AA1000108E04001074050000B2C8000002
:104F5000F7010010310000108E0C00104901001004
:104F600051040010530400104D04001046040010BA
:104F70005A040010620400103300001027000010D3
:104F80007C40044080400440B3110010B411001074
:104F9000B8120010590400104F0400103C04001017
:104FA00098BD0000350400104004001033040010C8
:104FB000B5120010FCA9F1D24D62503F8A030010D7
:104FC0000000F0BF63040010A80300107804001074
:104FD000D44D032B11D1FBF749FB02000B0030002D
:104FE000390003F0C3FC2A686B6820606160CE4919
:104FF0000868496803F0BAFC94E7162B2BD8002404
:10500000DB0726D58025ED05FBF730FB02000B0002
:105010002000290003F058FD0B0002003900300089
:1050200003F0A4FCC14B18605960BF4B1C685D685D
:10503000BC4B1E685F68BE4B1878023805F0F2FF63
:1050400032003B0003F040FD02000B00200029006D
:10505000D0E7B84DD8E7FBF709FB2A686B6830004A
:10506000390003F031FD0022B34B03F0DBFDFCF708
:1050700029F80122B14B1A70B14B019A1A70B14B49
:105080001A8018E6B04B1A78002A6ED0A84AAD49AB
:1050900013780133DBB21370AC4A12880A80012BFB
:1050A00000D108E6A14E34687568022B13D1FBF7D6
:1050B000DDFA02000B002000290003F057FCA44C8D
:1050C0003060716020686168A24AA34B03F04EFC17
:1050D0002060616026E7032B22D1FBF7C7FA0200AC
:1050E0000B0000209D4903F0EFFC02000B002000A4
:1050F000290003F035FC306071608021944E954AA0
:10510000954B002034687568C90503F0DDFC02008A
:105110000B002000290003F029FC3060716001E7DA
:10512000042B08D1FBF7A2FA02000B0000208B49E8
:1051300003F0CAFCBDE7FBF799FA02000B00200060
:10514000290003F00DFC0022854B03F06BFD814A22
:10515000814B03F067FDFBF7B5FF0122774B1A7017
:10516000794B1F70774B1F80A5E57E4B197800297E
:1051700000D18CE06E4D73482E780136F1B201916A
:10518000297072490988018077490878002845D13B
:10519000019B012B00D18EE5634B1E685F68019B6C
:1051A000022B0AD1FBF762FA704B18605960704B02
:1051B0001860596030003900B4E6019B222B29D8D1
:1051C000FBF754FA0D000B0069490400020008685F
:1051D000496804F009FF002802D0654B1C605D603F
:1051E00062492200086849682B0004F0E9FE0028A3
:1051F00002D05E4B1C605D600198023805F012FF22
:10520000484B1A685B6805F0D9F802000B003000C3
:105210003900EFE6012328700B70CBE701990129D3
:1052200000D148E521292ED8514C26686768FBF744
:105230001DFA02000B003000390003F091FB4B4BCC
:1052400006001A685B680F002068616803F088FB3D
:1052500002000B003000390003F0E4FC2B78454CD1
:1052600000220193E418444B05F0A8F804F022FF53
:105270002D4B023C20701C685D682A4B1E685F68DD
:10528000019B581EDAE601211A70217013E53B4A92
:105290001378002B10D03A490B78581E0870002B59
:1052A00006D0384B1878FBF751FA264B188002E5E8
:1052B000137001232370FEE4334E3578002D19D08E
:1052C000FDF758FD314D280002F0CAFE00280BD032
:1052D0002800FCF745FE03000B3BDBB2F32BE2D9C1
:1052E0002800FCF785FDE6E4294B30701870FDF7C7
:1052F00001F8DEE7274E3378002B53D0264F274B9B
:105300003C781D702000FBF721FA0E4B0134188009
:10531000234BE4B21B783C70A34200D3CBE435703E
:10532000C9E4C046A003001078040010A8030010D0
:10533000B5120010000010400000084031000010BD
:10534000460400108E0C0010590400108A0300104F
:10535000C8140010FCA9F1D24D62503F000020405B
:10536000000028404F04001063040010A01100103A
:10537000A81100108011001000002E403C04001005
:105380004E020010650400104D040010540300107C
:105390005303001053040010B31100104F0200100B
:1053A000B2110010B54C2378402B18D0B44A1370BA
:1053B0005A1C2270B34AD05CB34B1870FBF79AFBAF
:1053C000B24B8000C3589847012001F0B1FD00287E
:1053D00000D170E440232370FCF78CFF6BE40A20BB
:1053E000AB4B03211B78584302F0F8FAFCF744FF5B
:1053F000A84B18705FE4270089E4A74A11780029B8
:1054000000D1D9E0242C04D10023A4490B701370DF
:105410001EE0A34B1B78042B04D133785A4253412E
:10542000337015E0052B37D105AC210004A8FBF73C
:1054300003FE984B1B78132B17D12378172B01D819
:105440000133DBB223700022210004A801F0AEFF7B
:10545000944B1B78002B00D195E1FBF70DFE83B236
:1054600003938C4B1B78FFF7EBFB182B04D12378AD
:10547000002BE7D0013BE4E7142B06D163783B2BEC
:1054800001D80133DBB26370DDE7192BDBD1637820
:10549000002BF8D0013BF5E7072B29D1132C06D1BF
:1054A0002B78EF2B01D80133DBB22B70D0E7182C0F
:1054B00004D12B78052BF8D9013BF5E7142C0AD140
:1054C00005222B78EF2B01D80133DBB2013AD2B29F
:1054D000002AF7D1E9E7192CBAD105222B78052B40
:1054E00001D9013BDBB2013AD2B2002AF7D1DCE7A5
:1054F000082B40D105A904A8FBF79EFD654B1B783E
:10550000132B0AD104AB1B88622B01D801339BB249
:1055100004AA1380002205A997E7182B05D104AB34
:105520001B88002BF4D0013BF1E7142B08D104AB0E
:105530009B780B2B01D80133DBB204AA9370E9E707
:10554000192B05D104AB9B78002BF6D0013BF3E778
:10555000152B08D104ABDB781E2B01D80133DBB24D
:1055600004AAD370D6E71A2BD4D104ABDB78002B76
:10557000F6D0013BF3E7092B00D069E7132C06D1E5
:10558000494A13783E2B0BD80133DBB208E0464A78
:10559000182C0CD0142C07D1444A1378062BF3D9BD
:1055A000137001F0F7FB53E7192CFAD13F4A137837
:1055B000002BF5D0013BE8E7384B1B78002B12D0CD
:1055C000242C02D1354B197042E7062C03D1384BFD
:1055D000384A1A603CE7231F052B00D938E7304BC7
:1055E0001C70012313E7344D2A78002A00D1B8E05B
:1055F000242C02D12B70FFF7C5FB012C06D12F4BB9
:105600001B78013B2E4A1370FFF7BCFB04222100DC
:105610009143022909D12A4C284B2078197801306E
:1056200004F0B2FC2170FFF7ADFB072CEAD0032C8D
:1056300010D1234D214B28781E78073431000130DA
:1056400004F0A2FC013CE4B2C8B2002CF6D12870F0
:10565000FFF798FB231F9343DBB2002B03D1FBF72B
:10566000E7F8FFF78FFB092C2CD10134013CE4B2A1
:10567000FBF7DEF8002CF9D1FFF784FB24000010C3
:105680003A020010F7010010F601001074BE00008D
:10569000330000106204001045040010570400108D
:1056A000C114001035040010581C001039010010FE
:1056B0000CED00E00400FA053B040010AA100010F5
:1056C0004C020010052C01D0122C31D1BB4B1A78A2
:1056D000BB4B1B78134305D1BA4ABB491278895C8E
:1056E000BA4A1170BA4A1478002C0DD0B54BB64A9C
:1056F0001B78D05CFBF72AF8B64B1880FCF7FAFD54
:105700000023B54A137075E7B44A12781343F5D0F5
:10571000AC4BAD4A1B78D05CFDF7F8F90122B04BD9
:105720001C70B04B1C70B04B1A70B04B1C70E5E78E
:10573000132C08D1AE48FCF713FCFAF7DFFFA14B9E
:105740001870FFF71FFB2300143B082B01D9FFF74C
:1057500019FBA84B0A21187804F0A6FA133C604301
:10576000EDE7A54F954A3B781278134302D0FDF739
:1057700059FD6DE6A14A1678002E08D01370FAF78D
:1057800075FFFAF773FF01229D4B01F021FA904B50
:105790001A789C46002A00D189E08F4F3B78012B74
:1057A00001D001F06FFA1C2C01D001F05FFAFCF778
:1057B00087FB944A3E70137859424B41137047E679
:1057C000022300223B70904B1A70DCE78E4A232C98
:1057D00006D1013B591E8B413B7000231370D2E769
:1057E000192C0BD1012B03D1137000233B70CAE796
:1057F000022B03D1137000233B70C4E711780129F9
:1058000019D1002313701A2C05D14620FAF79EFFF8
:10581000704B1880B7E71B2C05D14820FAF796FF8C
:105820006C4B1880AFE71C2CADD14A20FAF78EFFE5
:10583000684B1880A7E7022919D1002313701A2C8E
:1058400005D14720FAF782FF624B18809BE71B2C9B
:1058500005D14920FAF77AFF5E4B188093E71C2C9C
:1058600091D14B20FAF772FF5A4B18808BE7182C16
:1058700009D1012B07D1654A137859424B41137066
:1058800000233B707FE727225343E418E4B2752CD2
:1058900000D978E70A2C03D9212C01D0FCF710FBA2
:1058A0005B4B185DFAF752FF4A4B1880D0E54B4B23
:1058B0001978002900D1FCE0242C01D11A7006E0EF
:1058C000012C07D14B4B534A1B78013B1370FBF75C
:1058D000C1FFBDE5022C08D14E4C464B207819780B
:1058E000013004F051FB2170F1E7032C0FD1494D39
:1058F000404B28781E7807343100013004F044FB17
:10590000013CE4B2C8B2002CF6D12870DFE7052CC8
:1059100001D00F2C04D101233B70FBF79BFFD6E78E
:105920000E2C03D101233C4A1370F5E7072C02D15A
:105930000022384BC2E7082C02D1FAF789FFC6E7EC
:10594000092C07D10134013CE4B2FAF781FF002CA5
:10595000F9D1BCE72648132C2AD02300143B082B8E
:1059600009D8244B0A21187804F09EF9133C6043AF
:10597000284B1870ABE70C2C56D11E4C2378D12B3A
:10598000A5D805205843254B254AC01805A90592DE
:1059900002F06EFBFAF7ECFE224B18182D23437031
:1059A000D2338370237801332370FCF763FB05A89F
:1059B000FCF7D6FAFAF7A2FEDAE7C0463504001083
:1059C000510400104C020010AB10001065040010D0
:1059D000340400108E0C0010400400104A04001023
:1059E000B00300104F0200104D04001070040010AE
:1059F000EDB40000AA1000103F0400104E04001087
:105A00003100001033040010440400102600001080
:105A1000AAD100008C0400103E040010900C00106D
:105A20004E4557008E0400100D2C36D1C84E3478E8
:105A30002000FAF763FEB42800D848E7C54D2B785C
:105A4000012B00D843E7C44B1F5D3800FAF77EFEF8
:105A50000400FAF767FE013083B20193FAF788FE7B
:105A6000019BC21ABD481918201802F095FA0521A9
:105A700008002A787843013AB94BD21B4A434118AF
:105A8000C918C01802F0CBFA2B78013B2B70337881
:105A9000013B3370FCF7EEFA19E7252C03D1AC4B30
:105AA0001A78B04B0AE7262C00D010E7FDF7AAFBC6
:105AB0000DE7AD4D2B78002B00D1E5E0242C02D171
:105AC00000232B705FE6232C05D1A84A1378594296
:105AD0004B41137057E6022C0AD10122A44B1A70D5
