:10000000F01F0010D99A0000D79A0000D79A00007C
:10001000D79A0000D79A0000D79A0000000000008D
:10002000000000000000000000000000D79A00005F
:10003000D79A000000000000D79A0000AD7B0000B6
:100040009179000091790000917900009179000088
:100050009179000091790000917900009179000078
:100060009179000091790000917900009179000068
:1000700091790000D59A0000D59A0000C1000000D7
:10008000497C0000617C0000797C0000917C0000CC
:10009000D59A0000057D0000D59A0000D59A000091
:1000A000D59A0000D59A0000D59A0000D59A000094
:1000B000D59A0000D59A0000D59A0000D59A000084
:1000C000594A10B5136801331360584B584A1B68DE
:1000D000DBB2302B00D176E018D8182B5AD005D8D7
:1000E000082B37D0102B46D0082351E0202B00D10D
:1000F0007AE0282BF8D14F4B4F491868096888429D
:1001000052D21968481C18604C4B48E0482B00D16B
:100110006AE00AD8382B60D0402BE5D1484B1968EB
:10012000042301295DD11360DEE7502B66D0582BE4
:10013000DAD14448444B1B680168DBB24C1C0460B4
:10014000424843540221424BFF3119608023F13968
:10015000DB0530E00021374B19601968481C186036
:10016000364B5B5C3849DBB20B60282313600122FD
:10017000374B1A6010BD0021324B19602D490B68B6
:10018000581C08602D49CB5C2F49DBB20B6028233B
:100190001360EFE727490B68581C086027495B5C30
:1001A0002949DBB20B609FE7254B19688023DB05EB
:1001B000002902D02021196096E702202449FF304F
:1001C00008601021F7E780231021DB051960082360
:1001D000136081221E4B5200CBE782211C4B490049
:1001E000E9E78021C905DDE780231021DB051960DF
:1001F000082313600422164BFF32BAE71149124B51
:100200001B680868DBB2441C0C60104C23540C4B78
:100210001B680868013B0421834202D98023DB0567
:10022000C9E7116060E7C0463C1E001004000040B2
:1002300018000040381E0010301E0010081E00106C
:100240001C1E0010341E001008000040201E00106C
:10025000181E001002231B4A70B511681A4D0B437B
:1002600013602023194A040011680B431360184BD4
:100270001A682A401A600122186810431860154B4A
:1002800019682940196019680A431A606C22124BD8
:1002900012491A60124B186809F0D2FC114B186011
:1002A000114B1860022C02D1A022104B1A60802240
:1002B0000F4B12021A6080234022DB0501201A60D6
:1002C00070BDC04604800440F8FCFFFF80800440FD
:1002D000304004403440044018000040400D03000A
:1002E000381C001014000040100000400C000040BA
:1002F00000E100E00000000000000000000000003D
:100300000122F8B508210600100007F08FFA072433
:10031000082700223900012007F088FA3200012561
:100320002241022100202A4007F080FA2A003900E9
:10033000280007F07BFA013CEBD2F8BD70470000C3
:1003400007490B889808DA0842405A40580950403B
:100350000122D3401040C003184308807047C046B4
:100360003400001003000520F0B5203B5843204B1B
:1003700000261F788423534385B002931D4BC31876
:100380000393039B985D0400002A01D04400E4B26B
:10039000194B05099C465D5D0F23184063461B5CA5
:1003A0002D021D432DB26B006D04280E01907818AC
:1003B000C0B28446DBB2614514D002980D180F48D4
:1003C0002D18002009E0022F03D1019C002800D144
:1003D0001C0001302C70C0B284358742F3D101314A
:1003E000C9B2E8E70136052ECBD105B0F0BDC04655
:1003F000260000105DBF000070BE000080130010DA
:10040000F8B504000D00160006272078002800D15A
:10041000F8BD29003200FFF7A5FF034B013419781E
:1004200079436D18EDB2F0E726000010F8B506002C
:100430000C0017003078002800D1F8BD0A4B1D7859
:100440002E280AD1641BE4B23A002100FFF78AFF8C
:10045000AD006419E4B20136ECE73A002100FFF781
:1004600081FF06235D43F4E7260000100F2313B538
:1004700003405724092B00D8273C1B196C46637195
:10048000572403099F2800D8273C68461B1903718D
:1004900001A8FFF7B5FF13BD03001A781900013357
:1004A000202AFAD00023CA5CC2540133002AFAD1B0
:1004B000704700008423CA085343181807231940C3
:1004C000063B8B40024A115C0B4313547047C046F5
:1004D0008013001070B50D0004000A21280009F0F7
:1004E000ABFB303120236170092D0AD90A21280085
:1004F00009F01CFB0A21C0B209F09EFB0B0030334F
:10050000DBB2237070BD0000F7B519001E4B04006C
:100510001B7810001027002B00D1063F0023019309
:10052000994206DA0B000200002150429941012352
:10053000019325003A000023009509F0ABFC8C469E
:10054000D1B203005720092900D82738091800988C
:100550006A1C01706146180015000B43EAD1019B2B
:10056000002B03D02D231370009A02320021531E5A
:100570001170A34200D8F7BD1A782178013B597059
:1005800022700134F5E7C0460B040010F7B51022C5
:10059000134B05001B780192002B01D10A33019304
:1005A000002000212B78002B01D103B0F0BD1C00EE
:1005B000303CE4B2092C06D91A00613A1C00052A25
:1005C00001D8573CE4B202000B000198002109F069
:1005D00085FC26000027013580197941E2E7C046F5
:1005E0000B04001030B514001D0087B00B00020092
:1005F00001A8FFF789FF2A00210001A8FFF700FFEB
:1006000007B030BDF0B587B00400019103AE0028FB
:100610000AD13023012533702B00019A002B19D108
:10062000019B581907B0F0BD00250A2720003900AA
:10063000009509F001FB009B3031F1542000390096
:10064000009409F073FA009B01350400EDB2092B08
:10065000ECD8E1E7013BDBB2F15C11700132DDE780
:10066000074A1378002B08D0013BDBB21370054A10
:10067000DB00D31818685968704700200021FBE799
:100680005402001058020010034A1378591C1170CC
:10069000024A5B00D0527047490100104A01001025
:1006A0000020054A1378834205D0013BDBB213706A
:1006B000024A5B00985A7047490100104A01001035
:1006C0000023034A1370034A1370034A13707047E0
:1006D000990200101A03001008040010034A13784E
:1006E000002B01D0013B13707047C0461A03001065
:1006F00030B5074B020019780023064CD8B281426E
:1007000001D8FF2003E00133E55C9542F6D130BD0E
:1007100072100010721000108021064A0901013089
:10072000135CFF2B01D180B270478842F7D30020C1
:10073000FAE7C0465604001070B504000020064DCC
:10074000002C03D0013CE4B2A84202D9013080B2AF
:1007500070BDFFF7E1FFF3E7FE07000010B5044BA3
:1007600018780138C0B2FFF7E7FFFFF7D5FF10BDDB
:100770007210001010B5024B1888FFF785FF10BDEE
:10078000560C00100022014B1A70704754020010E2
:100790000D488021038830B51A0000240125090185
:1007A0008A420DD300228B4200D8CA1A9B189BB2F2
:1007B000002C00D00380054A1378013B137030BD34
:1007C00001322C0092B2EBE7560C001074010010BD
:1007D000024A1378013B13707047C0467401001041
:1007E000054B064A1B781178123BDBB2994200D1C7
:1007F000002313707047C0462A04001050030010F5
:10080000024A137859424B41137070470B04001091
:100810000122014B1A7070472004001010B5054BDF
:10082000054C197820784B1EC01809F0EFFA21709A
:1008300010BDC046721000104C02001010B5054BE0
:10084000054C197820784B1EC01809F0DFFA21708A
:1008500010BDC046721000105404001003230B405A
:10086000890841333131037041707047074A0020D5
:1008700013780021002B07D0013BDBB21370044A30
:10088000DB00D318186859687047C046EA1A001090
:10089000F01A0010012330B500200A241D00084A78
:1008A000084912780B80002A03D1002800D00B8061
:1008B00030BD6343013A28009BB2D2B2F3E7C04691
:1008C000E91A001044020010F7B50D4B01251B7802
:1008D000002401930B4B0C4E1A78032353439D4085
:1008E000EF17019BA34200D1F7BD306871682A0061
:1008F0003B0009F0CFFA013403C6E4B2F1E7C04689
:10090000EA1A0010E91A0010F01A0010034A04490C
:10091000137809785B1813707047C04648010010BF
:1009200079110010034A044B11781B780B401370A7
:100930007047C0464801001079110010024A137830
:10094000013313707047C04648010010024A137803
:10095000013B13707047C0464801001010B5044BAE
:10096000044C1978207809F0E1F8207010BDC046D9
:1009700079110010480100103C22034B1B789B00AA
:100980001340024A13707047F60100102400001053
:1009900010B5044B044C1978207809F04DF92170FA
:1009A00010BDC0467911001048010010034A0449E7
:1009B000137809784B4313707047C0464801001004
:1009C000791100100F200449044A0B7812781B019A
:1009D000024013430B70704748010010F6010010ED
:1009E00070470000024A1378DB4313707047C0461B
:1009F00048010010024B1A78024B1A707047C0462B
:100A00004801001038020010034A0449137809789D
:100A10000B4313707047C046480100107911001055
:100A20000720044A044912780B78024093400B7067
:100A30007047C046F6010010480100100720044A24
:100A4000044912780B78024013410B707047C0467E
:100A5000F601001048010010034A04491378097890
:100A60005B1A13707047C0464801001079110010DE
:100A7000034A044B11781878197010707047C046FB
:100A80004801001079110010034A044913780978CD
:100A90004B4013707047C046480100107911001098
:100AA0003F22044B1B781340034A1178034AD15468
:100AB0007047C046F601001048010010F701001011
:100AC0003F22044B1B781340034AD25C034B1A703D
:100AD0007047C046F6010010F701001048010010F1
:100AE00026490300820908703FD102090120002A2B
:100AF00031D00E300340012A2ED10D38002B2AD0E0
:100B00000330012B27D00130022B24D00130032BDE
:100B100021D00130042B1ED00130052B1BD0013019
:100B2000062B18D00130072B15D00330082B12D01C
:100B30000130092B0FD001300A2B0CD001300B2BC8
:100B400009D002300C2B06D001300D2B03D0013020
:100B50000E2B00D0023070471620022AFBD110382D
:100B60009842804140420C30F5E70320012AF2D040
:100B70000130022AEFD00E30EDE7C046F60100103A
:100B800070B50D0014000321FFF7ECFB23002800D3
:100B900009220021FFF726FD084E2200705D182172
:100BA000FFF764FC705DFFF79BFF054B80002200A0
:100BB0002721C058FFF724FC70BDC046F701001084
:100BC00048BC00008022030008485200002B05D0DA
:100BD0000178002902D0013A002A00D17047013083
:100BE0000A29F3D1013BDBB2F0E7C0463600001022
:100BF000802305485B000278002A02D0013B002BCD
:100C000000D170470130F6E73600001000231800CD
:100C10000649CA5C002A01D0FF2B00D170470A2A7E
:100C200001D10130C0B20133F3E7C04636000010F5
:100C300010B5084B08491A7801235C5CD8B294427D
:100C400002D90138C0B210BD01330E2BF5D10020FE
:100C5000F9E7C0465403001028C6000010B5104B39
:100C60000322187800210123FFF7BCFC0122152183
:100C70008C20FFF777FB0B4B1B2218680123C11751
:100C8000FFF7B0FC012233218F20FFF76BFB064BEF
:100C9000392218680123C117FFF7A4FC10BDC04614
:100CA000280400107001001058030010F7B5174B0E
:100CB000174A1C78019023019B5A200000932100C1
:100CC00000231588009EB54209D98C4206D00F0139
:100CD000BC4666460E4FF65BAE4200D91900009E38
:100CE000B54206D284420ED0094F0601F65BAE42F1
:100CF00009D30133DBB21032762BE2D1019B002BFA
:100D000000D10800FEBD1800F3E7C04678110010BE
:100D100020D00000F0B585B0022829D1042100229E
:100D20008C460192524E0324083615E008790028BB
:100D300008D10F78002F05D0019B0F710133DBB272
:100D400008700193013DEDB20131002DEED1013C5F
:100D5000E4B2043E944202D931006546E6E701322E
:100D6000D2B2032ADED1019B5A1E9341D8B254E07D
:100D7000042822D1002201921CE0CF78002F08D154
:100D80008B78002B05D0CB70019B8F700133DBB2C9
:100D90000193013DEDB201399542EED8013CE4B238
:100DA0000436002C02D031000325E6E70132D2B22E
:100DB000032AD8D004002E4EF5E701282AD10024BA
:100DC0002B4E0194611CA5003200C9B26D4217E0A0
:100DD0001778002F0BD1029B5019C35C002B06D053
:100DE0001370029BC754019B0133DBB20193039B39
:100DF00001329A42ECD10131C9B2043D042904D038
:100E00008B000293131D0393E2E701340436032C95
:100E1000D8D1A8E7032827D0002005B0F0BD30784E
:100E20000132D2B2002808D1AB5C002B05D0337060
:100E3000019BA8540133DBB201930136032AEED1A2
:100E400001340437042C05D0094BA5003E00029A5A
:100E50005D19E4E70131032900D184E7CBB20293A5
:100E6000034B00245F18EFE700210191F6E7C0462D
:100E70003D030010084B400070B5C45C1B185D7842
:100E800020002900012206F085FC29000022200014
:100E900006F0CCFC70BDC046D3CF0000084B40002C
:100EA00070B5C45C1B185D7820002900002206F094
:100EB00071FC29000122200006F0B8FC70BDC0467C
:100EC000D3CF000010B506F0C9F80020FFF7D2FF1D
:100ED0000B21002006F080FC040063425C410020EE
:100EE000FFF7DCFFE0B210BD70B504000825012655
:100EF00000220821300006F099FC013DE2090221A0
:100F0000002006F093FC6400320008213000EDB2AE
:100F100006F08CFCE4B2002DEAD170BD002210B5C1
:100F200004001100022006F081FC2000FFF7DCFF26
:100F300010BD000070B50500B02028436B1E9D4118
:100F40008424FFF7EBFF0020FFF7E8FF1020FFF7F6
:100F5000E5FF0122002102206D4206F067FC064BEE
:100F60002C40E41825008435AC4200D170BD2078B7
:100F7000FFF7BAFF0134F7E780130010F0B587B030
:100F8000019202930022002307000C0008F054FF96
:100F9000002808D0019B019A581C302313700023AD
:100FA000037007B0F0BD2200A54B1A409A4206D14B
:100FB0002D23019A13705370D01C9370EFE7002219
:100FC00000233800210008F03DFF061E09D08023D1
:100FD0001B06E4182D23019A012613701300013318
:100FE0000193002200233800210008F03FFF002574
:100FF000A84200D09AE06B1C029A0593F318934222
:1010000002DAAB1C00DBACE0EA17AB18042053405B
:10101000632B03DC0138092B00DC0138029B023B07
:101020009E1B361AF3B2039373B202930123002678
:10103000002084490493039BB34200D0A0E0020047
:101040000B003800210007F067FD00227E4B0600F0
:101050000F0008F015FF002808D0300039000022EA
:10106000794B07F0B5FE06000F00059D049B002B91
:1010700000D18CE03900300008F05EFFC4B22000DF
:1010800009F042FF0B0002003900300007F03EFD7E
:1010900006000F0020000199FFF7B4FA431C0193EA
:1010A0002E230370029B0400002B22DDC318039340
:1010B0000022654B3000390007F0DCFD0F00060010
:1010C00008F03AFFC0B203003033637009F01CFF30
:1010D0000B0002003900300007F018FD039B0134BB
:1010E00006000F00A342E3D1029A019B9446634499
:1010F00001930198431E01931B78302BF9D0002DEA
:1011000000D14CE72B23411C002D01DA6D42023344
:1011100003702800FFF776FA41E73800210000222B
:10112000494B07F055FE07000C000135002238003E
:101130002100454B08F0A4FE0028EED10022380023
:101140002100424B08F07EFE002800D153E7380012
:10115000210000223C4B07F08DFD013D07000C00F3
:10116000ECE7029B013B9E1B6B1C002B00DC012368
:10117000F61A73B276190293F3B20393002356E77B
:101180000022314B013607F023FEF6B253E7002D63
:1011900013DA0135012D12D03000390000222A4B1C
:1011A00007F016FE06000F00F3E7300039000022BA
:1011B000254B07F05FFD06000F00013DF5D2390019
:1011C000300008F0B9FE040009F09EFE0B0002009A
:1011D0003900300007F09AFC06000F00200001994A
:1011E000FFF710FA2E230370029B0500441C002B0E
:1011F0001FDDC31801930022134B3000390007F0A4
:1012000039FD0F00060008F097FEC0B2030030332E
:101210006B7009F079FE0B0002003900300007F016
:1012200075FC019B013506000F009D42E3D1029B36
:10123000E4182000013C2378302BFAD0AFE6C046FA
:101240000000F07F0000E03F000024400000F03F7D
:1012500030B514001D00064B85B01B7801AAFFF7BE
:101260008DFE2A00210001A8FFF7E0F805B030BD8F
:1012700025000010F8B50F4C060020000D0006F008
:10128000C5FF5F232018037000234370200006F081
:10129000BDFFC3B2C7B22000AB4201D9781B001911
:1012A00032000321FFF7C2F80023E419013C237048
:1012B000F8BDC04678030010F7B51D4EC700BE1933
:1012C000019030000C00150006F0A0FF002815D09A
:1012D0002A0021003000FFF793F8164B019A1B7883
:1012E00093420AD10621144B49421B782A005943E4
:1012F0006118B220C9B2FFF735F8F7BD0F4B0022D5
:10130000DF193E687F6800233000390008F094FD43
:10131000002805D02A002100CC20FFF723F8DCE7C5
:101320002B00220030003900FFF792FFD5E7C046BE
:101330007D1100108814001026000010801200108B
:1013400010B5084C200006F061FFC3B2002B05D099
:101350000023C0B22418013C237010BDFFF780F9B0
:10136000FBE7C04678030010F0B5002685B0019079
:101370000C2703257743F3B2B4000093341B019B81
:10138000793CE4B2DF1929002000009AFEF7EAFF59
:10139000002302AA3900137102A8042206F0D2FE2B
:1013A000E91D2435009AC9B202A80134EDB2FFF755
:1013B00027F8E4B204376F2DE5D1012E01D00126C4
:1013C000D6E705B0F0BD0000F8B505000026064CD4
:1013D00083222778200005498334013606F0B2FEC7
:1013E0002770AE42F3D1F8BD8013001081130010B6
:1013F00070B50D00040005F0C3FF2900200006F0C1
:1014000067F870BD07B5684601A9FFF7F1FF6B46A5
:10141000FA221B88D2009B18034A13606B469A7805
:10142000024B1A7007BDC046400200103B0200107C
:1014300007B5684601A9FFF7DBFF6B463C205B79E7
:1014400058436B469B79C0180EBDF8B517000400D1
:1014500008000D0006F0DAFEE419C6B2200006F01E
:10146000D5FEA7192100421C380006F0AEFE32005E
:101470002900200006F066FEF8BD0000F8B50D4D0D
:1014800006002B780F000C4C072B08D921003822BE
:101490002000083106F099FE2B78013B2B702B7849
:1014A00030005A1CDB00E4183900266067602A709F
:1014B000F8BDC046540200105802001010B5FEF7E7
:1014C0003FFF09F021FDFFF7D9FF10BD10B5FFF771
:1014D000C7F809F0B3FC0A2108F098FCCB000349D7
:1014E000C91808684968FFF7C9FF10BD98140010B3
:1014F000F8B5FFF7B5F806000F00FFF7B1F80D00DB
:1015000004003900300009F099FC0A2108F07EFC43
:10151000054BC9B2C90059180C604D602000290064
:10152000FFF7ACFFF8BDC0469814001010B5FFF7E8
:1015300097F808F001FDC0B200280BD0064B1B78CD
:10154000834207D31B1A0548DB00C3181868596883
:10155000FFF794FF10BDC04654020010580200105F
:1015600070B5FFF77DF804000D00FFF779F8020071
:101570000B002000290008F083FC002804D1002083
:101580000021FFF77BFF70BD00200149F9E7C0464D
:101590000000F03F10B5FFF763F80022002308F0C9
:1015A0004BFC002804D100200021FFF767FF10BD8D
:1015B00000200149F9E7C0460000F03F10B502489D
:1015C0000249FFF75BFF10BD182D4454FB21094071
:1015D000F8B5FFF745F80D000400FFF741F80600E5
:1015E0000F002000290009F029FC39000400300018
:1015F00009F024FC2040C04309F056FCFFF73EFFF1
:10160000F8BD000010B5034B18685968FFF736FFA6
:1016100010BDC0463004001010B5FFF721F80200DD
:10162000802000060B1819001000FFF727FF10BDDF
:10163000F0B585B0FFF714F804000D00FFF710F8BF
:10164000134B06001B780F00002B19D0FFF708F88A
:1016500000900191FFF704F80290039130003900E7
:10166000FFF70CFF20002900FFF708FF02980399FD
:10167000FFF704FF00980199FFF700FF05B0F0BDE8
:1016800020002900FFF7FAFE30003900F4E7C046D9
:10169000FB03001070B5FFF7CBFFFEF7E1FF0D0075
:1016A0000400FFF7C5FF29002000FFF7E7FE70BD2B
:1016B000F8B5144B1B78002B19D0FEF7D1FF0600AC
:1016C0000F00FEF7CDFF04000D00FFF7D7FE30003E
:1016D0003900FFF7D3FE20002900FFF7CFFE3000CE
:1016E0003900FFF7CBFE0122074B1A70F8BDFEF759
:1016F000B7FFFFF7C3FEFFF7C1FE044B1860596048
:10170000F1E7C046FB03001038040010300400105D
:10171000F0B585B00391FFF70FF80600FEF7FCFF68
:101720000024013083B201939B1B013B9BB20293C7
:10173000039BE7B21B5DFF2B04D00134812CF7D152
:10174000013C2700FFF70AF88022029B1201C31A0E
:10175000DB19934211DA029A0F4DBBB297420ED2B7
:1017600001990139421A30196918281806F0EAFC63
:1017700022000399A81906F0E5FC05B0F0BD029A15
:101780009342F5D901990139421A30190132691889
:10179000281806F01AFDEBE756040010F8B50D4FB7
:1017A00006003B780D000C4C032B08D921001822B1
:1017B0002000083106F009FD3B78013B3B703B7887
:1017C00030005A1CDB00E41829003A70266065607E
:1017D000F8BDC046EA1A0010F01A001010B5034B0D
:1017E00018685968FFF7DAFF10BDC046101B0010DB
:1017F00010B5FFF73BF8024B03C3FFF7CFFF10BD57
:10180000101B0010F0B50324012589B0FFF72EF856
:101810001D4B01901B7802915C430434A540EB17EB
:101820002A00059308F05AFB0223A34000240393E7
:10183000019EDB17029F06900791049332003B0044
:101840000698079908F026FB2A00059B8019794124
:1018500008F044FB039A049B08F01CFBB04201D142
:10186000B94207D01D2C0BD1019E029F0134E4B276
:101870001E2CE3D130003900FFF790FF09B0F0BD16
:1018800006000F00F2E7C046E91A001010B5FEF797
:10189000EDFFFFF783FFFFF781FF0122014B1A7075
:1018A00010BDC0463804001010B5FEF7DFFF00235E
:1018B00042428B4110001900FFF770FF10BD00007D
:1018C00070B5FEF7D3FF06000D00FEF7CFFF03242F
:1018D000020001200B00074909784C430434A04062
:1018E000C11708F0FBFA32002B0008F0D3FAFFF71B
:1018F00055FF70BDE91A001070B5FEF7B7FF05007F
:101900000C00FEF7B3FF02000B002800210008F0D6
:10191000E5FA064B1A7803235343012204339A4015
:10192000D31708F0B7FAFFF739FF70BDE91A0010B6
:1019300070B50324134B0A251B785C43FEF796FF12
:1019400001220434A240D317A54008F0A3FAEE17F1
:1019500044B2030611D5013464B2012C00D170BD2C
:1019600028003100FFF71AFFFFF7AAFFF3E728006E
:101970003100FFF713FFFFF7BFFF013C64B2631CA8
:10198000F5D1ECE7E91A001070B5FEF76FFF0D0016
:101990000400FEF76BFF00196941FFF7FFFE70BD01
:1019A00010B5FFF781FFFFF7EFFF10BD70B5FEF731
:1019B0005DFF05000C00FEF759FF28402140C043A1
:1019C000C943FFF7EBFE70BDF8B504000025074ED4
:1019D0008322330083331F7831000548013506F038
:1019E000F4FB3770A542F2D1F8BDC0468013001059
:1019F000811300107FB5154B0D001C781600844232
:101A00001FD9241A124B1348013CE4001B78041917
:101A100020686168002B0FD007F066FC02000B0005
:101A200001A8FEF771FD01A8FEF736FD320029007E
:101A300001A8FEF7E5FC7FBD13002A00FFF708FCB4
:101A4000F9E75F20FEF78EFCF5E7C0465402001070
:101A50000B04001058020010F7B5234B234A1E78E0
:101A6000234B1B78D05C002E0CD00521414321482C
:101A70000918214806F0D2FB1F4806F0C7FB1F4B90
:101A80001870F7BDFEF758FE04001D4B1B5DFF2BC1
:101A900027D1194B9E190023013E3370ECE7052036
:101AA0003B5D43431348C31801981B5C4B5515001D
:101AB000AB1BDBB201930523114F385D58430D4B2F
:101AC000C01806F0A3FB019B6A1C0B49D2B28342EB
:101AD00001D22B06E3D52023013416004B55A4B2C6
:101AE000D3E73500E4E7C046060400107310001089
:101AF00054040010580C0010990200101A03001032
:101B000056040010044B10B5C000C018034B8900E8
:101B1000C95806F083FB10BD7D110010ACBD00005C
:101B200030B5032587B008210120FFF7EBFF2A4CD1
:101B30002A002100684606F005FB69467420FFF77D
:101B4000E7FD1F210520FFF7DDFF2A00611901A82D
:101B500006F0F8FA01A97820FFF7DAFD2021092024
:101B6000FFF7D0FF2A00A11D02A806F0EBFA02A998
:101B70007C20FFF7CDFD21210D20FFF7C3FF2100C1
:101B80002A00093103A806F0DDFA03A98020FFF737
:101B9000BFFD22211120FFF7B5FF21002A000C31E3
:101BA00004A806F0CFFA04A98420FFF7B1FD232191
:101BB0001520FFF7A7FF21002A000F3105A806F026
:101BC000C1FA05A98820FFF7A3FD24211920FFF7FA
:101BD00099FF07B030BDC0468FB8000070B508212E
:101BE00092B00120FFF78EFF574C032521002A00F9
:101BF0006846123106F0A6FA69467420FFF788FDA0
:101C000025210520FFF77EFF21002A00153101A8BC
:101C100006F098FA01A97820FFF77AFD262109201D
:101C2000FFF770FF082621003200183108A806F0DF
:101C300089FA08A97C20FFF76BFD27210D20FFF70B
:101C400061FF2100320020310AA806F07BFA0AA9C0
:101C50008020FFF75DFD28211120FFF753FF2100B1
:101C60000136320028310CA806F06CFA0CA9842049
:101C7000FFF74EFD29211520FFF744FF2100320018
:101C800031310FA806F05EFA0FA98820FFF740FD5A
:101C90002A211920FFF736FF21002A003A3102A835
:101CA00006F050FA02A97620FFF732FD2B2107201B
:101CB000FFF728FF21002A003D3103A806F042FA71
:101CC00003A97A20FFF724FD2C210B20FFF71AFF30
:101CD00021002A00403104A806F034FA04A97E202D
:101CE000FFF716FD2D210F20FFF70CFF21002A0022
:101CF000433105A806F026FA05A98220FFF708FD62
:101D00002E211320FFF7FEFE210001352A00463167
:101D100006A806F017FA06A98620FFF7F9FC2F217E
:101D20001720FFF7EFFE21002A004A3107A806F02E
:101D300009FA07A98A20FFF7EBFC30211B20FFF7E7
:101D4000E1FE12B070BDC0468FB800001FB50E494D
:101D50000B224E3101A806F0F5F901A97C20FFF70E
:101D6000D7FC1B210120FFF7CDFE1C210520FFF72A
:101D7000C9FE1D210920FFF7C5FE1E210D20FFF71A
:101D8000C1FE05B000BDC0468FB8000030B51F4C85
:101D90000425210085B02A00593101A806F0D2F9A6
:101DA00001A97820FFF7B4FC21002A005D3102A8C8
:101DB00006F0C8F902A98020FFF7AAFC21002A003A
:101DC000613103A806F0BEF903A98820FFF7A0FC43
:101DD0000D210120FFF796FE0E210520FFF792FE50
:101DE0000F210920FFF78EFE10210D20FFF78AFE3C
:101DF0000E211120FFF786FE07211520FFF782FE36
:101E00001A211920FFF77EFE05B030BD8FB8000003
:101E100010B5184C88B021000F226846653106F0D5
:101E200091F969468020FFF773FC2100102274317C
:101E300004A806F087F904A98420FFF769FC0321B0
:101E40000120FFF75FFE03210520FFF75BFE07215E
:101E50000920FFF757FE17210D20FFF753FE182129
:101E60001120FFF74FFE19211520FFF74BFE08B098
:101E700010BDC0468FB8000030B51D4C91B0102287
:101E8000211D01A806F05EF901A97C20FFF740FCA6
:101E9000132521002A00143105A806F053F905A9DD
:101EA0008020FFF735FC2100172227310AA806F011
:101EB00049F90AA98420FFF72BFC11210120FFF723
:101EC00021FE12210520FFF71DFE29000920FFF742
:101ED00019FE14210D20FFF715FE15211120FFF723
:101EE00011FE16211520FFF70DFE11B030BDC046C2
:101EF0000FB900001FB50724144922003E3102A883
:101F000006F020F902A97820FFF702FC104904220C
:101F10005D3101A806F016F901A98020FFF7F8FB52
:101F200009210120FFF7EEFD21000520FFF7EAFD62
:101F30000A210920FFF7E6FD0B210D20FFF7E2FD46
:101F40000C211120FFF7DEFD1FBDC0460FB90000B8
:101F50008FB8000010B5164C86B02100082245311C
:101F600001A806F0EFF801A97C20FFF7D1FB2100C2
:101F70000A224D3103A806F0E5F803A98020FFF7F7
:101F8000C7FB01210800FFF7BDFD05210800FFF791
:101F9000B9FD06210920FFF7B5FD02210D20FFF74D
:101FA000B1FD07211120FFF7ADFD06B010BDC04601
:101FB0000FB9000000B50E4989B01C22573101A8A5
:101FC00006F0C0F801A97C20FFF7A2FB0021012048
:101FD000FFF798FD03210520FFF794FD0421092058
:101FE000FFF790FD01210D20FFF78CFD09B000BD2A
:101FF0000FB90000F0B52C4B85B01B78029003930D
:10200000002B0AD0FEF7C2FA07F0F6F9FFF736FA0E
:102010000023029A137005B0F0BD029B1B782D2B94
:1020200011D10024029B214D01330193002600278A
:10203000019B1B78002B0BD122002B0030003900B4
:1020400006F0C6FEE2E7029B0024194D0193EDE77E
:102050002E2B26D0303B092B1FD800223000390010
:10206000144B06F007FE019B060018780F0030386D
:1020700008F01AFF0B0002003900300006F04CFD9A
:10208000039B06000F00002B07D020002900002230
:10209000084B06F0EFFD04000D00019B0133019396
:1020A000C6E701230393F8E70B0400100000F0BF1C
:1020B0000000F03F0000244070B5094D280006F0F4
:1020C000A5F8084C002807D02378002B01D0FEF794
:1020D000C7FA2800FFF78EFF0023237070BDC046AB
:1020E000780300103804001010B5FFF7E5FFFEF785
:1020F000B7FA08F0A3FE0122024B1860024B1A70D7
:1021000010BDC04650020010040400101FB5FEF7B9
:10211000A7FA07F02FFF02000B0001A8FEF7F4F961
:1021200001A8FFF767FF05B000BD000070B505000E
:1021300000240526094B1B78A34202D8FF24200067
:1021400070BD30006043064B2900C01806F06DF8E2
:102150000028F4D00134E4B2ECE7C046721000105D
:10216000580C001007B5094B6A4600930023137101
:10217000074B68461B7840339370FFF7D7FFFEF795
:10218000DBFA044B1880FFF797FF07BD464E780037
:10219000500300105203001007B5094B1B78002BA9
:1021A0000DD0084A69460092002240338B70684681
:1021B0000A71FFF7BBFFFEF7BFFA034B188007BD9C
:1021C00050030010464E7800560C00100122084BB8
:1021D00010B508481A70FFF7A9FF074B1870074B96
:1021E00018700748FFF7A2FF064B187010BDC046D5
:1021F0001B040010C0B100007B1100107C11001006
:10220000C3B100007A11001013B50B49040002227B
:10221000733101A805F096FF6B460022210001A84A
:102220009A71FEF71BFB01A8FFF780FFFEF760FA2B
:10223000024B187013BDC0460FB9000054040010C3
:10224000F8B5144B14491C780023DAB2944205D82F
:102250000527013CE4B2002C03D1F8BDCA54013378
:10226000F3E700260C4D69782878794378430B4BC7
:102270000136C918C018F6B205F0D7FF002803DDF3
:102280002B786A786B702A700135A642EBD1013C3D
:10229000E4B2E0E77210001073100010580C001048
:1022A00010B5FEF7DDF907F02FFBFFF7E7F810BDDB
:1022B00010B5FEF7D5F907F0D9FAFFF7DFF810BD32
:1022C00010B50B4B1B78002B09D0FEF7C9F9002283
:1022D000002307F0B1FD002802D1FEF7E1F910BD9F
:1022E000FEF7DEF9034B80B21880FEF7CDF9F6E772
:1022F00049010010560C001070B50C4C2378002BCF
:1023000002D00023237070BD094D2B78002B05D01F
:10231000084B1B78002B01D0FEF7D6FA00220123D0
:102320002A70054A23701380EDE7C0460B040010A5
:10233000E91A0010EA1A001044020010054B1B783D
:10234000002B05D13F22044B1B781340034A137026
:102350007047C04648010010F6010010240000102C
:1023600010B50C00022814D1C8212000490007F044
:1023700063FC89B21D2000290AD00138A30707D1C8
:102380006421200007F058FC88B2431E98411C309D
:1023900010BD0223984303001E20042BF8D0093BF4
:1023A0001800431E98411E30F2E70000F0B50025EA
:1023B00089B00091019206001322290003A802951A
:1023C0000C2705F0E0FE194B194A1B787B43012EC0
:1023D00024D1D3585C5D002C12D1164D02A92800DF
:1023E00005F01CFF280005F011FF134B019A18702F
:1023F00002AB180000991C75FEF702F809B0F0BD99
:10240000013CE4B20D49232C02D80D4BA400E15845
:1024100002A8013508F0AEFEEDB2D4E7D318022EC3
:1024200001D15B68D6E79B68D4E7C0464D02001037
:10243000B0D80000990200101A030010C6B10000C5
:1024400098B90000F8B5FEF73DFD04002220002CED
:1024500011D125002800FEF70DFD271D0D4EFFB2FE
:102460007178307805F0B8F9002805D12800FEF71A
:1024700015FD094B185DF8BD0134E4B20236A742E0
:10248000EED128000135EDB2FEF708FD0A2DE1D1AD
:10249000FF20F0E7CBCF0000A3CF000010B5FFF77F
:1024A000D1FFFF28FBD1FE3805F0AEFB10BD0000C8
:1024B000402210B5034B1A70034B3F3A1A70FFF7D6
:1024C000EDFF10BD24000010310000100123074A69
:1024D00010B51370064A1370FFF7E0FF054B064A6C
:1024E0001978117040221A7010BDC0460004001007
:1024F0003100001024000010390200100123074AA7
:1025000010B51370064A1370FFF7C8FF054B064A53
:102510001978117040221A7010BDC046FF030010D8
:1025200031000010240000103902001070B5054C75
:102530000548257805F06AFE854202D223780133EA
:10254000237070BD1A03001099020010F7B5204BDC
:102550001B78002B34D0FEF783F800900191FEF732
:102560007FF8009A019B06000F001000190006F08A
:1025700081FB320004000D003B003000390006F002
:1025800079FB02000B002000290006F0C5FA0200CA
:102590000B0004000D003000390006F019FC0200A9
:1025A000802000060B1819001000FEF767FF009846
:1025B000019922002B0006F00BFCFEF75FFFF7BD30
:1025C000FEF74EF802000B0000200249F3E7C04678
:1025D000FB0300100000F03FF0B5284B85B01B78DE
:1025E000002B3DD0FEF73CF800900191FEF738F843
:1025F00004000D00FEF734F806000F00FEF730F877
:102600003200029003913B002000290006F032FBCB
:10261000029A039B04000D000098019906F02AFB22
:1026200002000B002000290006F076FAFEF726FFD4
:102630000098019932003B0006F01CFB029A039BB4
:1026400004000D003000390006F014FB02000B00FE
:102650002000290006F05AFAFEF710FF05B0F0BD81
:10266000FDF7FEFF04000D00FDF7FAFF02000B006E
:102670002000290006F0FEFAEEE7C046FB0300103A
:1026800010B503480349FEF7F9FEFFF7A5FF10BD9B
:10269000F8C1631ADCA54C4010B5FDF7E1FF00223C
:1026A000034B06F0D9FFFEF7E9FEFFF7E9FF10BD87
:1026B0000000F03FD0B5FDF7D3FF08F0BFFB041ECC
:1026C0000CDA084E084F4442013C00D2D0BD300025
:1026D0003900FEF7D3FEFFF77FFFF5E70026034F33
:1026E000F2E7C0469A9999999999B93F0000244018
:1026F000F7B5174B1B78002B1ED0FDF7B1FF0090EC
:102700000191FDF7ADFF04000D00FDF7A9FF0600E4
:102710000F00FDF7A5FF02000B002000290006F0C6
:10272000FBF9FEF7ABFE0098019932003B0006F082
:10273000F3F9FEF7A3FEF7BDFDF792FF04000D00CD
:10274000FDF78EFF02000B0020002900EFE7C046D6
:10275000FB030010F0B5334B89B01B78002B5BD026
:10276000FDF77EFF06000F00FDF77AFF0090019154
:10277000FDF776FF02900391FDF772FF320004909F
:1027800005913B003000390006F074FA009A019B75
:1027900004000D001000190006F06CFA02000B0096
:1027A0002000290006F0B8F9049A059B06900791CD
:1027B0003000390006F05EFA029A039B04000D0017
:1027C0000098019906F056FA02000B00200029003B
:1027D00006F09CF9069A079B06F0FAFAFEF74EFE01
:1027E000029A039B3000390006F044FA049A059BD4
:1027F00004000D000098019906F03CFA02000B005D
:102800002000290006F088F9069A079B06F0E0FAF6
:10281000FEF734FE09B0F0BDFFF798FEFFF7DCFECF
:10282000F8E7C046FB03001010B503480349FEF764
:1028300025FEFFF78FFF10BDF8C1631ADCA54C40E1
:1028400010B5FFF7F1FFFDF70BFF06F085FEFEF771
:1028500015FE10BDF7B5134B1B78002B1CD0FDF7F0
:10286000FFFE04000D00FDF7FBFE00900191FDF757
:10287000F7FE06000F00FDF7F3FE009A019B06F03D
:1028800045F9FEF7FBFD22002B003000390006F071
:102890003DF9FEF7F3FDF7BDFEF7BEFEFFF728FF9B
:1028A000F9E7C046FB030010F8B50A4B1B78012B73
:1028B0000FD9FDF7DBFF07000E00FDF7D7FF05007E
:1028C0000C0038003100FEF769FF28002100FEF7F8
:1028D00065FFF8BDEA1A001070B5FFF7E5FFFDF7D8
:1028E000C5FF05000C00FFF7DFFF28002100FEF701
:1028F00055FF70BD10B5FFF7D7FFFEF7C7FFFFF715
:10290000EBFFFEF7F9FF084B01201A78032353432E
:102910000433984064220023C11707F0DFFAFEF762
:102920003DFFFEF7CDFF10BDE91A001010B51B4B9F
:102930001B78002B30D0FFF7BFFBFFF713FC2022E2
:102940000021174805F01FFC0123164A1370164A90
:1029500013700722154B1A700023154A1370154A7D
:102960001370154A1370FDF77BFE144C20606160F4
:10297000FDF776FEFEF782FD02000B0010490A60AB
:102980004B602068616806F0C1F80E4B002206F02B
:102990001FFA0D4B1860596010BDC046500300105F
:1029A0004811001017040010160400102500001034
:1029B000080400102B0400107D12001048040010C1
:1029C0004004001000003F406803001070B5154B34
:1029D0001B78002B24D0FFF76FFBFDF741FE0D00A5
:1029E00080210400104A114B0020C90506F042F96D
:1029F00002000B002000290006F088F8FEF73EFDDB
:102A00000B4B18605960FFF7ADFB0020002100223E
:102A1000084B18605960084B1A70084B01321A7045
:102A200070BDC04650030010FCA9F1D24D62503F6A
:102A300090140010700300107D120010210400108B
:102A400010B5174B1B78002B29D0FFF78BFBFEF737
:102A5000EFFDFDF705FE134C20606160FDF700FE01
:102A6000FEF70CFD2268636806F050F88023002210
:102A7000DB0506F0ADF900220B4B06F0A9F90B4B74
:102A800001221860596000200021094B186059602C
:102A9000084B1A700023084A1370084A137010BDBF
:102AA0005003001040040010000024406803001090
:102AB000700300100E040010080400107D120010B6
:102AC00010B5094B1B78002B0DD0FFF74BFBFEF721
:102AD000EFFDFEF7EDFD0122044B1A700023044ABE
:102AE0001370044A137010BD50030010220400102C
:102AF0002B0400107D1200107FB50C0018490C2229
:102B00000600763101A805F01DFB00250223B34223
:102B10006D41651BADB26421280007F007F8C8219C
:102B2000AC0880B26419241A4900280006F0FEFFA0
:102B300001AB9B19013B80B220181C7807210019BA
:102B4000013007F063F9074BC8B21B78002B03D0A4
:102B5000002803D00138C0B204B070BD0620FBE7E6
:102B60000FB900001404001070B505000E00032416
:102B7000FDF792FC2878002800D170BD32002100BA
:102B8000FDF7F0FB2B78202B05D1033CE4B2063493
:102B9000E4B20135EEE72E2BF9D1013CF6E7000057
:102BA000F0B5354B354D1E78C3B0002E5FD12E21C8
:102BB000280005F020FB310004007D2222A8219688
:102BC00005F0E1FA2900684605F028FB002C06D044
:102BD0006B46651B5E55611C21A805F01FFB68460E
:102BE000FDF7D4FC264B01261A7803235343043304
:102BF0009E40F71732003B0007F070F9040021A84F
:102C00000D00FDF7C3FC02000B003000390007F097
:102C100065F9FA220023920007F03CF924184D418F
:102C200021E00C00303CE4B20135092C06D90E003D
:102C3000613E0C00052E01D8573CE4B2110F1B0178
:102C40001201044022430B4329780029E9D10C49A1
:102C5000087803214143012004318840C11707F05F
:102C60003DF904000D002000290043B0F0BD002212
:102C70000F201300E8E7C0460B0400107803001093
:102C8000E91A001070B5064D0400280005F0BEFAE0
:102C9000611C021B4919601905F054FA70BDC04649
:102CA0009902001010B5064C2078002806D0013893
:102CB000C0B2FFF7E7FF2378013B237010BDC04689
:102CC0001A030010F8B5084F05003800CE190C00A3
:102CD00005F09CFA021B601C3100C019013205F09E
:102CE00074FA3570F8BDC0469902001070B505241D
:102CF000444315482418200005F088FA05001348BD
:102D000005F084FA7F23EAB29B1A984212D220007F
:102D1000FFF70CFA0A2808D90D4B1978002904D0BE
:102D20004A1C20201A70FFF7CDFF0026EDB2F3B247
:102D30009D4200D870BD064BA05D197801364A1C33
:102D40001A70FFF7BFFFF2E7580C0010990200104D
:102D50001A030010F0B5042400261E4B85B0002590
:102D60005A5D002A01D10136F6B20135042DF7D1A2
:102D7000013CE4B20433002CF1D1002E28D0FDF741
:102D8000DFFA310007F042F82700CBB20293039537
:102D9000104BBD00039EED182B78002B10D1631C47
:102DA000DBB20193029BA34209D1FDF7C9FA0A21C4
:102DB00006F042FF89B24B42594101312970019C12
:102DC000013EF6B20135002EE6D10137042FDFD1E6
:102DD00005B0F0BD3D030010F7B50400FDF79AFF04
:102DE000431E9841C3B20093022C2AD100210B004C
:102DF0008C46434E0836042072181779002F08D0ED
:102E00001578BD4205D10135157165460133157040
:102E1000DBB20138C0B201320028EED104390A0019
:102E20000C32E8D1002B01D0012300932000FDF7E4
:102E300071FF009B1843C0B2002801D0FFF78AFF42
:102E4000F7BD042C1CD1002320009C462C4E3200E0
:102E50000321D778002F08D09578BD4205D10135E0
:102E6000D570654601339570DBB20139C9B2013ABC
:102E70000029EED10138C0B204360028E7D1D1E7ED
:102E8000012C1DD100210B008C461D4A0420451A3F
:102E9000101801901778002F09D05618705DB842AD
:102EA00005D101301070604601337055DBB20198D6
:102EB00001328242EED1043908000C30E6D1B1E78C
:102EC000032CB3D1002304209C460D4E3200210078
:102ED0001778002F08D05578BD4205D101351570FF
:102EE000654601335570DBB20139C9B201320029A0
:102EF000EED10138C0B204360028E7D192E7C046CF
:102F00003D03001070B5114A137801331370FDF7BB
:102F1000A7FB0022002306F08FFF002811D00C48E9
:102F20008021038800241A00012509018A4209D35F
:102F300000228B4200D8CA1A9B189BB2002C00D0EA
:102F4000038070BD01322C0092B2EFE774010010D3
:102F5000560C0010F8B50023134E3370134C144D6B
:102F60002778EB5D202B04D1280005F04FF987422C
:102F700009D32778EB5D202B04D0280005F046F913
:102F8000874204D3F8BD237801332370E6E7237822
:102F900030005A1CEF5C227005F038F9002330181D
:102FA00007704370E5E7C0461C0300101B030010C8
:102FB00099020010F8B50F4D0400280005F026F91D
:102FC0007F2811D80C4E3378002B0ED0002C0FD058
:102FD000062C0AD86034E7B2280005F017F9002360
:102FE0002D182F706B703370F8BD2E270A2CF3D07C
:102FF0003034F0E778030010F903001010B5064BE9
:103000001B78002B03D00122044B1A7010BD0A203C
:10301000FFF7D0FFFAE7C0460B040010F9030010D9
:1030200010B5FFF7EBFF10BD10B50920FFF7C2FF89
:1030300010BD10B5FFF7F8FF10BD10B50820FFF761
:10304000B9FF10BD10B5FFF7F8FF10BD10B5072090
:10305000FFF7B0FF10BD10B5FFF7F8FF10BD10B5BA
:103060000620FFF7A7FF10BD10B5FFF7F8FF10BD52
:1030700010B50520FFF79EFF10BD10B5FFF7F8FF54
:1030800010BD10B50420FFF795FF10BD10B5FFF778
:10309000F8FF10BD10B50320FFF78CFF10BD10B571
:1030A000FFF7F8FF10BD10B50220FFF783FF10BD3A
:1030B00010B5FFF7F8FF10BD10B50120FFF77AFF3C
:1030C00010BD10B5FFF7F8FF10BD10B50020FFF7D9
:1030D00071FF10BD10B5FFF7F8FF10BDF0B50C0083
:1030E0008BB0202109921322019005F04CF80020AA
:1030F000019BE100824CD8746418049022686368D4
:10310000834206DA19001000002342428B4101215C
:1031100004917C490125097805917B4908880021A3
:1031200006F0DCFE0A22002306F0D8FE0323059AEF
:1031300053432A0004339A40D31706F0ABFE05220E
:1031400000238018594100230A2206F0A3FE030041
:1031500006000F000B4318D1019D019A3033123540
:103160009374049B002B0AD0002600272D23013DD9
:103170002B703E4303D06549019805F04FF809993B
:103180000198FFF7F1FC0BB0F0BD614B019C1B787F
:103190001334002B00D0AEE0059B002B21D0019D05
:1031A000300039000A22002306F074FE3032AA747F
:1031B00000230A223000390006F06CFE019B013D1D
:1031C0005B1B059ADBB206000F009A42E8D8130099
:1031D000013BDBB2DA43A218E41A531E2E22023C52
:1031E0001A70049A250094460124019B63440593B8
:1031F00033003B43B5D0059B9D4277D96B1E300011
:10320000390002930A22002306F044FE6B1E30327E
:103210001A7030000A220023390006F03BFE029AA1
:103220000F000599060023008A420BD9552252420D
:1032300054430133E4B2DBB2552C03D82021AA1E3B
:10324000029211701C00029DD2E763463340029344
:10325000FB0FDB07039315D5029A039B0120404225
:10326000C11712184B411021012349421143029109
:10327000012000215B420393029A039B12184B41E9
:10328000029203936B461B7A5722092B00D8273AE8
:103290009B186246651E2B70FB171A40002306928E
:1032A0000793069A079B92197B41100019000209A7
:1032B0001B0713431E00089B0F119D420AD9059B53
:1032C00005995A1C0323D2B20B40059202D1A51EC8
:1032D00020332B7033003B4300D142E72C00019B8D
:1032E000049A9B180893A342AFD32500049B002B9C
:1032F00000D03BE73FE70F2305959C46EFE7C0462C
:10330000F01A0010E91A001044020010C8B10000C1
:103310000B040010F0B52D4CA5B0200004F076FF92
:10332000002803D120002A4904F078FFFF247D22E1
:10333000002104A8039404F026FF2100002403AD1B
:103340008022280004F01FFF23AB1C70214B1C704F
:10335000FFF700FE0094204F380004F057FF0028CC
:103360000BD12B78FF2B06D01C4B1D4A1B78290054
:10337000D05CFEF7CDF925B0F0BD3800FEF7D6FEE3
:10338000009B5C1CFF2815D1009BE4B2DB43E318D3
:10339000DBB23800019304F039FF019B661EF6B2E0
:1033A00083420AD2019BFB5C2E2B0AD1243BAB55F6
:1033B0000134E9E7009BE6B2E854FFF7CBFD009645
:1033C000C9E7303BDBB2092BF1D9F6E799020010CF
:1033D000CCB100001B0300101C03001054040010AB
:1033E0007310001070B5054B054C1B7825782370C1
:1033F000FEF732FB2570FFF78DFF70BD55040010FE
:1034000054040010F0B5BE4A85B01378002B09D0E3
:1034100000230120BB490B70BB490B70BB490870EE
:10342000BB490B70BB4B1B78242B00D09AE0BA4DE4
:1034300000242B78012B06D1B84A1370FEF700FF49
:103440002C7005B0F0BD022B00D086E0B44B2C7080
:103450001C70B44BB44D1B7814702A78002B2CD000
:10346000002A27D0B14C200004F0D0FEB04FB14E5E
:10347000002809D0052033780422FB5C2100584342
:10348000AD4B181804F05EFE052133782000FB5C7C
:103490005943A94B591804F0C1FE00232B70FEF7C5
:1034A000CFFE2000FEF742FEFDF722F93070FEF756
:1034B000D3FAC6E7FFF72EFFF9E7002A0FD09F4A9D
:1034C0009F4912789948D2005218C15CD154062BFA
:1034D00002D001330029F8D100232B70B1E7994BBA
:1034E0001B780293002B04D0FFF714FFFEF76EFE4B
:1034F000A7E7954B1B78002BA3D0944BFF261C7895
:103500002000FDF75FFB01340500E0B2FDF75AFB38
:103510000400FDF76DFB854F0190380004F076FE46
:10352000631B0393019B06401A1B611E0132A819FD
:1035300004F04BFEFF230398854A1840019B801B33
:103540009A1A121A181A0299013004F01CFE32005D
:103550003900280004F0F6FD73E702232B707D4B41
:103560001C706EE7232B11D16B4D2C78002C06D0EC
:10357000794E03213078013006F048FC3170013C6F
:10358000631E9C41734B2C70002233E0252B0AD123
:10359000614A1178012914D1002364496F481370DE
:1035A00004F03CFE4DE7262B0BD15B4A1178012934
:1035B00007D1002469495D48147004F02FFE684B60
:1035C000CEE7604A1278002A16D0262B14D1654B1C
:1035D0001A78654B1A70654B1A78654B1A70574B01
:1035E0001A78644B1A7000234B4A13704C4A1370BC
:1035F0000122614B1A7024E757490978002948D104
:10360000454C2178122B09D1002937D1002A4BD003
:10361000FFF780FEFEF7DAFD414BB5E7182B04D12A
:1036200000292BD1FDF75AF80BE7192B04D10029FB
:1036300024D1FEF77BFF04E71D2B0AD100291DD101
:10364000FDF74CF8FDF74AF8FDF748F8FDF746F8A6
:10365000E8E71E2B0AD1002910D1FEF767FFFEF71D
:1036600065FFFEF763FFFEF761FFE2E7212B05D15F
:10367000022900D0BDE0FDF723F8E2E627224A4305
:103680009B183E4ADBB2D05CFFF730FB002323706F
:10369000D7E6012900D0D5E0002B0DD1234804F056
:1036A000B5FD7F2800D9CCE620202D4B19784A1C87
:1036B0001A70FFF707FBC4E6012B02D10722304B3B
:1036C00098E7022B07D12F4A1378182B00D9B8E6B8
:1036D00001331370B5E6032B56D104220024294888
:1036E0000378182B02D80C000133DBB2013AD2B2B6
:1036F000002AF6D1002C00D1A3E60370A1E6C04653
:10370000FD0300107803001054020010150400108F
:10371000380400102A0400100804001003040010EC
:103720000704001012040010060400109902001093
:103730007310001054040010580C0010881400106E
:103740007D1100101904001024040010E81400106A
:10375000360000100C040010290400107501001040
:103760001A0300108A140010461100108B14001068
:1037700047110010451100101C0400102ECF00004E
:103780006A0100106C010010042B06D1454A137821
:10379000002B00D155E6013B9BE7062B05D1414AA2
:1037A0001378062B00D94CE692E7072B01D13D4B4D
:1037B000EAE6082B01D13C4AE9E7092B12D10422A1
:1037C0000020012438490B78002B02D02000013B57
:1037D000DBB2013AD2B2002AF6D1002800D130E69D
:1037E0000B702EE6212B07D1304B1B78022B00D11A
:1037F00041E7FFF757FA24E6122B04D12C4B002A9D
:1038000000D1F7E604E7182B00D10BE7192B00D104
:103810000FE71D2B00D113E71E2B00D11DE7254814
:1038200004F0F4FC7F2800D90BE61F4B18781D4BE1
:10383000C0001B782033C018C0B21F4B19784A1C37
:103840001A7036E7022900D0FBE50D2B04D11B4A84
:10385000137859424B413CE70E2BC5D0212B10D198
:10386000124A1278022A00D105E7154AD05C134BA0
:103870001B78002BE1D00300613B192BDDD82038E9
:10388000DAE70A2B00D1CDE60C2B00D1D1E60B2BC9
:1038900000D1D5E6032B00D1DFE6122BE5D1002ABB
:1038A000E3D0B5E66A0100106C01001008040010B6
:1038B00007040010990200101A03001032000010D3
:1038C00080D7000010B5FEF7BBFC0B490B4804F095
:1038D000A5FC002420000134E4B2FEF795FCFFF7BC
:1038E00019FD202CF6D10022054B013CE4B21A70E0
:1038F0000833002CF9D110BDCCB1000099020010A2
:103900007D110010F0B5AC4BADB01C78002C01D08F
:1039100001F099F984222100A848520004F033FCF8
:10392000A74BA84D1E782C70002E00D1C2E0A64BEC
:1039300018780438052826D806F0EEF8030E251E60
:103940008DB2A24BA2481B78002B00D1A1480022C7
:103950000321FCF755FD16E00BA909A8FDF748FD6A
:1039600006AB187D002303221900FCF73BFE06ABD3
:10397000587D0023152203E0974B0322187800237B
:103980001900FCF72FFE09AC04222021200004F0CE
:10399000FAFB0023914A2371914B12781B78012581
:1039A0001343904A1278134314D18F4B1B78002B8A
:1039B00003D08E4B1B78002B0CD08D4B1D788D4B7C
:1039C0001B781D438C4B1B781D438C4B1B781D4370
:1039D0006B1E9D4103F03CFCAF231B01984200DBB2
:1039E0008748884B984200DA1800874BAF21C018EF
:1039F0000A238900584306F023F92C230026C0B27D
:103A00005B424008181A6F4BE0701B780093B3427A
:103A10000DD008AF38000BA9FDF7EAFC06AB1B7D03
:103A200020000093F97806AB5E7DFCF753FD774FDD
:103A30003B78002B05D0764B1B78002B01D0403310
:103A4000A370744B1B78002B01D100F0CFFF6533BE
:103A5000A37001F00DF80BA909A8FDF7C9FC06AB8E
:103A60009889002303221900FCF7BCFD06AB987B64
:103A7000002315221900FCF7B5FD06ABD87B002307
:103A800027221900FCF7AEFD09A803F095FD0721D8
:103A900006F0BCF960488B0000223921185858E71D
:103AA0005E4B0322187800231900FCF79BFD5C4B4A
:103AB00018785EE75B4B1C78002C25D05A4B052408
:103AC0001B785A4D0093009A594B944663440293D5
:103AD000013B18783200604303214019FCF790FC49
:103AE0000223544F009A3B70514B1E21985C3200C8
:103AF00060434019FCF784FC0122029B5121587855
:103B00003A706043401924E7384B4B4A1B781278CF
:103B1000134300D19CE0494F7F203978FFF7D2F85A
:103B20003D78474E103DEB433000DB171D4004F05D
:103B30006DFB7D22009021000CA80B9404F023FB68
:103B4000009A112A00D9112271190BA804F0FAFA6F
:103B5000002203210BA8FCF753FC3878FFF792F8FA
:103B6000384B1B78012B0AD0334B1B78002B00D12C
:103B700009E7012203210020FDF73CFF03E732257E
:103B8000314B012218782900C00020302018C0B223
:103B9000FCF7E8FB2D4B1B78A34206D10635EDB2AE
:103BA000012229007F20FCF7DDFB01340635E4B259
:103BB000EDB2082CE4D1D7E71D04001080130010EB
:103BC0000D040010130400108914001028000010C8
:103BD000BAB60000D0B1000033000010FE030010A0
:103BE0000104001011040010240400100704001048
:103BF000FA0300101804001002040010230400103F
:103C0000EF0A000034080000CCF7FFFFFC030010AF
:103C1000500300100804001048BD0000201C0010D4
:103C200039010010030400104C020010580C001061
:103C30007310001026000010FD0300101A0300107E
:103C400099020010290400106C0100106A01001094
:103C5000CC4BCD481C78002C00D08EE2CB4B1B788F
:103C6000002B6CD0CA4BCB4D1E685F682A686B680E
:103C70003000390004F04AFF02000B003000390028
:103C800005F0A6F80022C44B06F0DAFA06F054F963
:103C9000C24EC34FC3B2029332687368009201935D
:103CA000009801993A687B6804F030FF02000B002D
:103CB0000098019905F08CF80022BA4B06F0C0FA82
:103CC00002000B000020B74906F026FD06F034F98B
:103CD000C3B202223068716800932300FDF7B8FA7E
:103CE0003868796823003222FDF7B2FAA84B022225
:103CF000186859680123FDF7ABFA28686968012341
:103D00003222FDF7A5FA0F272500A74B6235E15CAB
:103D1000EDB2791A2800C9B2FCF7CCFB01342800B7
:103D20000099FCF7C7FB202CEED1FF2102989F4A97
:103D30006230C0B2131884331970115423E69C4BBF
:103D40001B78002B00D198E09A4E3478002C49D093
:103D5000994B1B781D001C1E18D0984A013BDB00B4
:103D6000D3181D685C68002200232800210006F09B
:103D700069F8002802D080231B06E41800220023E3
:103D80002800210006F072F8002812D12800210036
:103D900006F0F0F801230322FCF724FC0023337023
:103DA000F1E5280021000022854B04F063FF0500A7
:103DB0000C0028002100834A834B06F043F80028BA
:103DC000EFD128002100814A814B06F059F80028E4
:103DD000DCD0280021000022794B04F0F9FF050017
:103DE0000C00EEE77B4B1B78002B19D008237A4D93
:103DF0000122032120002B70FDF7FCFD0122382158
:103E00001000FDF7F7FD220003210220FDF7F2FD6F
:103E1000220038210320FDF7EDFD09232B70B2E5C8
:103E20006E4B6F481B78002B13D002226D4B1A701B
:103E300004F0ECF9002807D009210020FDF71AFA58
:103E40000122684B1A709EE502000321FDF7D2FDA6
:103E5000F6E704F0DBF9041E07D011210120FDF77D
:103E600009FA00220321100086E601220321FDF752
:103E7000C1FD2200032101207EE65B4B1B78002B55
:103E80002DD05A4D280004F0C1F90400112800D9A2
:103E90001124290000250BAE2200300004F052F955
:103EA0002A00032130003555FCF7AAFA0520504BB3
:103EB00001221C784F4B03211B5D58434E4BC01809
:103EC000FCF79EFA01233F2220002900FCF78AFB21
:103ED0004A4B5722187801230138C11751E5484B46
:103EE0001B78002B37D0474B1C78474B1B78002B97
:103EF00009D002233B4D00220E2120002B70FDF73C
:103F0000DBF901238AE7414B1B78002B03D0032CFC
:103F100001D9043CE4B23E4B1B78002B03D0002CAB
:103F200001D0013CE4B2200000220621FDF7C4F9D3
:103F3000601C00223B21C0B2FDF7BEF9201D01220A
:103F40000621C0B20534FDF7B7F901223B21E0B2EA
:103F5000FDF7B2F917E52F4B1B78002B60D0022339
:103F6000204D03222B702C4B1C780023601C190061
:103F7000FCF738FB294BA40000221B21E058FCF77A
:103F80003FFABEE71F040010E6B10000160400105F
:103F90004004001048040010000040407011001060
:103FA000681100100000304048110010801300100C
:103FB000FC030010200400105402001058020010EE
:103FC000000024400000901EC4BCD64200003426ED
:103FD000F56B0C43FB0300102500001027000010B8
:103FE000780300102600001012040010990200103F
:103FF0005404001073100010580C001072100010C0
:1040000019040010881400101A0400108B140010FA
:104010008A140010050400109802001088BD0000EA
:10402000E04B1C78002C2ED0DF4804F0EFF8DF4C7A
:10403000011E0ED012210120FDF71CF92178002964
:1040400000D1A0E400220139C9B20BA8FFF746F85D
:1040500099E42378012B0BD9023BDBB20200190053
:104060000BA8FFF73BF821780139C9B20122ECE730
:10407000002BFBD1CE490BA804F0D0F801210BA8EE
:10408000FEF772FD7FE4CB4B1E78002E49D0CA4B61
:10409000220019786D20FCF773FDC84B01221978B6
:1040A000AA20FCF76DFD220044216120FCF75AF99B
:1040B000C34B220018784A21FCF7D8F92200592175
:1040C0007220FCF74FF9BF4B220018785F21FCF7F4
:1040D000CDF901224421B220FCF744F9BA4B012268
:1040E0001D784A212800FCF7C1F901235922280034
:1040F0002100FCF777FA1F2D04D901226E21280038
:10410000FCF730F9B14B1B78002B00D13BE4B04BEE
:104110001A78002A00D036E444213F20FCF722F927
:1041200031E4AC4B1C78002C5AD0AB4B1C78AB4B19
:104130001B781C434AD00BAC18222021200004F02D
:1041400022F8A74909AD062228002676023103F09D
:10415000F9FF3300A348002206E0E95C89006118FA
:104160008E540132042A02D0865C0A2EF5D1013029
:104170000133FF30062BEED12000FDF7F5F8FFF7F5
:1041800002FC7D19EEB23000FCF71CFD0136050083
:10419000F0B2FCF717FD401B0138132800DD132097
:1041A000FF230BAE03401A0029003000009303F0F8
:1041B000C9FF0023009A0321B35430003A00FCF7F2
:1041C0001FF9012C01D1FFF7DEFB0124864BE7B27A
:1041D0001D782E19FCF71AFD8642D2DBFFF7D3FBC0
:1041E000824B1B78002B00D18BE00522804909A867
:1041F00003F0A8FF142220210BA803F0C4FF2822FB
:1042000006AB9B181C707B4B7B4C1B78002B00D1A2
:104210007A4C200003F0FAFF210002000BA803F003
:1042200091FF774B774C1B7806AA7F3B93772378D7
:10423000754A013B9B009D58280003F0E7FF2900C9
:1042400002000EA803F07EFF704F09A83B683A6891
:10425000DB17FCF759F9102209A90BA8FDF7F5F8AF
:10426000002203210BA8FCF7CBF83B68207899B219
:10427000FEF742FC1422060020210BA803F083FF66
:104280002822002506AB9B181D700222202109A8B8
:1042900003F079FF002306AA937313005F225A7379
:1042A000574BECB21B78002B1BD1B44205D3A11B9A
:1042B0000131C9B209A8FCF70DF909A803F0A6FF5E
:1042C00003240200200068430BAB181809A901352C
:1042D00003F038FF072DD8D1012221000BA8FFF7EA
:1042E00038FB0722534301339B1BE4183B68E4B2BD
:1042F00099B2444B1878FEF733F88442DDD8210098
:10430000D8E7434B1C78002C00D18DE008A907A802
:10431000FDF76EF806AB5C7A06223E490BA81F7AC1
:1043200003F010FF20000A2105F086FC3031CBB2EB
:1043300020000A21009305F0F9FB0A21C0B205F024
:104340007BFC09243031CBB2334E02930BA909A870
:1043500003F064FF304B35781B78FB1AEB18D9B2A9
:104360005AB21B065CD51831C9B209A8FCF7B2F8DD
:10437000009A06AB1A74029AAD00DA73274B21003B
:10438000E8580022FCF73CF8A11F24340122C9B2EE
:1043900009A8E4B2FCF734F80136752CD6D1FFF742
:1043A000F2FAC0462704001078030010EA1A001041
:1043B000FFB10000FE030010370200103A020010A7
:1043C000480100107911001038020010FF0300109E
:1043D00000040010240400101E040010100400103B
:1043E0008FB90000E9140010E81400100104001057
:1043F00056B2000014040010D4B10000DDB100007A
:104400003C0200103B020010F0CF00004002001000
:10441000250400105BB200003601001048DA0000ED
:10442000172AA2DD18399FE7E64B1E78002E24D00C
:104430000222E54B21001A70E44B01321878230068
:10444000FCF7D0F8E24B5D22187821002300FCF73E
:10445000C9F8E04B1B78002B00D1F1E4DE4B2100C2
:10446000187821222300FCF7BDF8DC4B3F22187896
:1044700021002300FCF7B6F8E2E4D94B1B78002BAF
:104480002FD0112231000CA80B9603F07CFED54DE5
:1044900003222878330000210130FCF7A3F8FCF751
:1044A000C7FBD14B0BAC8000C158200003F0B6FE17
:1044B000CE49200006F05EFE2B78CD4ADB009958ED
:1044C000200006F057FE2B780F212675082B00D907
:1044D000063100222000FBF793FFFCF7BFFBFFF73C
:1044E00052FAC44B1C78002C00D19FE00BAC210089
:1044F00009A8FCF77DFF23780824092B00D9023492
:10450000BD4B00251B780093BC4B1B780493009B8C
:10451000072B06D80A20BA4B009A9D5C049B5D438A
:104520004543B84BFA261B68B6000293B64B1B688E
:104530000393B64B039A1F68029B3900981AC34332
:10454000DB171840704305F07BFBB14B05901868F2
:104550002100704305F074FB059B00221818441BD2
:10456000E343DB171C40AB4BAB4D1C60AB4B032153
:104570001B68E42073432B60FBF7F4FE029B0922C7
:10458000D91702980023FCF72DF800221B21AA203E
:10459000FBF7E8FE039B2122D91703980023FCF7C1
:1045A00021F800223321A820FBF7DCFE002339226A
:1045B0003800F917FCF716F800224B21B420FBF75E
:1045C000D1FE0023512219000498FCF70BF80023B8
:1045D000632219000098FCF705F800226921682081
:1045E000FBF7C0FEFCF73AFB01224B21B220FBF7A0
:1045F000B9FE6421200005F023FBC11704F0FCFE86
:104600000022874B04F0E4FB01235122FCF720FE3B
:1046100001226921E120FBF7A5FE3100286805F0A1
:104620000FFB01236F22C117FFF7ABF97D4B1B78FE
:10463000002B2CD07C4B22001D78032102352D014C
:10464000EDB22800FBF712FF01230322280021000E
:10465000FBF7C8FF5A22FE21744803F094FD062799
:104660003E00200066431B36F6B28038002231003F
:10467000C0B2FBF777FE2819013401223100C0B225
:10468000E4B2FBF76FFE102CEAD1FFF77CF9684B20
:104690001B78002B00D1D5E0664B03221E78002347
:1046A000701C1900FBF79EFF0F25082E03D9063555
:1046B000622E00D90635604C33011E5B0022300AA1
:1046C00029000093FBF74EFEF0B20022A91DFBF774
:1046D00049FE009B0720E3185F882A00002338402A
:1046E00019001232FBF77EFF00232A002E003F063E
:1046F000FF0E380019001E32FBF774FF3036092F09
:1047000001D82A352E00009B3200E5180023E87BF3
:104710001900FBF767FF686806F0F6FB0022474BBD
:1047200004F056FB32000C320023D2B2FCF790FDAD
:10473000404B03221B7800211B010093E3185D8985
:1047400001232800FBF74EFF1526632D05D9FA2318
:1047500006369B009D4200D30636009B3200E318CC
:104760009F89002101233800FBF73CFF632F20D8ED
:1047700035001235009BE318987B06F0C5FB00223C
:10478000274B04F025FB2A000123FCF761FD294B90
:1047900015351B781B01E418208906F0B5FB0022B3
:1047A000274B04F015FB0123EAB2FCF751FDFFF79C
:1047B000EAF8FA2335009B001E359F42DAD2063D07
:1047C000D8E7C04611040010260000105004001065
:1047D0005104001030000010520400105304001067
:1047E0000A04001054030010D8BA000059B20000A7
:1047F00070C30000230400105C0300102C040010A0
:10480000E7CF00001C000010200000102C0000105A
:1048100070010010600300104802001058030010DF
:1048200000002440FA0300106B0100109B130010DD
:10483000180400107811001020D0000000408F40B4
:10484000000059406D4B1B78002B20D06C4B03228D
:104850001878002301301900FBF7C4FE694C64206E
:104860002378002B00D15C3000221521FBF77AFD64
:10487000002221210120FDF799FD207801224342E9
:10488000584103210230FDF791FDFFF77CF85E4AA5
:104890001278002A0CD15D4B5D481B78012B03D0A8
:1048A0005C48022B00D05C48FCF75EFDFFF729FB5B
:1048B0001D000024594FFA1894465A1ED2B2039292
:1048C000624601201278511E88402D18ADB220009A
:1048D000012B02D90821081BC0B2514EC000D200E2
:1048E000C11C92190B3000920290039E0020012EF1
:1048F00000D984304B4E7218009E01313678165420
:10490000009A0298013200928142EED104220134D1
:10491000E4B294449442D3D101339342C9D10023E9
:10492000502219002800FBF75DFE3F4B1A88AA426F
:1049300000D21D801888502201230021FBF752FE6F
:104940003800230001220021455C002D4AD00131AE
:104950000429F9D1013BDBB20430002BF3D1002A4A
:1049600001D1FFF710F804252100F81AEE1A057896
:10497000AC461D18AD5DAC4536D00139C9B2013029
:104980000029F4D1043B19000C31ECD1002A01D1EB
:10499000FEF7F9FF79783B788B4205D0BB789942D6
:1049A00002D0F978994200D10022013CE4B20437E8
:1049B000002CEFD1002A01D1FEF7E5FF18222100DB
:1049C0001A4803F0E0FB18222100194803F0DBFB32
:1049D000220003211748FBF713FD0122032116488B
:1049E000FEF7B7FF2A00B5E70022CBE7134B1B7891
:1049F000002B25D05B012833FFF72AF802040010B2
:104A00004D020010290000100904001008040010D5
:104A10000BB2000024B200003DB200003D030010C4
:104A2000DDBE0000801300104E0300108313001041
:104A30000714001001B2000006B200000C040010C0
:104A40008E4B1B78002B00D106E18D4A0BAB0B92ED
:104A5000B5225A7030329A708A4A12789B5CA370E1
:104A6000022A05D1884B1B78002B01D0B423637038
:104A7000864B1B88002B05D1854B864A1B78127804
:104A8000134301D0E223A370834B1B78002B01D08A
:104A9000DA23A370814B1B78002B0AD103206B42D1
:104AA00018407F212018002D00D112390022FBF779
:104AB000A7FC04222021200003F065FB00232371C2
:104AC000774B1B78002B13D020000099FBF702FDD9
:104AD0000A21300005F0B0F83031E17030000A21D1
:104AE00005F024F80A21C0B205F0A6F83031A17013
:104AF0006C4B1B78002B1AD06B4B0A211E783000B0
:104B000005F09AF83031A17030000A2105F00EF856
:104B10000A2180B205F090F830316170632E00D820
:104B2000A4E06421300005F001F8303020705F4BC4
:104B30001B78002B0FD0FBF711FE64235843C012E3
:104B40000A21053005F07CF8C0B221230A2801D8DB
:104B50003030C3B2E370564B1B78002B0ED0FCF7FD
:104B600047F8544BFF21C31A6420584305F068F8F6
:104B70000A21053005F064F83030E0704E4B3A7889
:104B80001B78134312D04D4B1B78002B06D04C4B97
:104B900019788A23002900D16233E370002A05D0F6
:104BA000484B1B78002B01D04323E370464B1E7803
:104BB000002E06D00D20454B197806ABC018FBF728
:104BC0004DFE364B1B78002B0AD103206B42184058
:104BD0007F212018002D00D112390122FBF710FC93
:104BE000002E10D001235B420B93384B03201A7820
:104BF0000123104092089340DB430BA90B5404227D
:104C0000334803F09FFA334B1B78002B1BD0324BF9
:104C1000FE211A78314B12019B185C8812220BA8D6
:104C200003F0B1FA23060BAADB0ED31807220121E9
:104C30001440A140093A4A40013B1A702848122208
:104C40000BA903F07FFA0020FCF774F90120FCF7B0
:104C500071F900202DB0F0BD174B1B78002B00D14F
:104C600006E7204B1B783033FEF7F2FE202323703B
:104C7000092E00D95BE7637059E7C04607040010AE
:104C8000316371002904001032000010560C00102E
:104C90001B040010000400101C0400101604001077
:104CA00013040010030400104C0200101204001042
:104CB0002404001036000010270400100B0400101C
:104CC000F9030010FB0300101904001088140010F1
:104CD00083140010180400107811001020D0000078
:104CE00076140010E91A001010B5FDF7D7FB02F09A
:104CF000E1FB02F0FAF80020012102F045FF00205C
:104D000002F0ECF9002802D1012102F03DFF02F08F
:104D10003DF9C820FCF702F97020FCF7FFF810BD40
:104D2000F0B587B003F0A4FA02F098F9C820FCF7B8
:104D3000F5F87020FCF7F2F80021DE4802F098FD4B
:104D40000021DD4802F094FD02F0F3F90122042174
:104D5000002002F01FFD00220421100002F066FD79
:104D600001220521002002F015FD0022052110007E
:104D700002F05CFD002002F051FCD04C002120002C
:104D8000CF4A03F000FAE1222000CE49920003F05E
:104D9000D9F9B422CC4BCD4C1A70802200211201DB
:104DA000200003F0F0F9CA4ACA49200003F0CAF90A
:104DB00040221F21C84803F0E6F9FCF739FB83B213
:104DC00003930023C54C02932378002B02D0FEF7F7
:104DD00099FD2070C24B1E88002E00D1E8E0701CA7
:104DE00080B21880B94B9D5DFF2D00D0C2E0BD4B55
:104DF0001A78002A00D18DE0FBF752FCB84B1880DE
:104E0000B94B1B78002B01D0FDF756F9012002F0B9
:104E100065F9002810D00023B24A1370B04A1380FD
:104E2000B24A1370B24A1370B24A1370B24A137086
:104E3000B24A1370FDF732FBFF23B14A1370FCF73F
:104E4000F7FA039BAF4DC01A2B78984202DD22235C
:104E5000AB4A1370AA4B1B78FF2B00D1C4E3029A14
:104E6000934200D1C0E3A84E3378002B44D00124F4
:104E7000A64A21001368200023431360A44A022796
:104E8000136823431360220002F084FC22000221F5
:104E9000200002F07FFC00222100200002F0C6FC6E
:104EA00022000221200002F0C1FC200002F0ACFE32
:104EB00022002100200002F0B9FC20000022022183
:104EC00002F0B4FC200002F09FFE012F00D055E359
:104ED0003A003900380002F0A9FC3A0002213800FB
:104EE00002F0A4FC00223900380002F053FC00223A
:104EF0000221380002F04EFC814B1C78222C00D09D
:104F00003EE3FF237E4A1370FFF7EEFE0122734B50
:104F10001A7060E3754B1B78002B11D0704B1A8010
:104F2000FDF7CAF87B4B1C787B4B1B78E41AFBF728
:104F300097FB013CE300794CE4182060616065E771
:104F4000674A13806A4B6C4A1B7812781343694A8C
:104F500012781343724A12781343724A1278134339
:104F6000664A1278134300D050E701332370FDF7EF
:104F700095FA4BE7362D13D80A2D03D9182D01D0F9
:104F8000FDF79AF8684BAD00EB589847674B1B78D4
:104F9000002B01D1664A13700022664B1A7035E768
:104FA000FBF772FB2800FBF7C7FB4D4B18802DE782
:104FB000514B1B780193002B54D05F4F3B7801334A
:104FC000DBB23B70022B0DD807D1FCF731FB5B48FD
:104FD0005B49FCF753FAFDF78BFB5A4B1B88404AA1
:104FE00013802CE7FCF724FBFDF7B4FB00205649A7
:104FF000FCF744FAFDF77CFB50485149FCF73EFAB8
:10500000FCF716FBFDF7A6FBFBF72AFBFCF736FACD
:105010000D000190FDF71EFC0022002329000198DD
:105020003E7004F00FFF002802D080231B06ED180D
:105030002900424A424B019804F004FF002803D1A2
:10504000424D2B78142B05D90123237000232A4AC3
:105050001370C4E7FCF72CFBFCF72AFB2B78013319
:105060002B70ECE6234B1F78002F00D1CEE0324BA3
:10507000314A1B781A490133DBB21370314A128866
:105080000A80012B00D1DAE6314C26686768022BD2
:1050900062D1FBF7E5FA0B0002003900300003F0A3
:1050A0003BFD2C4B2060616018685968FCF7E6F9FD
:1050B000C5E6C046984004409C400440580C00108F
:1050C0001A040000AACB0000721000105604001051
:1050D0007405000036C60000F70100103100001012
:1050E000560C001049010010190400101B04001098
:1050F000150400100E040010220400100404001017
:105100002A04001033000010280000107C400440E6
:10511000804004407B1100107C11001080120010B0
:1051200021040010170400100CBB0000FD03001048
:1051300008040010FB0300107D120010FCA9F1D23E
:105140004D62503F520300100000F0BF2B040010CE
:105150007003001040040010D44D032B11D1FBF755
:105160007FFA02000B003000390003F0D5FC2A68FA
:105170006B6820606160CE490868496803F0CCFC28
:1051800094E7162B2BD80024DB0726D58025ED05C8
:10519000FBF766FA02000B002000290003F06AFD0D
:1051A0000B0002003900300003F0B6FCC14B186060
:1051B0005960BF4B1C685D68BC4B1E685F68BE4B86
:1051C0001878023805F070FE32003B0003F052FD03
:1051D00002000B0020002900D0E7B84DD8E7FBF70C
:1051E0003FFA2A686B683000390003F043FD002263
:1051F000B34B03F0EDFDFCF741F90122B14B1A70FE
:10520000B14B019A1A70B14B1A8018E6B04B1A785C
:10521000002A6ED0A84AAD4913780133DBB213706F
:10522000AC4A12880A80012B00D108E6A14E3468EE
:105230007568022B13D1FBF713FA02000B00200054
:10524000290003F069FCA44C30607160206861683B
:10525000A24AA34B03F060FC2060616026E7032BA9
:1052600022D1FBF7FDF902000B0000209D4903F05D
:1052700001FD02000B002000290003F047FC306014
:1052800071608021944E954A954B00203468756872
:10529000C90503F0EFFC02000B002000290003F019
:1052A0003BFC3060716001E7042B08D1FBF7D8F9B3
:1052B00002000B0000208B4903F0DCFCBDE7FBF78C
:1052C000CFF902000B002000290003F01FFC002290
:1052D000854B03F07DFD814A814B03F079FDFCF79E
:1052E000CDF80122774B1A70794B1F70774B1F80D6
:1052F000A5E57E4B1978002900D18CE06E4D7348EE
:105300002E780136F1B20191297072490988018025
:1053100077490878002845D1019B012B00D18EE503
:10532000634B1E685F68019B022B0AD1FBF798F95B
:10533000704B18605960704B18605960300039002C
:10534000B4E6019B222B29D8FBF78AF90D000B004C
:105350006949040002000868496804F087FD0028D4
:1053600002D0654B1C605D60624922000868496894
:105370002B0004F067FD002802D05E4B1C605D60CE
:105380000198023805F090FD484B1A685B6804F0FC
:1053900057FF02000B0030003900EFE601232870B0
:1053A0000B70CBE70199012900D148E521292ED8BE
:1053B000514C26686768FBF753F902000B00300078
:1053C000390003F0A3FB4B4B06001A685B680F0023
:1053D0002068616803F09AFB02000B00300039007E
:1053E00003F0F6FC2B78454C00220193E418444B63
:1053F00004F026FF04F0A0FD2D4B023C20701C6839
:105400005D682A4B1E685F68019B581EDAE6012121
:105410001A70217013E53B4A1378002B10D03A49DB
:105420000B68581E0860002B06D0384B1878FBF725
:1054300083F9264B188002E5137001232370FEE4E4
:10544000334E3578002D19D0FDF784FD314D2800FD
:1054500002F0DCFE00280BD02800FCF767FE0300FA
:105460000B3BDBB2F32BE2D92800FCF7C3FDE6E4EB
:10547000294B30701870FDF711F8DEE7274E3378AE
:10548000002B53D0264F274B3C781D702000FBF794
:1054900053F90E4B01341880234BE4B21B783C7057
:1054A000A34200D3CBE43570C9E4C04668030010C2
:1054B00040040010700300107D1200100000104026
:1054C00000000840310000100E040010560C0010BF
:1054D000210400105203001090140010FCA9F1D216
:1054E0004D62503F0000204000002840170400108B
:1054F0002B040010681100107011001048110010EA
:1055000000002E4004040010500200102D04001072
:10551000150400101C0300101B0300101B040010D6
:105520007B110010540200107A110010B54C237842
:10553000402B17D0B44A13705A1C2270B34AD05C67
:10554000B34B1870FBF7CCFAB24B8000C3589847A6
:10555000FBF7B8FC002800D171E440232370FCF76E
:105560009DFF6CE40A20AC4B03211B78584302F0EA
:105570000BFBFCF767FFA94B187060E427008AE477
:10558000A74A1178002900D1D9E0242C04D10023A6
:10559000A4490B7013701EE0A34B1B78042B04D19D
:1055A00033785A425341337015E0052B37D105AC9F
:1055B000210004A8FBF71CFF984B1B78132B17D175
:1055C0002378172B01D80133DBB22370002221008E
:1055D00004A801F0C1FF954B1B78002B00D199E185
:1055E000FBF726FF83B203938C4B1B78FFF7EAFB94
:1055F000182B04D12378002BE7D0013BE4E7142BD0
:1056000006D163783B2B01D80133DBB26370DDE751
:10561000192BDBD16378002BF8D0013BF5E7072B82
:1056200029D1132C06D12B78EF2B01D80133DBB213
:105630002B70D0E7182C04D12B78052BF8D9013B1F
:10564000F5E7142C0AD105222B78EF2B01D8013372
:10565000DBB2013AD2B2002AF7D1E9E7192CBAD16C
:1056600005222B78052B01D9013BDBB2013AD2B2DE
:10567000002AF7D1DCE7082B40D105A904A8FBF7E5
:10568000B7FE664B1B78132B0AD104AB1B88622B29
:1056900001D801339BB204AA1380002205A997E721
:1056A000182B05D104AB1B88002BF4D0013BF1E78C
:1056B000142B08D104AB9B780B2B01D80133DBB240
:1056C00004AA9370E9E7192B05D104AB9B78002B52
:1056D000F6D0013BF3E7152B08D104ABDB781E2B8A
:1056E00001D80133DBB204AAD370D6E71A2BD4D188
:1056F00004ABDB78002BF6D0013BF3E7092B00D09D
:1057000069E7132C06D14A4A13783E2B0BD8013394
:10571000DBB208E0464A182C0CD0142C07D1454ABD
:105720001378062BF3D9137001F00AFC53E7192CF8
:10573000FAD1404A1378002BF5D0013BE8E7394B0A
:105740001B78002B12D0242C02D1364B197042E763
:10575000062C03D1384B394A1A603CE7231F052B2E
:1057600000D938E7304B1C70012313E7344D2A78F9
:10577000002A00D1B9E0242C02D12B70FFF7C6FB20
:10578000012C06D12F4B1B78013B2F4A1370FFF7DA
:10579000BDFB042221009143022909D12A4C294B47
:1057A00020781978013004F031FB2170FFF7AEFB4F
:1057B000072CEAD0032C10D1234D224B28781E78D9
:1057C00007343100013004F021FB013CE4B2C8B2DF
:1057D000002CF6D12870FFF799FB231F9343DBB20F
:1057E000002B03D1FBF71AF8FFF790FB092C2DD102
:1057F0000134013CE4B2FBF711F8002CF9D1FFF7BA
:1058000085FBC046240000103A020010F70100108A
:10581000F6010010E8BB0000330000102A0400105D
:105820000D0400101F04001089140010FD03001067
:10583000201C0010390100100CED00E00400FA05F6
:1058400003040010721000104C020010052C01D04F
:10585000122C31D1BC4B1A78BC4B1B78134305D1A9
:10586000BB4ABC491278895CBB4A1170BB4A1478A8
:10587000002C0DD0B64BB74A1B78D05CFAF75CFF12
:10588000B74B1880FCF70AFE0023B64A137074E782
:10589000B54A12781343F5D0AD4BAE4A1B78D05CB5
:1058A000FDF724FA0122B14B1C70B14B1C70B14BB7
:1058B0001A70B14B1C70E5E7132C08D1AF48FCF708
:1058C00035FCFAF715FFA24B1870FFF71FFB2300FA
:1058D000143B082B01D9FFF719FBA94B0A211878B3
:1058E00004F024F9133C6043EDE7A64F964A3B7859
:1058F0001278134302D0FDF785FD6CE6A24A1678B4
:10590000002E0BD013700922A04B1A70FAF7A8FED4
:10591000FAF7A6FE01229E4B01F02AFA8F4B1A7865
:105920009C46002A00D189E08E4F3B78012B01D0A4
:1059300001F07AFA1C2C01D001F06AFAFCF7BCFBEA
:10594000944A3E70137859424B41137043E6022348
:1059500000223B70904B1A70DCE78F4A232C06D153
:10596000013B591E8B413B7000231370D2E7192C69
:105970000BD1012B03D1137000233B70CAE7022B1C
:1059800003D1137000233B70C4E71178012919D1AA
:10599000002313701A2C05D14620FAF7CDFE704B68
:1059A0001880B7E71B2C05D14820FAF7C5FE6C4BD1
:1059B0001880AFE71C2CADD14A20FAF7BDFE684B2A
:1059C0001880A7E7022919D1002313701A2C05D1DA
:1059D0004720FAF7B1FE624B18809BE71B2C05D1DC
:1059E0004920FAF7A9FE5E4B188093E71C2C91D151
:1059F0004B20FAF7A1FE5A4B18808BE7182C09D1DF
:105A0000012B07D1654A137859424B41137000238B
:105A10003B707FE727225343E418E4B2752C00D98A
:105A200078E70A2C03D9212C01D0FCF745FB5C4B0D
:105A3000185DFAF781FE4A4B1880CCE54A4B19787D
:105A4000002900D1FDE0242C01D11A7006E0012CC0
:105A500007D14B4B534A1B78013B1370FBF7FCFFFC
:105A6000B9E5022C08D14F4C454B2078197801300C
:105A700004F0CCF92170F1E7032C0FD1494D404BD4
:105A800028781E7807343100013004F0BFF9013C5A
:105A9000E4B2C8B2002CF6D12870DFE7052C01D0A3
:105AA0000F2C04D101233B70FBF7D6FFD6E70E2C59
:105AB00003D101233C4A1370F5E7072C02D10022E1
:105AC000384BC2E7082C02D1FAF7B8FEC6E7092C1A
:105AD00007D10134013CE4B2FAF7B0FE002CF9D151
