:10000000F01F0010B99A0000B79A0000B79A0000DC
:10001000B79A0000B79A0000B79A000000000000ED
:10002000000000000000000000000000B79A00007F
:10003000B79A000000000000B79A00008D7B000016
:100040007179000071790000717900007179000008
:1000500071790000717900007179000071790000F8
:1000600071790000717900007179000071790000E8
:1000700071790000B59A0000B59A0000C100000037
:10008000297C0000417C0000597C0000717C00004C
:10009000B59A0000E57C0000B59A0000B59A000012
:1000A000B59A0000B59A0000B59A0000B59A000014
:1000B000B59A0000B59A0000B59A0000B59A000004
:1000C000594A10B5136801331360584B584A1B68DE
:1000D000DBB2302B00D176E018D8182B5AD005D8D7
:1000E000082B37D0102B46D0082351E0202B00D10D
:1000F0007AE0282BF8D14F4B4F491868096888429D
:1001000052D21968481C18604C4B48E0482B00D16B
:100110006AE00AD8382B60D0402BE5D1484B1968EB
:10012000042301295DD11360DEE7502B66D0582BE4
:10013000DAD14448444B1B680168DBB24C1C0460B4
:10014000424843540221424BFF3119608023F13968
:10015000DB0530E00021374B19601968481C186036
:10016000364B5B5C3849DBB20B60282313600122FD
:10017000374B1A6010BD0021324B19602D490B68B6
:10018000581C08602D49CB5C2F49DBB20B6028233B
:100190001360EFE727490B68581C086027495B5C30
:1001A0002949DBB20B609FE7254B19688023DB05EB
:1001B000002902D02021196096E702202449FF304F
:1001C00008601021F7E780231021DB051960082360
:1001D000136081221E4B5200CBE782211C4B490049
:1001E000E9E78021C905DDE780231021DB051960DF
:1001F000082313600422164BFF32BAE71149124B51
:100200001B680868DBB2441C0C60104C23540C4B78
:100210001B680868013B0421834202D98023DB0567
:10022000C9E7116060E7C0463C1E001004000040B2
:1002300018000040381E0010301E0010081E00106C
:100240001C1E0010341E001008000040201E00106C
:10025000181E001002231B4A70B511681A4D0B437B
:1002600013602023194A040011680B431360184BD4
:100270001A682A401A600122186810431860154B4A
:1002800019682940196019680A431A606C22124BD8
:1002900012491A60124B186809F0C2FC114B186021
:1002A000114B1860022C02D1A022104B1A60802240
:1002B0000F4B12021A6080234022DB0501201A60D6
:1002C00070BDC04604800440F8FCFFFF80800440FD
:1002D000304004403440044018000040400D03000A
:1002E000381C001014000040100000400C000040BA
:1002F00000E100E00000000000000000000000003D
:100300000122F8B508210600100007F07FFA072443
:10031000082700223900012007F078FA3200012571
:100320002241022100202A4007F070FA2A003900F9
:10033000280007F06BFA013CEBD2F8BD70470000D3
:1003400007490B889808DA0842405A40580950403B
:100350000122D3401040C003184308807047C046B4
:100360003400001084235343F7B55918194B203833
:100370001B78C0B2009305235843174B174CC31882
:100380000020174E0193019B009D1B5C022D1DD187
:100390001F09F75D4D1C3F02BC460F273B406746D7
:1003A000F35C3B431BB25F00FFB267556754852780
:1003B000BC4661188C4467465B041B0E84313B705D
:1003C0000B700130691C0528DDD1F7BD93400D008D
:1003D0006354F6E7260000103DBF000080130010B4
:1003E00050BE0000F8B504000D0016000627207866
:1003F000002800D1F8BD29003200FFF7B3FF034BFE
:100400000134197879436D18EDB2F0E72600001039
:10041000F8B506000D0017003078002800D1F8BDAF
:10042000094B1C782E2809D13A00291BFFF79AFFA7
:1004300003235C432D19EDB20136EDE73A002900A4
:10044000FFF790FF0623F4E7260000100F2313B5F3
:1004500003405724092B00D8273C1B196C466371B5
:10046000572403099F2800D8273C68461B190371AD
:1004700001A8FFF7B7FF13BD03001A781900013375
:10048000202AFAD00023CA5CC2540133002AFAD1D0
:10049000704700008423CA085343181807231940E3
:1004A000063B8B40024A115C0B4313547047C04615
:1004B0008013001070B50D0004000A21280009F017
:1004C000ABFB303120236170092D0AD90A212800A5
:1004D00009F01CFB0A21C0B209F09EFB0B0030336F
:1004E000DBB2237070BD0000F7B519001E4B04008D
:1004F0001B7810001027002B00D1063F002301932A
:10050000994206DA0B000200002150429941012372
:10051000019325003A000023009509F0ABFC8C46BE
:10052000D1B203005720092900D8273809180098AC
:100530006A1C01706146180015000B43EAD1019B4B
:10054000002B03D02D231370009A02320021531E7A
:100550001170A34200D8F7BD1A782178013B597079
:1005600022700134F5E7C0460B040010F7B51022E5
:10057000134B05001B780192002B01D10A33019324
:10058000002000212B78002B01D103B0F0BD1C000E
:10059000303CE4B2092C06D91A00613A1C00052A45
:1005A00001D8573CE4B202000B000198002109F089
:1005B00085FC26000027013580197941E2E7C04615
:1005C0000B04001030B514001D0087B00B000200B2
:1005D00001A8FFF789FF2A00210001A8FFF702FF09
:1005E00007B030BDF0B587B00400019103AE00281C
:1005F0000AD13023012533702B00019A002B19D129
:10060000019B581907B0F0BD00250A2720003900CA
:10061000009509F001FB009B3031F15420003900B6
:10062000009409F073FA009B01350400EDB2092B28
:10063000ECD8E1E7013BDBB2F15C11700132DDE7A0
:10064000074A1378002B08D0013BDBB21370054A30
:10065000DB00D31818685968704700200021FBE7B9
:100660005402001058020010034A1378591C1170EC
:10067000024A5B00D0527047490100104A01001045
:100680000020054A1378834205D0013BDBB213708A
:10069000024A5B00985A7047490100104A01001055
:1006A0000023034A1370034A1370034A1370704700
:1006B000990200101A03001008040010034A13786E
:1006C000002B01D0013B13707047C0461A03001085
:1006D00030B5074B020019780023064CD8B281428E
:1006E00001D8FF2003E00133E55C9542F6D130BD2F
:1006F00072100010721000108021064A09010130AA
:10070000135CFF2B01D180B270478842F7D30020E1
:10071000FAE7C0465604001070B504000020064DEC
:10072000002C03D0013CE4B2A84202D9013080B2CF
:1007300070BDFFF7E1FFF3E7FE07000010B5044BC3
:1007400018780138C0B2FFF7E7FFFFF7D5FF10BDFB
:100750007210001010B5024B1888FFF785FF10BD0E
:10076000560C00100022014B1A7070475402001002
:100770000D488021038830B51A00002401250901A5
:100780008A420DD300228B4200D8CA1A9B189BB212
:10079000002C00D00380054A1378013B137030BD54
:1007A00001322C0092B2EBE7560C001074010010DD
:1007B000024A1378013B13707047C0467401001061
:1007C000054B064A1B781178123BDBB2994200D1E7
:1007D000002313707047C0462A0400105003001015
:1007E000024A137859424B41137070470B040010B2
:1007F0000122014B1A7070472004001010B5054B00
:10080000054C197820784B1EC01809F0EFFA2170BA
:1008100010BDC046721000104C02001010B5054B00
:10082000054C197820784B1EC01809F0DFFA2170AA
:1008300010BDC046721000105404001003230B407A
:10084000890841333131037041707047074A0020F5
:1008500013780021002B07D0013BDBB21370044A50
:10086000DB00D318186859687047C046EA1A0010B0
:10087000F01A0010012330B500200A241D00084A98
:10088000084912780B80002A03D1002800D00B8081
:1008900030BD6343013A28009BB2D2B2F3E7C046B1
:1008A000E91A001044020010F7B50D4B01251B7822
:1008B000002401930B4B0C4E1A78032353439D40A5
:1008C000EF17019BA34200D1F7BD306871682A0081
:1008D0003B0009F0CFFA013403C6E4B2F1E7C046A9
:1008E000EA1A0010E91A0010F01A0010034A04492D
:1008F000137809785B1813707047C04648010010E0
:1009000079110010034A044B11781B780B401370C7
:100910007047C0464801001079110010024A137850
:10092000013313707047C04648010010024A137823
:10093000013B13707047C0464801001010B5044BCE
:10094000044C1978207809F0E1F8207010BDC046F9
:1009500079110010480100103C22034B1B789B00CA
:100960001340024A13707047F60100102400001073
:1009700010B5044B044C1978207809F04DF921701A
:1009800010BDC0467911001048010010034A044907
:10099000137809784B4313707047C0464801001024
:1009A000791100100F200449044A0B7812781B01BA
:1009B000024013430B70704748010010F60100100D
:1009C00070470000024A1378DB4313707047C0463B
:1009D00048010010024B1A78024B1A707047C0464B
:1009E0004801001038020010034A044913780978BE
:1009F0000B4313707047C046480100107911001076
:100A00000720044A044912780B78024093400B7087
:100A10007047C046F6010010480100100720044A44
:100A2000044912780B78024013410B707047C0469E
:100A3000F601001048010010034A044913780978B0
:100A40005B1A13707047C0464801001079110010FE
:100A5000034A044B11781878197010707047C0461B
:100A60004801001079110010034A044913780978ED
:100A70004B4013707047C0464801001079110010B8
:100A80003F22044B1B781340034A1178034AD15488
:100A90007047C046F601001048010010F701001031
:100AA0003F22044B1B781340034AD25C034B1A705D
:100AB0007047C046F6010010F70100104801001011
:100AC00026490300820908703FD102090120002A4B
:100AD00031D00E300340012A2ED10D38002B2AD000
:100AE0000330012B27D00130022B24D00130032BFF
:100AF00021D00130042B1ED00130052B1BD001303A
:100B0000062B18D00130072B15D00330082B12D03C
:100B10000130092B0FD001300A2B0CD001300B2BE8
:100B200009D002300C2B06D001300D2B03D0013040
:100B30000E2B00D0023070471620022AFBD110384D
:100B40009842804140420C30F5E70320012AF2D060
:100B50000130022AEFD00E30EDE7C046F60100105A
:100B600070B50D0014000321FFF7FCFB23002800E3
:100B700009220021FFF726FD084E2200705D182192
:100B8000FFF764FC705DFFF79BFF054B80002200C0
:100B90002721C058FFF726FC70BDC046F7010010A2
:100BA00028BC00008022030008485200002B05D01A
:100BB0000178002902D0013A002A00D170470130A3
:100BC0000A29F3D1013BDBB2F0E7C0463600001042
:100BD000802305485B000278002A02D0013B002BED
:100BE00000D170470130F6E73600001000231800EE
:100BF0000649CA5C002A01D0FF2B00D170470A2A9F
:100C000001D10130C0B20133F3E7C0463600001015
:100C100010B5084B08491A7801235C5CD8B294429D
:100C200002D90138C0B210BD01330E2BF5D100201E
:100C3000F9E7C0465403001008C6000010B5104B79
:100C40000322187800210123FFF7BCFC01221521A3
:100C50008C20FFF787FB0B4B1B2218680123C11761
:100C6000FFF7B0FC012233218F20FFF77BFB064BFF
:100C7000392218680123C117FFF7A4FC10BDC04634
:100C8000280400107001001058030010F7B5174B2E
:100C9000174A1C78019023019B5A200000932100E1
:100CA00000231588009EB54209D98C4206D00F0159
:100CB000BC4666460E4FF65BAE4200D91900009E58
:100CC000B54206D284420ED0094F0601F65BAE4211
:100CD00009D30133DBB21032762BE2D1019B002B1A
:100CE00000D10800FEBD1800F3E7C04678110010DF
:100CF00000D00000F0B585B0022829D104210022DF
:100D00008C460192524E0324083615E008790028DB
:100D100008D10F78002F05D0019B0F710133DBB292
:100D200008700193013DEDB20131002DEED1013C7F
:100D3000E4B2043E944202D931006546E6E701324E
:100D4000D2B2032ADED1019B5A1E9341D8B254E09D
:100D5000042822D1002201921CE0CF78002F08D174
:100D60008B78002B05D0CB70019B8F700133DBB2E9
:100D70000193013DEDB201399542EED8013CE4B258
:100D80000436002C02D031000325E6E70132D2B24E
:100D9000032AD8D004002E4EF5E701282AD10024DA
:100DA0002B4E0194611CA5003200C9B26D4217E0C0
:100DB0001778002F0BD1029B5019C35C002B06D073
:100DC0001370029BC754019B0133DBB20193039B59
:100DD00001329A42ECD10131C9B2043D042904D058
:100DE0008B000293131D0393E2E701340436032CB6
:100DF000D8D1A8E7032827D0002005B0F0BD30786F
:100E00000132D2B2002808D1AB5C002B05D0337080
:100E1000019BA8540133DBB201930136032AEED1C2
:100E200001340437042C05D0094BA5003E00029A7A
:100E30005D19E4E70131032900D184E7CBB20293C5
:100E4000034B00245F18EFE700210191F6E7C0464D
:100E50003D030010084B400070B5C45C1B185D7862
:100E600020002900012206F085FC29000022200034
:100E700006F0CCFC70BDC046B3CF0000084B40006C
:100E800070B5C45C1B185D7820002900002206F0B4
:100E900071FC29000122200006F0B8FC70BDC0469C
:100EA000B3CF000010B506F0C9F80020FFF7D2FF5D
:100EB0000B21002006F080FC040063425C4100200E
:100EC000FFF7DCFFE0B210BD70B504000825012675
:100ED00000220821300006F099FCE20902210020DE
:100EE00006F094FC6400320008213000013D06F059
:100EF0008DFCE4B2002DEBD170BD002210B50400D2
:100F00001100022006F082FC2000FFF7DDFF10BD7B
:100F100070B505000020FFF7F0FF1020FFF7EDFF90
:100F20008424B0206C432843FFF7E7FF022001220E
:100F3000002106F06BFC0548241825008435207834
:100F40000134FFF7C1FFAC42F9D170BD801300102E
:100F5000F0B587B0019202930022002307000C0035
:100F600008F05AFF002808D0019B019A581C302332
:100F700013700023037007B0F0BD2200A54B1A4088
:100F80009A4206D12D23019A13705370D01C93708E
:100F9000EFE7002200233800210008F043FF061E7F
:100FA00009D080231B06E4182D23019A0126137013
:100FB000130001330193002200233800210008F0C0
:100FC00045FF0025A84200D09AE06B1C029A0593C9
:100FD000F318934202DAAB1C00DBACE0EA17AB1863
:100FE00004205340632B03DC0138092B00DC01385B
:100FF000029B023B9E1B361AF3B2039373B2029319
:1010000001230026002084490493039BB34200D0AF
:10101000A0E002000B003800210007F06DFD002267
:101020007E4B06000F0008F01BFF002808D03000A0
:1010300039000022794B07F0BBFE06000F00059D2A
:10104000049B002B00D18CE03900300008F064FFD5
:10105000C4B2200009F048FF0B0002003900300044
:1010600007F044FD06000F0020000199FFF7BAFACF
:10107000431C01932E230370029B0400002B22DDEE
:10108000C31803930022654B3000390007F0E2FDDE
:101090000F00060008F040FFC0B203003033637059
:1010A00009F022FF0B0002003900300007F01EFD9E
:1010B000039B013406000F00A342E3D1029A019B77
:1010C0009446634401930198431E01931B78302B8F
:1010D000F9D0002D00D14CE72B23411C002D01DA63
:1010E0006D42023303702800FFF77CFA41E73800B5
:1010F00021000022494B07F05BFE07000C00013580
:10110000002238002100454B08F0AAFE0028EED14D
:10111000002238002100424B08F084FE002800D154
:1011200053E73800210000223C4B07F093FD013DBE
:1011300007000C00ECE7029B013B9E1B6B1C002B85
:1011400000DC0123F61A73B276190293F3B203930B
:10115000002356E70022314B013607F029FEF6B294
:1011600053E7002D13DA0135012D12D0300039007C
:1011700000222A4B07F01CFE06000F00F3E73000A8
:1011800039000022254B07F065FD06000F00013DE8
:10119000F5D23900300008F0BFFE040009F0A4FECB
:1011A0000B0002003900300007F0A0FC06000F0021
:1011B00020000199FFF716FA2E230370029B050009
:1011C000441C002B1FDDC31801930022134B300079
:1011D000390007F03FFD0F00060008F09DFEC0B289
:1011E000030030336B7009F07FFE0B000200390002
:1011F000300007F07BFC019B013506000F009D428B
:10120000E3D1029BE4182000013C2378302BFAD074
:10121000AFE6C0460000F07F0000E03F0000244041
:101220000000F03F30B514001D00064B85B01B7860
:1012300001AAFFF78DFE2A00210001A8FFF7E8F8B8
:1012400005B030BD25000010F8B50F4C0600200099
:101250000D0006F0CBFF5F232018037000234370BE
:10126000200006F0C3FFC3B2C7B22000AB4201D9D1
:10127000781B001932000321FFF7CAF80023E41994
:10128000013C2370F8BDC04678030010F7B51C4E32
:10129000C700BE19019030000D00140006F0A6FF33
:1012A000002814D0220029003000FFF79BF8154BCE
:1012B000019A1B78934209D10621134B49421B78AE
:1012C00022005943B2204919FFF74CF8F7BD0F4BE4
:1012D0000022DF193E687F6800233000390008F0E3
:1012E0009BFD002805D022002900CC20FFF73AF80A
:1012F000DDE723002A0030003900FFF793FFD6E72F
:101300007D110010881400102600001080120010BB
:10131000F0B5002585B001900C2703266F43EBB292
:10132000AC0000932C1B019B793CE4B2DF19310027
:101330002000009AFFF716F8002302AA3900137163
:1013400002A8042206F0EEFEF11D009AC9B202A81E
:1013500001342436FFF746F8E4B204376F2EE6D1A5
:10136000012D01D00125D7E705B0F0BDF8B5050086
:101370000026064C83222778200005498334013655
:1013800006F0D0FE2770AE42F3D1F8BD80130010F6
:101390008113001070B50D00040005F0E1FF290075
:1013A000200006F085F870BD07B5684601A9FFF773
:1013B000F1FF6B46FA221B88D2009B18034A136088
:1013C0006B469A78024B1A7007BDC0464002001067
:1013D0003B02001007B5684601A9FFF7DBFF6B462B
:1013E0003C205B7958436B469B79C0180EBDF8B51D
:1013F0001700040008000D0006F0F8FEE419C6B25C
:10140000200006F0F3FEA7192100421C380006F068
:10141000CCFE32002900200006F084FEF8BD00005A
:10142000F8B50D4D06002B780F000C4C072B08D992
:10143000210038222000083106F0B7FE2B78013B4E
:101440002B702B7830005A1CDB00E4183900266022
:1014500067602A70F8BDC0465402001058020010A0
:1014600010B5FEF76DFF09F03FFDFFF7D9FF10BD86
:1014700010B5FFF7E5F809F0D1FC0A2108F0B6FC39
:10148000CB000349C91808684968FFF7C9FF10BDB8
:1014900098140010F8B5FFF7D3F806000F00FFF717
:1014A000CFF80D0004003900300009F0B7FC0A2124
:1014B00008F09CFC054BC9B2C90059180C604D607E
:1014C00020002900FFF7ACFFF8BDC04698140010BB
:1014D00010B5FFF7B5F808F01FFDC0B200280BD01B
:1014E000064B1B78834207D31B1A0548DB00C31841
:1014F00018685968FFF794FF10BDC04654020010E9
:101500005802001070B5FFF79BF804000D00FFF7BC
:1015100097F802000B002000290008F0A1FC002829
:1015200004D100200021FFF77BFF70BD002001499E
:10153000F9E7C0460000F03F10B5FFF781F8002240
:10154000002308F069FC002804D100200021FFF7E7
:1015500067FF10BD00200149F9E7C0460000F03FD9
:1015600010B502480249FFF75BFF10BD182D445427
:10157000FB210940F8B5FFF763F80D000400FFF701
:101580005FF806000F002000290009F047FC390031
:101590000400300009F042FC2040C04309F074FC14
:1015A000FFF73EFFF8BD000010B5034B18685968FF
:1015B000FFF736FF10BDC0463004001010B5FFF72E
:1015C0003FF80200802000060B1819001000FFF7FA
:1015D00027FF10BDF0B585B0FFF732F804000D000D
:1015E000FFF72EF8134B06001B780F00002B19D0C5
:1015F000FFF726F800900191FFF722F8029003917F
:1016000030003900FFF70CFF20002900FFF708FF2A
:1016100002980399FFF704FF00980199FFF700FF74
:1016200005B0F0BD20002900FFF7FAFE30003900B8
:10163000F4E7C046FB03001070B5FFF7CBFFFEF7E1
:10164000FFFF0D000400FFF7C5FF29002000FFF792
:10165000E7FE70BDF8B5144B1B78002B19D0FEF7D0
:10166000EFFF06000F00FEF7EBFF04000D00FFF791
:10167000D7FE30003900FFF7D3FE20002900FFF726
:10168000CFFE30003900FFF7CBFE0122074B1A7066
:10169000F8BDFEF7D5FFFFF7C3FEFFF7C1FE044B11
:1016A00018605960F1E7C046FB03001038040010D1
:1016B00030040010F0B585B00391FFF72DF8060057
:1016C000FFF71AF80024013083B201939B1B013B02
:1016D0009BB20293039BE7B21B5DFF2B04D0013446
:1016E000812CF7D1013C2700FFF728F88022029BCC
:1016F0001201C31ADB19934211DA029A0F4DBBB2E1
:1017000097420ED201990139421A301969182818E6
:1017100006F008FD22000399A81906F003FD05B0A4
:10172000F0BD029A9342F5D901990139421A301954
:1017300001326918281806F038FDEBE7560400104E
:10174000F8B50D4F06003B780D000C4C032B08D963
:10175000210018222000083106F027FD3B78013BCC
:101760003B703B7830005A1CDB00E41829003A70CB
:1017700026606560F8BDC046EA1A0010F01A001035
:1017800010B5034B18685968FFF7DAFF10BDC04663
:10179000101B001010B5FFF759F8024B03C3FFF7F9
:1017A000CFFF10BD101B0010F0B50324012589B038
:1017B000FFF74CF81D4B01901B7802915C430434F9
:1017C000A540EB172A00059308F078FB0223A340FD
:1017D00000240393019EDB17029F06900791049358
:1017E00032003B000698079908F044FB2A00059B4D
:1017F0008019794108F062FB039A049B08F03AFBD8
:10180000B04201D1B94207D01D2C0BD1019E029FDD
:101810000134E4B21E2CE3D130003900FFF790FF11
:1018200009B0F0BD06000F00F2E7C046E91A00104B
:1018300010B5FFF70BF8FFF783FFFFF781FF0122D9
:10184000014B1A7010BDC0463804001010B5FEF7E9
:10185000FDFF002342428B4110001900FFF770FF8B
:1018600010BD000070B5FEF7F1FF06000D00FEF799
:10187000EDFF0324020001200B00074909784C43C7
:101880000434A040C11708F019FB32002B0008F007
:10189000F1FAFFF755FF70BDE91A001070B5FEF7B9
:1018A000D5FF05000C00FEF7D1FF02000B00280059
:1018B000210008F003FB064B1A780323534301224F
:1018C00004339A40D31708F0D5FAFFF739FF70BDFB
:1018D000E91A001070B50324134B0A251B785C43EA
:1018E000FEF7B4FF01220434A240D317A54008F04C
:1018F000C1FAEE1744B2030611D5013464B2012CCB
:1019000000D170BD28003100FFF71AFFFFF7AAFFD2
:10191000F3E728003100FFF713FFFFF7BFFF013C9B
:1019200064B2631CF5D1ECE7E91A001070B5FEF75C
:101930008DFF0D000400FEF789FF00196941FFF7D4
:10194000FFFE70BD10B5FFF781FFFFF7EFFF10BD81
:1019500070B5FEF77BFF05000C00FEF777FF28400F
:101960002140C043C943FFF7EBFE70BDF8B504004A
:101970000025074E8322330083331F78310005484A
:10198000013506F012FC3770A542F2D1F8BDC04611
:1019900080130010811300107FB5154B0D001C78CB
:1019A000160084421FD9241A124B1348013CE4004C
:1019B0001B78041920686168002B0FD007F084FCA5
:1019C00002000B0001A8FEF78FFD01A8FEF754FDF1
:1019D0003200290001A8FEF705FD7FBD13002A0093
:1019E000FFF720FCF9E75F20FEF7BCFCF5E7C046F7
:1019F000540200100B04001058020010F7B5234BDE
:101A0000234A1E78234B1B78D05C002E0CD0052176
:101A1000414321480918214806F0F0FB1F4806F011
:101A2000E5FB1F4B1870F7BDFEF776FE04001D4B5B
:101A30001B5DFF2B27D1194B9E190023013E3370EC
:101A4000ECE705203B5D43431348C31801981B5C3A
:101A50004B551500AB1BDBB201930523114F385DCD
:101A600058430D4BC01806F0C1FB019B6A1C0B4983
:101A7000D2B2834201D22B06E3D5202301341600D3
:101A80004B55A4B2D3E73500E4E7C0460604001086
:101A90007310001054040010580C0010990200102C
:101AA0001A03001056040010044B10B5C000C018F3
:101AB000034B8900C95806F0A1FB10BD7D11001031
:101AC0008CBD000030B5032587B008210120FFF749
:101AD000EBFF2A4C2A002100684606F023FB6946EA
:101AE0007420FFF7E7FD1F210520FFF7DDFF2A0027
:101AF000611901A806F016FB01A97820FFF7DAFDAD
:101B000020210920FFF7D0FF2A00A11D02A806F01E
:101B100009FB02A97C20FFF7CDFD21210D20FFF755
:101B2000C3FF21002A00093103A806F0FBFA03A92C
:101B30008020FFF7BFFD22211120FFF7B5FF210014
:101B40002A000C3104A806F0EDFA04A98420FFF75E
:101B5000B1FD23211520FFF7A7FF21002A000F3137
:101B600005A806F0DFFA05A98820FFF7A3FD2421C8
:101B70001920FFF799FF07B030BDC0466FB80000CD
:101B800070B5082192B00120FFF78EFF574C032556
:101B900021002A006846123106F0C4FA6946742012
:101BA000FFF788FD25210520FFF77EFF21002A0091
:101BB000153101A806F0B6FA01A97820FFF77AFDE1
:101BC00026210920FFF770FF082621003200183176
:101BD00008A806F0A7FA08A97C20FFF76BFD2721CB
:101BE0000D20FFF761FF2100320020310AA806F026
:101BF00099FA0AA98020FFF75DFD28211120FFF73F
:101C000053FF21000136320028310CA806F08AFA71
:101C10000CA98420FFF74EFD29211520FFF744FF72
:101C20002100320031310FA806F07CFA0FA988207C
:101C3000FFF740FD2A211920FFF736FF21002A0077
:101C40003A3102A806F06EFA02A97620FFF732FDBB
:101C50002B210720FFF728FF21002A003D3103A890
:101C600006F060FA03A97A20FFF724FD2C210B204F
:101C7000FFF71AFF21002A00403104A806F052FAAB
:101C800004A97E20FFF716FD2D210F20FFF70CFF82
:101C900021002A00433105A806F044FA05A9822054
:101CA000FFF708FD2E211320FFF7FEFE210001356E
:101CB0002A00463106A806F035FA06A98620FFF765
:101CC000F9FC2F211720FFF7EFFE21002A004A31EF
:101CD00007A806F027FA07A98A20FFF7EBFC3021B6
:101CE0001B20FFF7E1FE12B070BDC0466FB80000C8
:101CF0001FB50E490B224E3101A806F013FA01A9B7
:101D00007C20FFF7D7FC1B210120FFF7CDFE1C2113
:101D10000520FFF7C9FE1D210920FFF7C5FE1E2182
:101D20000D20FFF7C1FE05B000BDC0466FB8000032
:101D300030B51F4C0425210085B02A00593101A877
:101D400006F0F0F901A97820FFF7B4FC21002A0081
:101D50005D3102A806F0E6F902A98020FFF7AAFC8F
:101D600021002A00613103A806F0DCF903A98820CC
:101D7000FFF7A0FC0D210120FFF796FE0E210520A4
:101D8000FFF792FE0F210920FFF78EFE10210D2094
:101D9000FFF78AFE0E211120FFF786FE072115208E
:101DA000FFF782FE1A211920FFF77EFE05B030BD35
:101DB0006FB8000010B5184C88B021000F2268469B
:101DC000653106F0AFF969468020FFF773FC21000A
:101DD0001022743104A806F0A5F904A98420FFF7A5
:101DE00069FC03210120FFF75FFE03210520FFF7B7
:101DF0005BFE07210920FFF757FE17210D20FFF793
:101E000053FE18211120FFF74FFE19211520FFF76F
:101E10004BFE08B010BDC0466FB8000030B51D4C79
:101E200091B01022211D01A806F07CF901A97C20A7
:101E3000FFF740FC132521002A00143105A806F005
:101E400071F905A98020FFF735FC21001722273101
:101E50000AA806F067F90AA98420FFF72BFC1121D4
:101E60000120FFF721FE12210520FFF71DFE2900AA
:101E70000920FFF719FE14210D20FFF715FE15218B
:101E80001120FFF711FE16211520FFF70DFE11B0EE
:101E900030BDC046EFB800001FB50724144922002A
:101EA0003E3102A806F03EF902A97820FFF702FCB5
:101EB000104904225D3101A806F034F901A98020FF
:101EC000FFF7F8FB09210120FFF7EEFD21000520B7
:101ED000FFF7EAFD0A210920FFF7E6FD0B210D209F
:101EE000FFF7E2FD0C211120FFF7DEFD1FBDC0460C
:101EF000EFB800006FB8000010B5164C86B0210096
:101F00000822453101A806F00DF901A97C20FFF750
:101F1000D1FB21000A224D3103A806F003F903A9E1
:101F20008020FFF7C7FB01210800FFF7BDFD052159
:101F30000800FFF7B9FD06210920FFF7B5FD0221D2
:101F40000D20FFF7B1FD07211120FFF7ADFD06B011
:101F500010BDC046EFB8000000B50E4989B01C2284
:101F6000573101A806F0DEF801A97C20FFF7A2FB9B
:101F700000210120FFF798FD03210520FFF794FDC4
:101F800004210920FFF790FD01210D20FFF78CFDB2
:101F900009B000BDEFB80000F0B52C4B85B01B7840
:101FA00002900393002B0AD0FEF7E0FA07F014FA30
:101FB000FFF736FA0023029A137005B0F0BD029BBA
:101FC0001B782D2B11D10024029B214D013301934D
:101FD00000260027019B1B78002B0BD122002B0031
:101FE0003000390006F0E4FEE2E7029B0024194DC0
:101FF0000193EDE72E2B26D0303B092B1FD8002272
:1020000030003900144B06F025FE019B06001878BD
:102010000F00303808F038FF0B00020039003000A4
:1020200006F06AFD039B06000F00002B07D020007E
:1020300029000022084B06F00DFE04000D00019B54
:1020400001330193C6E701230393F8E70B04001063
:102050000000F0BF0000F03F0000244070B5094DC3
:10206000280006F0C3F8084C002807D02378002B7E
:1020700001D0FEF7E5FA2800FFF78EFF002323705A
:1020800070BDC046780300103804001010B504007D
:102090000A2803D9182801D0FFF7E0FF064BA40057
:1020A000E3589847054B1B78002B01D1044A137065
:1020B0000022044B1A7010BDECBA0000FD030010A2
:1020C00008040010FB03001010B5FFF7C7FFFEF770
:1020D000B7FA08F0A3FE0122024B1860024B1A70F7
:1020E00010BDC04650020010040400101FB5FEF7DA
:1020F000A7FA07F02FFF02000B0001A8FEF7F4F982
:1021000001A8FFF749FF05B000BD000070B505004C
:1021100000240526094B1B78A34202D8FF24200087
:1021200070BD30006043064B2900C01806F06DF802
:102130000028F4D00134E4B2ECE7C046721000107D
:10214000580C001007B5094B6A4600930023137121
:10215000074B68461B7840339370FFF7D7FFFEF7B5
:10216000DBFA044B1880FFF779FF07BD464E780075
:10217000500300105203001007B5094B1B78002BC9
:102180000DD0084A69460092002240338B706846A1
:102190000A71FFF7BBFFFEF7BFFA034B188007BDBC
:1021A00050030010464E7800560C00100122084BD8
:1021B00010B508481A70FFF7A9FF074B1870074BB6
:1021C00018700748FFF7A2FF064B187010BDC046F5
:1021D0001B040010A0B100007B1100107C11001046
:1021E000A3B100007A11001013B50B4904000222BC
:1021F000733101A805F096FF6B460022210001A86B
:102200009A71FEF71BFB01A8FFF780FFFEF760FA4B
:10221000024B187013BDC046EFB800005404001004
:10222000F8B5144B14491C780023DAB2944205D84F
:102230000527013CE4B2002C03D1F8BDCA54013398
:10224000F3E700260C4D69782878794378430B4BE7
:102250000136C918C018F6B205F0D7FF002803DD13
:102260002B786A786B702A700135A642EBD1013C5D
:10227000E4B2E0E77210001073100010580C001068
:1022800010B5FEF7DDF907F02FFBFFF7C9F810BD19
:1022900010B5FEF7D5F907F0D9FAFFF7C1F810BD70
:1022A00010B50B4B1B78002B09D0FEF7C9F90022A3
:1022B000002307F0B1FD002802D1FEF7E1F910BDBF
:1022C000FEF7DEF9034B80B21880FEF7CDF9F6E792
:1022D00049010010560C001070B50C4C2378002BEF
:1022E00002D00023237070BD094D2B78002B05D040
:1022F000084B1B78002B01D0FEF7D6FA00220123F1
:102300002A70054A23701380EDE7C0460B040010C5
:10231000E91A0010EA1A001044020010054B1B785D
:10232000002B05D13F22044B1B781340034A137046
:102330007047C04648010010F6010010240000104C
:1023400010B50C00022814D1C8212000490007F064
:1023500063FC89B21D2000290AD00138A30707D1E8
:102360006421200007F058FC88B2431E98411C30BD
:1023700010BD0223984303001E20042BF8D0093B14
:102380001800431E98411E30F2E70000F0B500250A
:1023900089B00091019206001322290003A802953A
:1023A0000C2705F0E0FE194B194A1B787B43012EE0
:1023B00024D1D3585C5D002C12D1164D02A92800FF
:1023C00005F01CFF280005F011FF134B019A18704F
:1023D00002AB180000991C75FEF704F809B0F0BDB7
:1023E000013CE4B20D49232C02D80D4BA400E15866
:1023F00002A8013508F0AEFEEDB2D4E7D318022EE4
:1024000001D15B68D6E79B68D4E7C0464D02001057
:1024100090D80000990200101A030010A6B1000025
:1024200078B90000F8B5FEF73DFD04002220002C2D
:1024300011D125002800FEF70DFD271D0D4EFFB21E
:102440007178307805F0B8F9002805D12800FEF73A
:1024500015FD094B185DF8BD0134E4B20236A74200
:10246000EED128000135EDB2FEF708FD0A2DE1D1CD
:10247000FF20F0E7ABCF000083CF000010B5FFF7DF
:10248000D1FFFF28FBD1FE3805F0AEFB10BD0000E8
:10249000402210B5034B1A70034B3F3A1A70FFF7F6
:1024A000EDFF10BD24000010310000100123074A89
:1024B00010B51370064A1370FFF7E0FF054B064A8C
:1024C0001978117040221A7010BDC0460004001027
:1024D0003100001024000010390200100123074AC7
:1024E00010B51370064A1370FFF7C8FF054B064A74
:1024F0001978117040221A7010BDC046FF030010F9
:1025000031000010240000103902001010B5074CF3
:102510002378002B07D0200005F068FE0023241844
:10252000013C237010BDFEF78BF8FBE77803001029
:1025300070B5054C0548257805F058FE854202D255
:1025400023780133237070BD1A0300109902001024
:10255000F7B5204B1B78002B34D0FEF771F80090B4
:102560000191FEF76DF8009A019B06000F00100024
:10257000190006F06FFB320004000D003B00300034
:10258000390006F067FB02000B002000290006F06E
:10259000B3FA02000B0004000D003000390006F011
:1025A00007FC0200802000060B1819001000FEF73F
:1025B00037FF0098019922002B0006F0F9FBFEF787
:1025C0002FFFF7BDFEF73CF802000B000020024988
:1025D000F3E7C046FB0300100000F03FF0B5284BC6
:1025E00085B01B78002B3DD0FEF72AF800900191B2
:1025F000FEF726F804000D00FEF722F806000F0093
:10260000FEF71EF83200029003913B0020002900E3
:1026100006F020FB029A039B04000D00009801992C
:1026200006F018FB02000B002000290006F064FAF7
:10263000FEF7F6FE0098019932003B0006F00AFB17
:10264000029A039B04000D003000390006F002FBE3
:1026500002000B002000290006F048FAFEF7E0FE19
:1026600005B0F0BDFDF7ECFF04000D00FDF7E8FF3D
:1026700002000B002000290006F0ECFAEEE7C0464D
:10268000FB03001010B503480349FEF7C9FEFFF72E
:10269000A5FF10BDF8C1631ADCA54C4010B5FDF7CD
:1026A000CFFF0022034B06F0C7FFFEF7B9FEFFF78E
:1026B000E9FF10BD0000F03FD0B5FDF7C1FF08F005
:1026C000ADFB041E0CDA084E084F4442013C00D218
:1026D000D0BD30003900FEF7A3FEFFF77FFFF5E71E
:1026E0000026034FF2E7C0469A9999999999B93F04
:1026F00000002440F7B5174B1B78002B1ED0FDF7C8
:102700009FFF00900191FDF79BFF04000D00FDF776
:1027100097FF06000F00FDF793FF02000B0020005B
:10272000290006F0E9F9FEF77BFE009801993200D6
:102730003B0006F0E1F9FEF773FEF7BDFDF780FF01
:1027400004000D00FDF77CFF02000B0020002900B3
:10275000EFE7C046FB030010F0B5334B89B01B78A0
:10276000002B5BD0FDF76CFF06000F00FDF768FF44
:1027700000900191FDF764FF02900391FDF760FF67
:102780003200049005913B003000390006F062FAF7
:10279000009A019B04000D001000190006F05AFA7F
:1027A00002000B002000290006F0A6F9049A059B00
:1027B000069007913000390006F04CFA029A039B0C
:1027C00004000D000098019906F044FA02000B0085
:1027D0002000290006F08AF9069A079B06F0E8FA1D
:1027E000FEF71EFE029A039B3000390006F032FA13
:1027F000049A059B04000D000098019906F02AFA3E
:1028000002000B002000290006F076F9069A079BCB
:1028100006F0CEFAFEF704FE09B0F0BDFFF798FE11
:10282000FFF7DCFEF8E7C046FB03001010B50348D5
:102830000349FEF7F5FDFFF78FFF10BDF8C1631ADE
:10284000DCA54C4010B5FFF7F1FFFDF7F9FE06F0EF
:1028500073FEFEF7E5FD10BDF7B5134B1B78002B9B
:102860001CD0FDF7EDFE04000D00FDF7E9FE009021
:102870000191FDF7E5FE06000F00FDF7E1FE009A6D
:10288000019B06F033F9FEF7CBFD22002B00300050
:10289000390006F02BF9FEF7C3FDF7BDFEF78EFEFB
:1028A000FFF728FFF9E7C046FB030010F8B50A4B15
:1028B0001B78012B0FD9FDF7C9FF07000E00FDF7AC
:1028C000C5FF05000C0038003100FEF739FF280075
:1028D0002100FEF735FFF8BDEA1A001070B5FFF7CA
:1028E000E5FFFDF7B3FF05000C00FFF7DFFF280051
:1028F0002100FEF725FF70BD10B5FFF7D7FFFEF7EB
:1029000097FFFFF7EBFFFEF7C9FF084B01201A788E
:10291000032353430433984064220023C11707F074
:10292000CDFAFEF70DFFFEF79DFF10BDE91A00106E
:1029300010B51B4B1B78002B30D0FFF78FFBFFF738
:1029400001FC20220021174805F00DFC0123164A46
:102950001370164A13700722154B1A700023154A7C
:102960001370154A1370154A1370FDF769FE144C65
:1029700020606160FDF764FEFEF752FD02000B006F
:1029800010490A604B602068616806F0AFF80E4B92
:10299000002206F00DFA0D4B1860596010BDC046BC
:1029A0005003001048110010170400101604001006
:1029B00025000010080400102B0400107D120010E8
:1029C000480400104004001000003F40680300105D
:1029D00070B5154B1B78002B24D0FFF73FFBFDF79C
:1029E0002FFE0D0080210400104A114B0020C90564
:1029F00006F030F902000B002000290006F076F8FE
:102A0000FEF70EFD0B4B18605960FFF79BFB002093
:102A100000210022084B18605960084B1A70084BBF
:102A200001321A7070BDC04650030010FCA9F1D2EB
:102A30004D62503F90140010700300107D12001082
:102A40002104001010B5174B1B78002B29D0FFF77D
:102A500079FBFEF7BFFDFDF7F3FD134C20606160CD
:102A6000FDF7EEFDFEF7DCFC2268636806F03EF839
:102A700080230022DB0506F09BF900220B4B06F0B9
:102A800097F90B4B01221860596000200021094B77
:102A900018605960084B1A700023084A1370084ADE
:102AA000137010BD500300104004001000002440BB
:102AB00068030010700300100E04001008040010DA
:102AC0007D12001010B5094B1B78002B0DD0FFF7BD
:102AD00039FBFEF7BFFDFEF7BDFD0122044B1A7066
:102AE0000023044A1370044A137010BD50030010F1
:102AF000220400102B0400107D1200107FB50C0082
:102B000018490C220600763101A805F00BFB0025C0
:102B10000223B3426D41651BADB26421280006F06B
:102B2000F5FFC821AC0880B26419241A49002800B6
:102B300006F0ECFF01AB9B19013B80B220181C781A
:102B400007210019013007F051F9074BC8B21B7873
:102B5000002B03D0002803D00138C0B204B070BDF0
:102B60000620FBE7EFB800001404001070B5050064
:102B70000E000324FDF780FC2878002800D170BDEA
:102B800032002100FDF7EEFB2B78202B05D1033C12
:102B9000E4B20634E4B20135EEE72E2BF9D1013C64
:102BA000F6E70000F0B5354B354D1E78C3B0002E6A
:102BB0005FD12E21280005F00EFB310004007D229C
:102BC00022A8219605F0CFFA2900684605F016FBE9
:102BD000002C06D06B46651B5E55611C21A805F0D4
:102BE0000DFB6846FDF7C2FC264B01261A7803232D
:102BF000534304339E40F71732003B0007F05EF961
:102C0000040021A80D00FDF7B1FC02000B0030000C
:102C1000390007F053F9FA220023920007F02AF94D
:102C200024184D4121E00C00303CE4B20135092C60
:102C300006D90E00613E0C00052E01D8573CE4B2C7
:102C4000110F1B011201044022430B432978002974
:102C5000E9D10C490878032141430120043188401F
:102C6000C11707F02BF904000D002000290043B024
:102C7000F0BD00220F201300E8E7C0460B0400104F
:102C800078030010E91A001070B5064D0400280002
:102C900005F0ACFA611C021B4919601905F042FAF3
:102CA00070BDC0469902001010B5064C207800286F
:102CB00006D00138C0B2FFF7E7FF2378013B23704D
:102CC00010BDC0461A030010F8B5084F05003800C3
:102CD000CE190C0005F08AFA021B601C3100C019E5
:102CE000013205F062FA3570F8BDC0469902001055
:102CF00070B50524444315482418200005F076FAE1
:102D00000500134805F072FA7F23EAB29B1A984235
:102D100012D22000FFF7FAF90A2808D90D4B1978CA
:102D2000002904D04A1C20201A70FFF7CDFF00268E
:102D3000EDB2F3B29D4200D870BD064BA05D19788C
:102D400001364A1C1A70FFF7BFFFF2E7580C00105B
:102D5000990200101A030010F0B5042400261E4B3F
:102D600085B000255A5D002A01D10136F6B2013541
:102D7000042DF7D1013CE4B20433002CF1D1002E34
:102D800028D0FDF7DDFA310007F030F82700CBB28C
:102D900002930395104BBD00039EED182B78002B7A
:102DA00010D1631CDBB20193029BA34209D1FDF752
:102DB000C7FA0A2106F030FF89B24B42594101316E
:102DC0002970019C013EF6B20135002EE6D1013793
:102DD000042FDFD105B0F0BD3D030010F7B50400AE
:102DE000FDF788FF431E9841C3B20093022C2AD1FD
:102DF00000210B008C46434E0836042072181779C8
:102E0000002F08D01578BD4205D1013515716546F2
:102E100001331570DBB20138C0B201320028EED1A7
:102E200004390A000C32E8D1002B01D001230093B1
:102E30002000FDF75FFF009B1843C0B2002801D0BF
:102E4000FFF78AFFF7BD042C1CD1002320009C460D
:102E50002C4E32000321D778002F08D09578BD4240
:102E600005D10135D570654601339570DBB2013966
:102E7000C9B2013A0029EED10138C0B204360028A7
:102E8000E7D1D1E7012C1DD100210B008C461D4A52
:102E90000420451A101801901778002F09D05618F1
:102EA000705DB84205D10130107060460133705535
:102EB000DBB2019801328242EED1043908000C30B5
:102EC000E6D1B1E7032CB3D1002304209C460D4E7C
:102ED000320021001778002F08D05578BD4205D167
:102EE00001351570654601335570DBB20139C9B241
:102EF00001320029EED10138C0B204360028E7D1F2
:102F000092E7C0463D03001070B5114A13780133B3
:102F10001370FDF795FB0022002306F07DFF0028CB
:102F200011D00C488021038800241A0001250901D2
:102F30008A4209D300228B4200D8CA1A9B189BB23E
:102F4000002C00D0038070BD01322C0092B2EFE75C
:102F500074010010560C0010F8B50023134E3370A6
:102F6000134C144D2778EB5D202B04D1280005F07D
:102F70003DF9874209D32778EB5D202B04D0280048
:102F800005F034F9874204D3F8BD23780133237068
:102F9000E6E7237830005A1CEF5C227005F026F932
:102FA0000023301807704370E5E7C0461C0300108B
:102FB0001B03001099020010F8B50F4D0400280003
:102FC00005F014F97F2811D80C4E3378002B0ED061
:102FD000002C0FD0062C0AD86034E7B2280005F088
:102FE00005F900232D182F706B703370F8BD2E2754
:102FF0000A2CF3D03034F0E778030010F903001006
:1030000010B5064B1B78002B03D00122044B1A701D
:1030100010BD0A20FFF7D0FFFAE7C0460B040010EE
:10302000F903001010B5FFF7EBFF10BD10B5092034
:10303000FFF7C2FF10BD10B5FFF7F8FF10BD10B5C8
:103040000820FFF7B9FF10BD10B5FFF7F8FF10BD5E
:1030500010B50720FFF7B0FF10BD10B5FFF7F8FF60
:1030600010BD10B50620FFF7A7FF10BD10B5FFF784
:10307000F8FF10BD10B50520FFF79EFF10BD10B57D
:10308000FFF7F8FF10BD10B50420FFF795FF10BD46
:1030900010B5FFF7F8FF10BD10B50320FFF78CFF48
:1030A00010BD10B5FFF7F8FF10BD10B50220FFF7F7
:1030B00083FF10BD10B5FFF7F8FF10BD10B501205C
:1030C000FFF77AFF10BD10B5FFF7F8FF10BD10B580
:1030D0000020FFF771FF10BD10B5FFF7F8FF10BD1E
:1030E000F0B50C008BB0202109921322019005F05D
:1030F0003AF80020019BE100824CD87464180490D7
:1031000022686368834206DA1900100000234242F5
:103110008B41012104917C490125097805917B4966
:103120000888002106F0CAFE0A22002306F0C6FE27
:103130000323059A53432A0004339A40D31706F019
:1031400099FE052200238018594100230A2206F027
:1031500091FE030006000F000B4318D1019D019A58
:10316000303312359374049B002B0AD000260027BD
:103170002D23013D2B703E4303D06549019805F096
:103180003DF809990198FFF7F1FC0BB0F0BD614BD8
:10319000019C1B781334002B00D0AEE0059B002B64
:1031A00021D0019D300039000A22002306F062FE82
:1031B0003032AA7400230A223000390006F05AFE89
:1031C000019B013D5B1B059ADBB206000F009A4292
:1031D000E8D81300013BDBB2DA43A218E41A531E0D
:1031E0002E22023C1A70049A250094460124019B69
:1031F0006344059333003B43B5D0059B9D4277D98B
:103200006B1E3000390002930A22002306F032FEC2
:103210006B1E30321A7030000A220023390006F08B
:1032200029FE029A0F000599060023008A420BD955
:103230005522524254430133E4B2DBB2552C03D839
:103240002021AA1E029211701C00029DD2E7634643
:1032500033400293FB0FDB07039315D5029A039BC0
:1032600001204042C11712184B411021012349424D
:1032700011430291012000215B420393029A039BB8
:1032800012184B41029203936B461B7A5722092B6B
:1032900000D8273A9B186246651E2B70FB171A4010
:1032A000002306920793069A079B92197B41100010
:1032B000190002091B0713431E00089B0F119D42B2
:1032C0000AD9059B05995A1C0323D2B20B400592DB
:1032D00002D1A51E20332B7033003B4300D142E7BF
:1032E0002C00019B049A9B180893A342AFD325009E
:1032F000049B002B00D03BE73FE70F2305959C463E
:10330000EFE7C046F01A0010E91A0010440200105E
:10331000A8B100000B040010F0B52D4CA5B02000A2
:1033200004F064FF002803D120002A4904F066FF5E
:10333000FF247D22002104A8039404F014FF21003F
:10334000002403AD8022280004F00DFF23AB1C7085
:10335000214B1C70FFF700FE0094204F380004F052
:1033600045FF00280BD12B78FF2B06D01C4B1D4AA4
:103370001B782900D05CFEF79DF925B0F0BD380020
:10338000FEF7C4FE009B5C1CFF2815D1009BE4B235
:10339000DB43E318DBB23800019304F027FF019B05
:1033A000661EF6B283420AD2019BFB5C2E2B0AD129
:1033B000243BAB550134E9E7009BE6B2E854FFF744
:1033C000CBFD0096C9E7303BDBB2092BF1D9F6E71C
:1033D00099020010ACB100001B0300101C03001088
:1033E000540400107310001070B5054B054C1B7889
:1033F00025782370FEF702FB2570FFF78DFF70BD67
:103400005504001054040010F0B5BE4A85B013787E
:10341000002B09D000230120BB490B70BB490B7066
:10342000BB490870BB490B70BB4B1B78242B00D0E9
:103430009AE0BA4D00242B78012B06D1B84A1370BC
:10344000FEF7EEFE2C7005B0F0BD022B00D086E03A
:10345000B44B2C701C70B44BB44D1B7814702A788C
:10346000002B2CD0002A27D0B14C200004F0BEFE47
:10347000B04FB14E002809D0052033780422FB5C00
:1034800021005843AD4B181804F04CFE0521337849
:103490002000FB5C5943A94B591804F0AFFE0023F0
:1034A0002B70FEF7BDFE2000FEF730FEFDF710F991
:1034B0003070FEF7A3FAC6E7FFF72EFFF9E7002A00
:1034C0000FD09F4A9F4912789948D2005218C15C88
:1034D000D154062B02D001330029F8D100232B70E0
:1034E000B1E7994B1B780293002B04D0FFF714FF30
:1034F000FEF75CFEA7E7954B1B78002BA3D0944BFF
:10350000FF261C782000FDF74DFB01340500E0B2DA
:10351000FDF748FB0400FDF75BFB854F0190380089
:1035200004F064FE631B0393019B06401A1B611E9B
:103530000132A81904F039FEFF230398854A184088
:10354000019B801B9A1A121A181A0299013004F072
:103550000AFE32003900280004F0E4FD73E702237C
:103560002B707D4B1C706EE7232B11D16B4D2C788B
:10357000002C06D0794E03213078013006F036FC5D
:103580003170013C631E9C41734B2C70002233E070
:10359000252B0AD1614A1178012914D100236449ED
:1035A0006F48137004F02AFE4DE7262B0BD15B4ABF
:1035B0001178012907D1002469495D48147004F08D
:1035C0001DFE684BCEE7604A1278002A16D0262BE3
:1035D00014D1654B1A78654B1A70654B1A78654B98
:1035E0001A70574B1A78644B1A7000234B4A1370A9
:1035F0004C4A13700122614B1A7024E7574909782D
:10360000002948D1454C2178122B09D1002937D106
:10361000002A4BD0FFF780FEFEF7C8FD414BB5E70F
:10362000182B04D100292BD1FDF748F80BE7192BF3
:1036300004D1002924D1FEF77BFF04E71D2B0AD11A
:1036400000291DD1FDF73AF8FDF738F8FDF736F8F7
:10365000FDF734F8E8E71E2B0AD1002910D1FEF758
:1036600067FFFEF765FFFEF763FFFEF761FFE2E726
:10367000212B05D1022900D0BDE0FDF711F8E2E6CB
:1036800027224A439B183E4ADBB2D05CFFF730FB4F
:1036900000232370D7E6012900D0D5E0002B0DD1FF
:1036A000234804F0A3FD7F2800D9CCE620202D4B31
:1036B00019784A1C1A70FFF707FBC4E6012B02D1E8
:1036C0000722304B98E7022B07D12F4A1378182B8B
:1036D00000D9B8E601331370B5E6032B56D10422A6
:1036E000002429480378182B02D80C000133DBB2E0
:1036F000013AD2B2002AF6D1002C00D1A3E6037021
:10370000A1E6C046FD03001078030010540200102B
:1037100015040010380400102A04001008040010DA
:103720000304001007040010120400100604001027
:10373000990200107310001054040010580C00106F
:10374000881400107D1100101904001024040010CA
:10375000E8140010360000100C04001029040010BA
:10376000750100101A0300108A1400104611001091
:103770008B14001047110010451100101C0400109C
:103780000ECF00006A0100106C010010042B06D15E
:10379000454A1378002B00D155E6013B9BE7062BE9
:1037A00005D1414A1378062B00D94CE692E7072B46
:1037B00001D13D4BEAE6082B01D13C4AE9E7092B50
:1037C00012D104220020012438490B78002B02D0AA
:1037D0002000013BDBB2013AD2B2002AF6D1002828
:1037E00000D130E60B702EE6212B07D1304B1B7831
:1037F000022B00D141E7FFF757FA24E6122B04D140
:103800002C4B002A00D1F7E604E7182B00D10BE778
:10381000192B00D10FE71D2B00D113E71E2B00D170
:103820001DE7254804F0E2FC7F2800D90BE61F4B7A
:1038300018781D4BC0001B782033C018C0B21F4B36
:1038400019784A1C1A7036E7022900D0FBE50D2BC7
:1038500004D11B4A137859424B413CE70E2BC5D08B
:10386000212B10D1124A1278022A00D105E7154AFD
:10387000D05C134B1B78002BE1D00300613B192B6C
:10388000DDD82038DAE70A2B00D1CDE60C2B00D1A9
:10389000D1E60B2B00D1D5E6032B00D1DFE6122BAE
:1038A000E5D1002AE3D0B5E66A0100106C010010F2
:1038B0000804001007040010990200101A030010F9
:1038C0003200001060D7000010B5FEF7A9FC0B49CC
:1038D0000B4804F093FC002420000134E4B2FEF70E
:1038E00083FCFFF719FD202CF6D10022054B013C8B
:1038F000E4B21A700833002CF9D110BDACB100004D
:10390000990200107D110010F0B5AC4BADB01C78E1
:10391000002C01D001F097F984222100A848520020
:1039200004F021FCA74BA84D1E782C70002E00D16E
:10393000C2E0A64B18780438052826D806F0DCF833
:10394000030E251E8DB2A24BA2481B78002B00D17E
:10395000A14800220321FCF745FD16E00BA909A8A8
:10396000FDF718FD06AB187D002303221900FCF7B4
:1039700029FE06AB587D0023152203E0974B032256
:10398000187800231900FCF71DFE09AC0422202141
:10399000200004F0E8FB0023914A2371914B127838
:1039A0001B7801251343904A1278134314D18F4B8F
:1039B0001B78002B03D08E4B1B78002B0CD08D4B2B
:1039C0001D788D4B1B781D438C4B1B781D438C4BF6
:1039D0001B781D436B1E9D4103F02AFCAF231B0186
:1039E000984200DB8748884B984200DA1800874BE2
:1039F000AF21C0180A238900584306F011F92C237F
:103A00000026C0B25B424008181A6F4BE0701B786A
:103A10000093B3420DD008AF38000BA9FDF7BAFCF4
:103A200006AB1B7D20000093F97806AB5E7DFCF7AA
:103A300041FD774F3B78002B05D0764B1B78002B50
:103A400001D04033A370744B1B78002B01D100F0E0
:103A5000CDFF6533A37001F00BF80BA909A8FDF7A2
:103A600099FC06AB9889002303221900FCF7AAFDF4
:103A700006AB987B002315221900FCF7A3FD06ABCB
:103A8000D87B002327221900FCF79CFD09A803F02E
:103A900083FD072106F0AAF960488B000022392136
:103AA000185858E75E4B0322187800231900FCF7DA
:103AB00089FD5C4B18785EE75B4B1C78002C25D0A9
:103AC0005A4B05241B785A4D0093009A594B944643
:103AD00063440293013B187832006043032140198C
:103AE000FCF780FC0223544F009A3B70514B1E217F
:103AF000985C320060434019FCF774FC0122029B81
:103B0000512158783A706043401924E7384B4B4AAA
:103B10001B781278134300D19CE0494F7F203978FD
:103B2000FFF7D2F83D78474E103DEB433000DB17EE
:103B30001D4004F05BFB7D22009021000CA80B943B
:103B400004F011FB009A112A00D9112271190BA857
:103B500004F0E8FA002203210BA8FCF743FC3878B4
:103B6000FFF792F8384B1B78012B0AD0334B1B78A8
:103B7000002B00D109E7012203210020FDF70CFFF3
:103B800003E73225314B012218782900C00020308C
:103B90002018C0B2FCF7E6FB2D4B1B78A34206D1E0
:103BA0000635EDB2012229007F20FCF7DBFB013452
:103BB0000635E4B2EDB2082CE4D1D7E71D040010BD
:103BC000801300100D04001013040010891400105D
:103BD000280000109AB60000B0B1000033000010B9
:103BE000FE03001001040010110400102404001052
:103BF00007040010FA03001018040010020400105B
:103C000023040010EF0A000034080000CCF7FFFF87
:103C1000FC030010500300100804001028BD000031
:103C2000201C001039010010030400104C02001089
:103C3000580C00107310001026000010FD03001037
:103C40001A03001099020010290400106C010010E2
:103C50006A010010CC4BCD481C78002C00D08EE2BD
:103C6000CB4B1B78002B6CD0CA4BCB4D1E685F68CA
:103C70002A686B683000390004F038FF02000B003E
:103C80003000390005F094F80022C44B06F0C8FA61
:103C900006F042F9C24EC34FC3B202933268736852
:103CA00000920193009801993A687B6804F01EFF26
:103CB00002000B000098019905F07AF80022BA4B37
:103CC00006F0AEFA02000B000020B74906F014FD22
:103CD00006F022F9C3B20222306871680093230013
:103CE000FDF7A0FA3868796823003222FDF79AFAC6
:103CF000A84B0222186859680123FDF793FA286837
:103D0000696801233222FDF78DFA0F272500A74BA2
:103D10006235E15CEDB2791A2800C9B2FCF7BAFB52
:103D2000013428000099FCF7B5FB202CEED1FF21CF
:103D300002989F4A6230C0B213188433197011542C
:103D400023E69C4B1B78002B00D198E09A4E3478E8
:103D5000002C49D0994B1B781D001C1E18D0984A86
:103D6000013BDB00D3181D685C680022002328009B
:103D7000210006F057F8002802D080231B06E41823
:103D8000002200232800210006F060F8002812D14C
:103D90002800210006F0DEF801230322FCF712FCC4
:103DA00000233370F1E5280021000022854B04F048
:103DB00051FF05000C0028002100834A834B06F0C8
:103DC00031F80028EFD128002100814A814B06F00C
:103DD00047F80028DCD0280021000022794B04F0AD
:103DE000E7FF05000C00EEE77B4B1B78002B19D09A
:103DF00008237A4D0122032120002B70FDF7CCFD12
:103E0000012238211000FDF7C7FD22000321022006
:103E1000FDF7C2FD220038210320FDF7BDFD092377
:103E20002B70B2E56E4B6F481B78002B13D002222B
:103E30006D4B1A7004F0DAF9002807D00921002030
:103E4000FDF702FA0122684B1A709EE50200032179
:103E5000FDF7A2FDF6E704F0C9F9041E07D0112111
:103E60000120FDF7F1F900220321100086E601226E
:103E70000321FDF791FD2200032101207EE65B4B2B
:103E80001B78002B2DD05A4D280004F0AFF9040008
:103E9000112800D91124290000250BAE2200300082
:103EA00004F040F92A00032130003555FCF79AFA56
:103EB0000520504B01221C784F4B03211B5D5843BA
:103EC0004E4BC018FCF78EFA01233F222000290038
:103ED000FCF778FB4A4B5722187801230138C117A9
:103EE00051E5484B1B78002B37D0474B1C78474B8C
:103EF0001B78002B09D002233B4D00220E2120000D
:103F00002B70FDF7C3F901238AE7414B1B78002B87
:103F100003D0032C01D9043CE4B23E4B1B78002BA8
:103F200003D0002C01D0013CE4B220000022062185
:103F3000FDF7ACF9601C00223B21C0B2FDF7A6F9E9
:103F4000201D01220621C0B20534FDF79FF9012290
:103F50003B21E0B2FDF79AF917E52F4B1B78002BB8
:103F600060D00223204D03222B702C4B1C780023A1
:103F7000601C1900FCF726FB294BA40000221B2122
:103F8000E058FCF72FFABEE71F040010C6B100008E
:103F900016040010400400104804001000004040C7
:103FA000701100106811001000003040481100101E
:103FB00080130010FC0300102004001054020010B5
:103FC00058020010000024400000901EC4BCD642DD
:103FD00000003426F56B0C43FB0300102500001095
:103FE00027000010780300102600001012040010B3
:103FF000990200105404001073100010580C0010A7
:104000007210001019040010881400101A04001017
:104010008B1400108A140010050400109802001080
:1040200068BD0000E04B1C78002C2ED0DF4804F067
:10403000DDF8DF4C011E0ED012210120FDF704F93E
:104040002178002900D1A0E400220139C9B20BA8CF
:10405000FFF746F899E42378012B0BD9023BDBB23A
:10406000020019000BA8FFF73BF821780139C9B20B
:104070000122ECE7002BFBD1CE490BA804F0BEF8DF
:1040800001210BA8FEF772FD7FE4CB4B1E78002EBA
:1040900049D0CA4B220019786D20FCF761FDC84B4E
:1040A00001221978AA20FCF75BFD2200442161203F
:1040B000FCF758F9C34B220018784A21FCF7C6F9DF
:1040C000220059217220FCF74DF9BF4B22001878CD
:1040D0005F21FCF7BBF901224421B220FCF742F931
:1040E000BA4B01221D784A212800FCF7AFF90123C1
:1040F000592228002100FCF765FA1F2D04D901225E
:104100006E212800FCF72EF9B14B1B78002B00D153
:104110003BE4B04B1A78002A00D036E444213F201B
:10412000FCF720F931E4AC4B1C78002C5AD0AB4B97
:104130001C78AB4B1B781C434AD00BAC18222021B7
:10414000200004F010F8A74909AD062228002676C1
:10415000023103F0E7FF3300A348002206E0E95CE8
:10416000890061188E540132042A02D0865C0A2E1E
:10417000F5D101300133FF30062BEED12000FDF7E1
:10418000C7F8FFF702FC7D19EEB23000FCF70AFD1C
:1041900001360500F0B2FCF705FD401B013813287D
:1041A00000DD1320FF230BAE03401A00290030006E
:1041B000009303F0B7FF0023009A0321B3543000AB
:1041C0003A00FCF70FF9012C01D1FFF7DEFB0124C7
:1041D000864BE7B21D782E19FCF708FD8642D2DB2C
:1041E000FFF7D3FB824B1B78002B00D18BE005221D
:1041F000804909A803F096FF142220210BA803F0A0
:10420000B2FF282206AB9B181C707B4B7B4C1B78A3
:10421000002B00D17A4C200003F0E8FF21000200BF
:104220000BA803F07FFF774B774C1B7806AA7F3BE8
:1042300093772378754A013B9B009D58280003F033
:10424000D5FF290002000EA803F06CFF704F09A8EB
:104250003B683A68DB17FCF747F9102209A90BA85D
:10426000FDF7C5F8002203210BA8FCF7BBF83B685B
:10427000207899B2FEF742FC1422060020210BA8F8
:1042800003F071FF2822002506AB9B181D70022247
:10429000202109A803F067FF002306AA93731300E7
:1042A0005F225A73574BECB21B78002B1BD1B442E0
:1042B00005D3A11B0131C9B209A8FCF7FBF809A875
:1042C00003F094FF03240200200068430BAB18188E
:1042D00009A9013503F026FF072DD8D101222100BD
:1042E0000BA8FFF738FB0722534301339B1BE4184D
:1042F0003B68E4B299B2444B1878FEF721F8844247
:10430000DDD82100D8E7434B1C78002C00D18DE08C
:1043100008A907A8FDF73EF806AB5C7A06223E49DD
:104320000BA81F7A03F0FEFE20000A2105F074FCA2
:104330003031CBB220000A21009305F0E7FB0A21BF
:10434000C0B205F069FC09243031CBB2334E029380
:104350000BA909A803F052FF304B35781B78FB1AE4
:10436000EB18D9B25AB21B065CD51831C9B209A8EC
:10437000FCF7A0F8009A06AB1A74029AAD00DA7343
:10438000274B2100E8580022FCF72CF8A11F243409
:104390000122C9B209A8E4B2FCF724F80136752C51
:1043A000D6D1FFF7F2FAC0462704001078030010B8
:1043B000EA1A0010DFB10000FE03001037020010FF
:1043C0003A02001048010010791100103802001064
:1043D000FF03001000040010240400101E0400104D
:1043E000100400106FB90000E9140010E814001068
:1043F0000104001036B2000014040010B4B1000033
:10440000BDB100003C0200103B020010D0CF000004
:1044100040020010250400103BB2000036010010DD
:1044200028DA0000172AA2DD18399FE7E54B1E782D
:10443000002E24D00222E44B21001A70E34B0132FB
:1044400018782300FCF7BEF8E14B5D2218782100B4
:104450002300FCF7B7F8DF4B1B78002B00D1F1E409
:10446000DD4B2100187821222300FCF7ABF8DB4B51
:104470003F22187821002300FCF7A4F8E2E4D84B8F
:104480001B78002B2FD0112231000CA80B9603F0C3
:104490006AFED44D03222878330000210130FCF756
:1044A00091F8FCF7B5FBD04B0BAC8000C158200055
:1044B00003F0A4FECD49200006F04CFE2B78CC4A38
:1044C000DB009958200006F045FE2B780F21267559
:1044D000082B00D9063100222000FBF783FFFCF7F0
:1044E000ADFBFFF752FAC34B1C78002C00D19FE0C4
:1044F0000BAC210009A8FCF74DFF23780824092BF9
:1045000000D90234BC4B00251B780093BB4B1B78B1
:104510000493009B072B06D80A20B94B009A9D5C98
:10452000049B5D434543B74BFA261B68B6000293D4
:10453000B54B1B680393B54B039A1F68029B390068
:10454000981AC343DB171840704305F069FBB04B62
:10455000059018682100704305F062FB059B00225E
:104560001818441BE343DB171C40AA4BAA4D1C60E0
:10457000AA4B03211B68E42073432B60FBF7F2FE78
:10458000029B0922D91702980023FCF71BF800228E
:104590001B21AA20FBF7E6FE039B2122D9170398D3
:1045A0000023FCF70FF800223321A820FBF7DAFEE6
:1045B000002339223800F917FCF704F800224B21B8
:1045C000B420FBF7CFFE0023512219000498FBF71B
:1045D000F9FF0023632219000098FBF7F3FF002284
:1045E00069216820FBF7BEFEFCF728FB01224B2166
:1045F000B220FBF7B7FE6421200005F011FBC117C4
:1046000004F0EAFE0022864B04F0D2FB0123512283
:10461000FCF708FE01226921E120FBF7A3FE31002F
:10462000286805F0FDFA01236F22C117FFF7ABF9E7
:104630007C4B1B78002B2AD07B4B22001D7803215A
:1046400002352D01EDB22800FBF700FF0322280000
:1046500021000123FBF7B6FF5A22FE21734803F025
:1046600082FD0627E6B23000674380381B37002200
:104670003900C0B27619FBF775FE0134012239000A
:10468000F0B2FBF76FFE102CEBD1FFF77EF9684B11
:104690001B78002B00D1D5E0664B03221E78002347
:1046A000701C1900FBF78EFF0F25082E03D9063565
:1046B000622E00D90635604C33011E5B0022300AA1
:1046C00029000093FBF74EFEF0B20022A91DFBF774
:1046D00049FE009B0720E3185F882A00002338402A
:1046E00019001232FBF76EFF00232A002E003F064E
:1046F000FF0E380019001E32FBF764FF3036092F19
:1047000001D82A352E00009B3200E5180023E87BF3
:104710001900FBF757FF686806F0E6FB0022474BDD
:1047200004F046FB32000C320023D2B2FCF77AFDD3
:10473000404B03221B7800211B010093E3185D8985
:1047400001232800FBF73EFF1526632D05D9FA2328
:1047500006369B009D4200D30636009B3200E318CC
:104760009F89002101233800FBF72CFF632F20D8FD
:1047700035001235009BE318987B06F0B5FB00224C
:10478000274B04F015FB2A000123FCF74BFD294BB6
:1047900015351B781B01E418208906F0A5FB0022C3
:1047A000274B04F005FB0123EAB2FCF73BFDFFF7C2
:1047B000ECF8FA2335009B001E359F42DAD2063D05
:1047C000D8E7C04611040010260000105004001065
:1047D0005104001030000010520400105304001067
:1047E0000A04001054030010B8BA000039B20000E7
:1047F00050C30000230400105C0300102C040010C0
:10480000C7CF00001C000010200000102C0000107A
:1048100070010010600300104802001058030010DF
:1048200000002440FA0300106B0100109B130010DD
:10483000180400107811001000D0000000408F40D4
:10484000000059406D4B1B78002B20D06C4B03228D
:104850001878002301301900FBF7B4FE694C64207E
:104860002378002B00D15C3000221521FBF77AFD64
:10487000002221210120FDF789FD207801224342F9
:10488000584103210230FDF781FDFFF77EF85E4AB3
:104890001278002A0CD15D4B5D481B78012B03D0A8
:1048A0005C48022B00D05C48FCF732FDFFF72BFB85
:1048B0001D000024594FDA1994465A1ED2B20392B1
:1048C000624601201278511E88402D18ADB220009A
:1048D000012B02D90821081BC0B2514EC000D200E2
:1048E000C11C92190B3000920290039E0020012EF1
:1048F00000D984304B4E7218009E01313678165420
:10490000009A0298013200928842EED104220134CA
:10491000E4B294449442D3D101339342C9D10023E9
:10492000502219002800FBF74DFE3F4B1A88AA427F
:1049300000D21D801888502201230021FBF742FE7F
:104940003800230001220021455C002D4AD00131AE
:104950000429F9D1013BDBB20430002BF3D1002A4A
:1049600001D1FFF712F804252100F81AEE1A057894
:10497000AC461D18AD5DAC4536D00139C9B2013029
:104980000029F4D1043B19000C31ECD1002A01D1EB
:10499000FEF7FBFF79783B788B4205D0BB789942D4
:1049A00002D0F978994200D10022013CE4B20437E8
:1049B000002CEFD1002A01D1FEF7E7FF18222100D9
:1049C0001A4803F0D0FB18222100194803F0CBFB52
:1049D000220003211748FBF705FD01220321164899
:1049E000FEF7B9FF2A00B5E70022CBE7134B1B788F
:1049F000002B25D05B012833FFF72CF802040010B0
:104A00004D020010290000100904001008040010D5
:104A1000EBB1000004B200001DB200003D03001025
:104A2000BDBE0000801300104E0300108313001061
:104A300007140010E1B10000E6B100000C04001002
:104A40008E4B1B78002B00D106E18D4A0BAB0B92ED
:104A5000B5225A7030329A708A4A12789B5CA370E1
:104A6000022A05D1884B1B78002B01D0B423637038
:104A7000864B1B88002B05D1854B864A1B78127804
:104A8000134301D0E223A370834B1B78002B01D08A
:104A9000DA23A370814B1B78002B0AD103206B42D1
:104AA00018407F212018002D00D112390022FBF779
:104AB00099FC04222021200003F055FB00232371E0
:104AC000774B1B78002B13D020000099FBF7F2FCEA
:104AD0000A21300005F0A0F83031E17030000A21E1
:104AE00005F014F80A21C0B205F096F83031A17033
:104AF0006C4B1B78002B1AD06B4B0A211E783000B0
:104B000005F08AF83031A17030000A2104F0FEFF70
:104B10000A2180B205F080F830316170632E00D830
:104B2000A4E06421300004F0F1FF303020705F4BCE
:104B30001B78002B0FD0FBF701FE64235843C012F3
:104B40000A21053005F06CF8C0B221230A2801D8EB
:104B50003030C3B2E370564B1B78002B0ED0FCF7FD
:104B600037F8544BFF21C31A6420584305F058F816
:104B70000A21053005F054F83030E0704E4B3A7899
:104B80001B78134312D04D4B1B78002B06D04C4B97
:104B900019788A23002900D16233E370002A05D0F6
:104BA000484B1B78002B01D04323E370464B1E7803
:104BB000002E06D00D20454B197806ABC018FBF728
:104BC0003DFE364B1B78002B0AD103206B42184068
:104BD0007F212018002D00D112390122FBF702FCA1
:104BE000002E10D001235B420B93384B03201A7820
:104BF0000123104092089340DB430BA90B5404227D
:104C0000334803F08FFA334B1B78002B1BD0324B09
:104C1000FE211A78314B12019B185C8812220BA8D6
:104C200003F0A1FA23060BAADB0ED31807220121F9
:104C30001440A140093A4A40013B1A702848122208
:104C40000BA903F06FFA0020FCF762F90120FCF7D2
:104C50005FF900202DB0F0BD174B1B78002B00D161
:104C600006E7204B1B783033FEF7F4FE2023237039
:104C7000092E00D95BE7637059E7C04607040010AE
:104C8000316371002904001032000010560C00102E
:104C90001B040010000400101C0400101604001077
:104CA00013040010030400104C0200101204001042
:104CB0002404001036000010270400100B0400101C
:104CC000F9030010FB0300101904001088140010F1
:104CD00083140010180400107811001000D0000098
:104CE00076140010E91A001010B5FDF7C7FB02F0AA
:104CF000D1FB02F0EAF80020012102F035FF00208C
:104D000002F0DCF9002802D1012102F02DFF02F0AF
:104D10002DF9C820FCF7F1F87020FCF7EEF810BD73
:104D2000F0B587B003F094FA02F088F90222DC4B68
:104D3000C8201A70DB4B20321A70FCF7DEF87020A6
:104D4000FCF7DBF80021D84802F082FD0021D748AB
:104D500002F07EFD02F0DDF901220421002002F0C4
:104D600009FD00220421100002F050FD012205215E
:104D7000002002F0FFFC00220521100002F046FD99
:104D8000002002F03BFCCA4C00212000C94A03F07D
:104D9000EAF9E1222000C849920003F0C3F9B422E5
:104DA000C64BC74C1A70802200211201200003F06C
:104DB000DAF9C44AC449200003F0B4F940221F21A3
:104DC000C24803F0D0F9FCF705FB83B2039300233C
:104DD000BF4C02932378002B02D0FEF795FD207084
:104DE000BC4B1E88002E00D1D8E0701C80B2188009
:104DF000B34B9D5DFF2D00D0C2E0B74B1A78002A5F
:104E000000D18DE0FBF73CFCB24B1880B34B1B7814
:104E1000002B01D0FDF722F9012002F04FF9002804
:104E200010D00023AC4A1370AA4A1380AC4A137006
:104E3000AC4A1370AC4A1370AC4A1370AC4A13708E
:104E4000FDF71CFBFF23AB4A1370FCF7C3FA039B6F
:104E5000A94DC01A2B78984202DD2223A54A13706F
:104E6000A44B1B78FF2B00D1B0E3029A934200D1F0
:104E7000ACE3A24E3378002B44D00124A04A210099
:104E800013682000234313609E4A022713682343BC
:104E90001360220002F06EFC22000221200002F0CA
:104EA00069FC00222100200002F0B0FC2200022157
:104EB000200002F0ABFC200002F096FE2200210050
:104EC000200002F0A3FC20000022022102F09EFC40
:104ED000200002F089FE012F00D041E33A003900A2
:104EE000380002F093FC3A000221380002F08EFCF8
:104EF00000223900380002F03DFC00220221380077
:104F000002F038FC7B4B1C78222C00D02AE3FF23D4
:104F1000784A1370FFF7E8FE01226D4B1A704CE3DC
:104F20006F4B1B78002B11D06A4B1A80FDF796F857
:104F3000754B1C78754B1B78E41AFBF781FB013C21
:104F4000E300734CE4182060616065E7614A1380F8
:104F5000644B664A1B7812781343634A12781343F2
:104F60006C4A127813436C4A12781343604A1278E1
:104F7000134300D050E701332370FDF77FFA4BE76E
:104F8000362D03D82800FDF781F845E7FBF76CFBC9
:104F90002800FBF7C1FB4F4B18803DE7534B1B78B4
:104FA0000193002B54D05D4F3B780133DBB23B7053
:104FB000022B0DD807D1FCF70DFB59485949FCF7D6
:104FC0002FFAFDF797FB584B1B88424A13803CE7AA
:104FD000FCF700FBFDF7C0FB00205449FCF720FA6A
:104FE000FDF788FB4E484F49FCF71AFAFCF7F2FA36
:104FF000FDF7B2FBFBF724FBFCF712FA0D00019062
:10500000FDF72AFC00220023290001983E7004F0DD
:1050100009FF002802D080231B06ED182900404A12
:10502000404B019804F0FEFE002803D1404D2B7840
:10503000142B05D90123237000232C4A1370C4E7D5
:10504000FCF708FBFCF706FB2B7801332B70FCE622
:10505000254B1F78002F00D1CAE0304B2F4A1B7818
:105060001C490133DBB213702F4A12880A80012BCE
:1050700000D1EAE62F4C26686768022B5ED1FBF769
:10508000DFFA0B0002003900300003F035FD2A4B37
:105090002060616018685968FCF7C2F9D5E6C0461F
:1050A00039010010201C0010984004409C4004402E
:1050B000580C00101A0400008ACB00007210001077
:1050C000560400107405000016C60000F701001019
:1050D00031000010560C0010490100101904001096
:1050E0001B040010150400100E0400102204001010
:1050F000040400102A0400103300001028000010DF
:105100007C400440804004407B1100107C11001062
:105110008012001021040010170400107D120010EE
:10512000FCA9F1D24D62503F520300100000F0BFC5
:105130002B0400107003001040040010D44D032B0A
:1051400011D1FBF77DFA02000B003000390003F0AB
:10515000D3FC2A686B6820606160CE4908684968A2
:1051600003F0CAFC98E7162B2BD80024DB0726D5C2
:105170008025ED05FBF764FA02000B0020002900F2
:1051800003F068FD0B0002003900300003F0B4FCAE
:10519000C14B18605960BF4B1C685D68BC4B1E68F2
:1051A0005F68BE4B1878023805F06EFE32003B0097
:1051B00003F050FD02000B0020002900D0E7B84D9D
:1051C000D8E7FBF73DFA2A686B683000390003F036
:1051D00041FD0022B34B03F0EBFDFCF721F9012266
:1051E000B14B1A70B14B019A1A70B14B1A802CE670
:1051F000B04B1A78002A6ED0A84AAD491378013313
:10520000DBB21370AC4A12880A80012B00D11CE675
:10521000A14E34687568022B13D1FBF711FA020016
:105220000B002000290003F067FCA44C3060716083
:1052300020686168A24AA34B03F05EFC20606160B5
:105240002AE7032B22D1FBF7FBF902000B00002019
:105250009D4903F0FFFC02000B002000290003F031
:1052600045FC306071608021944E954A954B00203A
:1052700034687568C90503F0EDFC02000B002000DE
:10528000290003F039FC3060716005E7042B08D178
:10529000FBF7D6F902000B0000208B4903F0DAFC83
:1052A000BDE7FBF7CDF902000B002000290003F059
:1052B0001DFC0022854B03F07BFD814A814B03F0EE
:1052C00077FDFCF7ADF80122774B1A70794B1F7010
:1052D000774B1F80B9E57E4B1978002900D18CE00F
:1052E0006E4D73482E780136F1B2019129707249E2
:1052F0000988018077490878002845D1019B012B56
:1053000000D1A2E5634B1E685F68019B022B0AD1A6
:10531000FBF796F9704B18605960704B1860596034
:1053200030003900B8E6019B222B29D8FBF788F919
:105330000D000B006949040002000868496804F088
:1053400085FD002802D0654B1C605D60624922002B
:10535000086849682B0004F065FD002802D05E4B08
:105360001C605D600198023805F08EFD484B1A689C
:105370005B6804F055FF02000B0030003900EFE6D7
:10538000012328700B70CBE70199012900D15CE55E
:1053900021292ED8514C26686768FBF751F9020085
:1053A0000B003000390003F0A1FB4B4B06001A68DC
:1053B0005B680F002068616803F098FB02000B0037
:1053C0003000390003F0F4FC2B78454C00220193A7
:1053D000E418444B04F024FF04F09EFD2D4B023CE6
:1053E00020701C685D682A4B1E685F68019B581E10
:1053F000DAE601211A70217027E53B4A1378002B69
:1054000010D03A490B68581E0860002B06D0384B64
:105410001878FBF781F9264B188016E513700123E5
:10542000237012E5334E3578002D19D0FDF794FD29
:10543000314D280002F0DAFE00280BD02800FCF7DE
:1054400065FE03000B3BDBB2F32BE2D92800FCF72F
:10545000A3FDFAE4294B30701870FDF70FF8DEE772
:10546000274E3378002B53D0264F274B3C781D70A6
:105470002000FBF751F90E4B01341880234BE4B2A6
:105480001B783C70A34200D3DFE43570DDE4C046F6
:105490006803001040040010700300107D1200101B
:1054A0000000104000000840310000100E04001001
:1054B000560C00102104001052030010901400102C
:1054C000FCA9F1D24D62503F00002040000028406E
:1054D000170400102B040010681100107011001048
:1054E0004811001000002E4004040010500200106B
:1054F0002D040010150400101C0300101B030010E5
:105500001B0400107B110010540200107A110010CF
:10551000B54C2378402B17D0B44A13705A1C227014
:10552000B34AD05CB34B1870FBF7CAFAB24B800099
:10553000C3589847FBF7B6FC002800D185E4402308
:105540002370FCF79BFF80E40A20AC4B03211B78FF
:10555000584302F009FBFCF765FFA94B187074E48F
:1055600027009EE4A74A1178002900D1D9E0242C15
:1055700004D10023A4490B7013701EE0A34B1B78C9
:10558000042B04D133785A425341337015E0052B74
:1055900037D105AC210004A8FBF7FCFE984B1B7823
:1055A000132B17D12378172B01D80133DBB22370CB
:1055B0000022210004A801F0BFFF954B1B78002BAF
:1055C00000D199E1FBF706FF83B203938C4B1B7864
:1055D000FFF7FEFB182B04D12378002BE7D0013B0B
:1055E000E4E7142B06D163783B2B01D80133DBB2FF
:1055F0006370DDE7192BDBD16378002BF8D0013B1A
:10560000F5E7072B29D1132C06D12B78EF2B01D8E6
:105610000133DBB22B70D0E7182C04D12B78052B8B
:10562000F8D9013BF5E7142C0AD105222B78EF2B92
:1056300001D80133DBB2013AD2B2002AF7D1E9E74F
:10564000192CBAD105222B78052B01D9013BDBB2ED
:10565000013AD2B2002AF7D1DCE7082B40D105A9E4
:1056600004A8FBF797FE664B1B78132B0AD104ABFB
:105670001B88622B01D801339BB204AA138000223D
:1056800005A997E7182B05D104AB1B88002BF4D094
:10569000013BF1E7142B08D104AB9B780B2B01D80D
:1056A0000133DBB204AA9370E9E7192B05D104ABEF
:1056B0009B78002BF6D0013BF3E7152B08D104AB08
:1056C000DB781E2B01D80133DBB204AAD370D6E7F6
:1056D0001A2BD4D104ABDB78002BF6D0013BF3E7D7
:1056E000092B00D069E7132C06D14A4A13783E2BC8
:1056F0000BD80133DBB208E0464A182C0CD0142C2E
:1057000007D1454A1378062BF3D9137001F008FC32
:1057100053E7192CFAD1404A1378002BF5D0013BFE
:10572000E8E7394B1B78002B12D0242C02D1364BE2
:10573000197042E7062C03D1384B394A1A603CE70E
:10574000231F052B00D938E7304B1C70012313E7CA
:10575000344D2A78002A00D1B9E0242C02D12B70D4
:10576000FFF7DAFB012C06D12F4B1B78013B2F4AA8
:105770001370FFF7D1FB042221009143022909D1C4
:105780002A4C294B20781978013004F02FFB217026
:10579000FFF7C2FB072CEAD0032C10D1234D224B7C
:1057A00028781E7807343100013004F01FFB013CDB
:1057B000E4B2C8B2002CF6D12870FFF7ADFB231F6E
:1057C0009343DBB2002B03D1FBF718F8FFF7A4FBE0
:1057D000092C2DD10134013CE4B2FBF70FF8002C69
:1057E000F9D1FFF799FBC046240000103A020010DF
:1057F000F7010010F6010010C8BB000033000010D4
:105800002A0400100D0400101F0400108914001059
:10581000FD030010201C0010390100100CED00E009
:105820000400FA0503040010721000104C0200106E
:10583000052C01D0122C31D1BB4B1A78BB4B1B78F5
:10584000134305D1BA4ABB491278895CBA4A117030
:10585000BA4A1478002C0DD0B54BB64A1B78D05CF0
:10586000FAF75AFFB64B1880FCF708FE0023B54A3A
:10587000137074E7B44A12781343F5D0AC4BAD4AB9
:105880001B78D05CFDF734FA0122B04B1C70B04B92
:105890001C70B04B1A70B04B1C70E5E7132C08D18C
:1058A000AE48FCF733FCFAF713FFA14B1870FFF773
:1058B00033FB2300143B082B01D9FFF72DFBA84B2A
:1058C0000A21187804F022F9133C6043EDE7A54F54
:1058D000954A3B781278134302D0FDF795FD6CE6AC
:1058E000A14A1678002E0BD0137009229F4B1A7014
:1058F000FAF7A6FEFAF7A4FE01229D4B01F07DFA0D
:105900008E4B1A789C46002A00D1A8E08D4F3B7838
:10591000242C22D1012B04D12B70FCF781FC3E708A
:105920004BE6022B13D10024924B934D1C7063461F
:105930001C702B783C70A342DED0FAF781FEFBF797
:105940006FFD09238D4AFBF703FB2C7035E602231C
:1059500000223B708A4B1A70CEE7232C06D1013B04
:105960005A1E93413B70864B1E70C5E7012B1DD11B
:105970001C2C09D1FCF772FB824A137859424B4127
:10598000137000233B7018E6192C05D101227C4BC3
:105990001A7000233B70AFE7182C10D17A4A1378A5
:1059A00059424B41137000233B70A5E7022B06D1EF
:1059B000192C04D1724A137000233B709CE7704A83
:1059C0001178012919D1002313701A2C05D1462012
:1059D000FAF7A2FE5A4B18808EE71B2C05D14820FF
:1059E000FAF79AFE564B188086E71C2C84D14A2081
:1059F000FAF792FE524B18807EE702291AD1002353
:105A000013701A2C05D14720FAF786FE4C4B1880EC
:105A100072E71B2C05D14920FAF77EFE484B18800F
:105A20006AE71C2C00D067E74B20FAF775FE444B61
:105A3000188061E727256B43E318DDB2122D03D8E8
:105A40002000FCF723FBB8E5212D01D0FCF706FB75
:105A50004E4B585DFAF760FE394B1880ADE53A4B76
:105A60001978002900D1FFE0242C01D11A7006E03A
:105A7000012C07D13A4B464A1B78013B1370FBF7C8
:105A8000BDFF9AE5022C08D1414C354B207819789E
:105A9000013004F0ABF92170F1E7032C0FD13C4D3C
:105AA0002F4B28781E7807343100013004F09EF91E
:105AB000013CE4B2C8B2002CF6D12870DFE7052C17
:105AC00001D00F2C04D101233B70FBF797FFD6E7E1
:105AD0000E2C03D101232F4A1370F5E7072C02D1B6
